:100000000C949D010C94CE010C94CE010C94CE0165
:100010000C94CE010C94CE010C94CE010C94CE0124
:100020000C94CE010C94CE010C94CE010C94CE0114
:100030000C94CE010C94CE010C94CE010C94CE0104
:100040000C94CE010C94CE010C94CE010C94CE01F4
:100050000C94CE010C94CE010C94CE010C94DD1FB7
:100060000C94CE010C94F2220C9428230C94CE0113
:100070000C94CE010C94CE010C94CE010C94CE01C4
:100080000C94CE010C94CE010C94CE010C94CE01B4
:100090000C94CE010C94CE010C94CE010C94E0068D
:1000A0000C94CE010C94CE010C94CE010C94CE0194
:1000B0000C94CE010C94CE010C94CE010C94CE0184
:1000C0000C94CE010C94CE010C94CE010C94CE0174
:1000D0000C94CE010C94CE010C94CE010C94CE0164
:1000E0000C94CE010B210E21FD2001210721452179
:1000F000122116211C21202124212A212E213221E6
:10010000452138213C214021036EDB363D9A9999E7
:10011000993DABAAAA2A3E000000803F084AD73B7F
:100120003BCE016E84BCBFFDC12F3D6C74319ABDC6
:1001300056833DDA3D00C77F11BED9E4BB4C3E91EA
:100140006BAAAABE000000803F072C7AA5BA6CC536
:1001500090DA3B9365FC8BBC53F810FD3C569283C0
:100160004DBD879D3AB63DCBC9BF5BBE73DA0FC9A3
:100170003F000C940E210C940E090C947C210C94DD
:1001800040210C9409220C9421080C9452230C94C5
:10019000040F0C9414080C942B220C94400B0C9418
:1001A000D7040C9432210C9427050C940B210C9449
:1001B00016210C94CD040C9420210C9495040C94DD
:1001C00097210C945C230C94EA040C9411080C9471
:1001D000FA040C941A080C947E210C94910B0C9444
:1001E000AB210C944D0B0C9489210C94D0010C94F0
:1001F00012210C9445210C94D7010C9401210C94EC
:100200003C210C9438210C94110E0C94460B0C9448
:100210003A0B0C94540B0C94CF040C94FD200C94CA
:10022000370B0C94B1230C941C210C9424210C94B6
:10023000F9040C942A210C94F6050C9407210C94D3
:100240002E210C94D60100000A0B02090C0D0E0899
:10025000070304010000000000000000000000008F
:10026000000000000000000000000000000000008E
:10027000000012111000000000000000000000004B
:10028000000000000000000000000000010210203B
:1002900020080810204010204080020102010804BC
:1002A0000201010204081020408080402010080450
:1002B00002018004020180402010080402010804A9
:1002C00002010102040810204080010204081020ED
:1002D0004080050505050705080808080202020216
:1002E0000A0A0808040404040101010101010101D2
:1002F0000303030303030303040707070C0C0C0C9D
:100300000C0C0C0C02020202060606060606060685
:100310000B0B0B0B0B0B0B0B000022002500280016
:100320002B002E00310034000201000005010801FD
:100330000B019504F6055C23CD0411241FBECFEFFD
:10034000D1E2DEBFCDBF00E00CBF13E0A0E0B2E021
:10035000E4EDF4E500E00BBF02C007900D92A83178
:10036000B107D9F725E0A8E1B3E001C01D92A13D96
:10037000B207E1F713E0C8E3D3E000E006C022973C
:100380000109FE010BBF0E941929C233D10780E089
:100390000807A9F70E94A0230C94582A0C94000087
:1003A00025EA32E0FC01318320830895089525EA8F
:1003B00032E0FC01318320830C94AF2385EA92E084
:1003C000909365038093640390936F0380936E030F
:1003D0009093850380938403089526E040E052ECD7
:1003E00061E070E080E395E00E94902262E172E0BB
:1003F00080E395E00E94FC2369E073E080E395E0F0
:100400000E94FC2384E893E00E941D0D811107C027
:100410006CE172E080E395E00E94FC23FFCF8EE662
:1004200093E00E94620D811107C06CE172E080E3ED
:1004300095E00E94FC23FFCF6AEF70E084E693E032
:100440000E94D108811107C06DE472E080E395E05D
:100450000E94EF23FFCF08954F925F926F927F9299
:100460008F929F92AF92BF92CF92DF92EF92FF92C4
:100470000F931F93CF93DF93CDB7DEB76C970FB673
:10048000F894DEBF0FBECDBF60E473E084E893E074
:100490000E94110EC0905C03D0905D03E0905E035B
:1004A000F0905F03009158031091590320915A0373
:1004B00030915B0340915403509155036091560372
:1004C00070915703CE0101960E947C1F8CE0FE01C3
:1004D0003196A4E3B3E001900D928A95E1F760E4D0
:1004E00073E08EE693E00E94040FC0905C03D0900E
:1004F0005D03E0905E03F0905F030091580310915C
:10050000590320915A0330915B0340915403509159
:1005100055036091560370915703CE0101960E94D6
:100520007C1F8CE0FE013196ACE1B3E001900D92AE
:100530008A95E1F760E473E084E693E00E940E0997
:10054000C0905C03D0905D03E0905E03F0905F0389
:10055000009158031091590320915A0330915B0385
:100560004091540350915503609156037091570385
:10057000CE0101960E947C1F8CE0FE013196A8E21C
:10058000B3E001900D928A95E1F72DB73EB72C505C
:1005900031090FB6F8943EBF0FBE2DBFADB7BEB741
:1005A00011968CE0ECE1F3E001900D928A95E1F771
:1005B0008DB79EB70C970FB6F8949EBF0FBE8DBF38
:1005C000ADB7BEB711968CE0E4E3F3E001900D9275
:1005D0008A95E1F7C0902803D0902903E0902A0380
:1005E000F0902B0300912C0310912D0320912E03EA
:1005F00030912F03409130035091310360913203C9
:100600007091330387E993E00E94591260911803B7
:100610007091190380911A0390911B0324E630E036
:1006200040E050E00E94F1280FB6F894DEBF0FBE04
:10063000CDBF672B682B692B09F03BC140909F030E
:100640005090A0036090A1037090A203C090A303F8
:10065000D090A403E090A503F090A603A701960113
:10066000C701B6010E943028698B7A8B8B8B9C8BDB
:1006700080919B0390919C03A0919D03B0919E0358
:100680008D8B9E8BAF8BB88F8091A7039091A80321
:10069000A091A903B091AA038D879E87AF87B88BDD
:1006A000A3019201C301B2010E94302829893A892D
:1006B0004B895C890E94A8259B01AC010E94A8255A
:1006C0009B01AC0160E070E080E89FE30E94A725F9
:1006D000698F7A8F8B8F9C8FA30192016D897E89A0
:1006E0008F89988D0E9430284B015C012D853E85B5
:1006F0004F855889C701B6010E9430289B01AC0183
:10070000C501B4010E94A8259B01AC010E94A82547
:10071000298D3A8D4B8D5C8D0E943226698F7A8FA0
:100720008B8F9C8FA70196016D897E898F89988D0B
:100730000E9430284B015C01A30192016D857E85EA
:100740008F8598890E9430289B01AC01C501B401B6
:100750000E94A7259B01AC010E94A8250E940C269F
:100760004B015C012D853E854F855889CA01B90131
:100770000E9430289B01AC0169897A898B899C8908
:100780000E94A8259B01AC010E94A8259B01AC01F9
:1007900060E070E080E89FE30E94A725698B7A8B78
:1007A0008B8B9C8B2D853E854F8558896D897E89E5
:1007B0008F89988D0E943028A30192010E94A8255C
:1007C000A70196010E94A8259B01AC010E94A825C3
:1007D00029893A894B895C890E94322620E030E0E1
:1007E00044E353E40E9430282BED3FE049E450E419
:1007F0000E9489262B013C0120E030E0A9010E94E3
:10080000852687FF05C020E030E044EB53E403C0B9
:1008100020E030E0A901C301B2010E94A8252B010C
:100820003C016AE872E080E395E00E94EF2322E059
:1008300030E0B301A20180E395E00E94922560E9D7
:1008400072E080E395E00E94EF2320E030E044E393
:1008500053E4C501B4010E9430282BED3FE049E488
:1008600050E40E948926AB01BC0122E030E080E325
:1008700095E00E94922569E972E080E395E00E948C
:10088000EF2320E030E044E353E4698D7A8D8B8DD3
:100890009C8D0E9430282BED3FE049E450E40E94FB
:1008A0008926AB01BC0122E030E080E395E00E94A4
:1008B00094258091180390911903A0911A03B09187
:1008C0001B030196A11DB11D80931803909319037A
:1008D000A0931A03B0931B032091060230910702E4
:1008E000409108025091090260E070E08AE794E4C8
:1008F0000E9489260E94F6260E9456206C960FB60A
:10090000F894DEBF0FBECDBFDF91CF911F910F9145
:10091000FF90EF90DF90CF90BF90AF909F908F901F
:100920007F906F905F904F900895209106023091D4
:100930000702409108025091090260E070E080E8EF
:100940009FE30E948926AB01BC0187E993E00E94E6
:10095000BA114DE556E760E070E084E893E00E944C
:10096000D90B4EE556E760E070E08EE693E00E941A
:10097000EF0B44E150E060E070E084E693E00E9419
:100980007D0884E393E00E946E1F88E293E00E945A
:100990006E1F8CE193E00C946E1F0C94DE0180912D
:1009A000970490E020919804821B9109089520916A
:1009B000980480919704281750F4E22FF0E0E7564E
:1009C000FB4F808190E02F5F2093980408958FEF74
:1009D0009FEF0895E091980480919704E81730F410
:1009E000F0E0E756FB4F808190E008958FEF9FEF96
:1009F00008950895CF92DF92EF92FF920F931F9385
:100A0000CF93DF937C01CB018A01209173042223D1
:100A100089F0EB016B01C40ED51ECC15DD0569F024
:100A20006991D701ED91FC910190F081E02DC70112
:100A30001995F3CF642F0E94B706C801DF91CF91BB
:100A40001F910F91FF90EF90DF90CF900895CF937B
:100A5000DF931F92CDB7DEB7698320917304222301
:100A6000D1F020917404203240F021E030E0FC010C
:100A70003383228380E090E015C080917504E82FD5
:100A8000F0E0EA58FB4F998190838F5F8093750463
:100A90008093740405C061E0CE0101960E94B70600
:100AA00081E090E00F90DF91CF910895FC011382D7
:100AB000128248EE53E060E070E044835583668321
:100AC000778383EB92E0918380830895109298045A
:100AD0001092970410927504109274040C94FA0505
:100AE00081E08093730460939604109275041092D1
:100AF000740408950C9470050F93062F21E0409123
:100B0000740466E774E0809196040E946006109277
:100B1000750410927404109273040F9108958F92CB
:100B20009F92AF92BF92CF92DF92EF92FF920F937C
:100B30001F93CF93DF93EC01F62ED42E4801590179
:100B4000EE2019F10E9470051E2D143008F013E0FC
:100B50001150B8F0E881F98128E0129FB00111240A
:100B6000A501940104C056954795379527956A9538
:100B7000D2F7CA01B9010190F081E02DCE0119959B
:100B8000E7CF60E0CE010E947C054D2D413208F098
:100B900040E22C2D69E974E08F2D0E941806109216
:100BA000980480939704DF91CF911F910F91FF904C
:100BB000EF90DF90CF90BF90AF909F908F9008956F
:100BC000CF92EF920F931F93C22EE12C00E010E022
:100BD00098010E948F051F910F91EF90CF9008957B
:100BE00021E00C94E00561E00C947C0587E694E03C
:100BF0000C9456051092260581E0809324051092EE
:100C0000230561E084E10E94462161E085E10E94C4
:100C10004621E9EBF0E080818E7F808380818D7FAB
:100C2000808388E48093B80085E48093BC000895B5
:100C3000413208F043C0909126059111FCCF91E01C
:100C400090932605209324052FEF2093B90410924A
:100C5000FE04240F2093FD04909325059091250513
:100C6000880F892B8093250580912305813061F4BD
:100C700010922305809125058093BB008091BC00D4
:100C800083FDF8CF85EC01C085EE8093BC00809198
:100C900026058130E1F38091FE04841710F4409121
:100CA000FE042FEF34E0FB01D9018A2F821B841749
:100CB00018F48D918193F9CF842F089580E00895E1
:100CC0000F93413208F04AC0909126059111FCCF54
:100CD00092E090932605009324059FEF9093B9042A
:100CE0001092FE044093FD04FB016FEF74E0DB0102
:100CF0009A2F961B941718F491919D93F9CF109207
:100D0000250590912505880F892B809325058091D5
:100D10002305813061F4109223058091250580938D
:100D2000BB008091BC0083FDF8CF85EC01C085EE4F
:100D30008093BC00222321F0809126058230E1F3CC
:100D40008091B9048F3F61F08091B904803251F0F5
:100D50008091B904803341F483E007C081E005C08D
:100D600080E003C082E001C084E00F910895613209
:100D700098F420912605243089F46093DB04FC016B
:100D80008DED94E0DC012A2F281B261718F4219101
:100D90002D93F9CF80E0089581E0089582E00895D1
:100DA00085ED8093BC008091BC0084FDFCCF109247
:100DB0002605089585EC8093BC00109226050895C1
:100DC0001F920F920FB60F9211240BB60F922F9312
:100DD0003F934F935F936F937F938F939F93AF93C3
:100DE000BF93EF93FF938091B900887F803609F419
:100DF0009EC078F5883209F45DC090F4803109F422
:100E000056C038F4882309F4F5C0883009F44FC07F
:100E1000F5C0883109F44EC0803209F45FC0EEC0DD
:100E2000803409F46AC058F4803309F457C0883319
:100E300009F0E4C08093B9040E94DA06DFC080356F
:100E400009F44FC0883509F45DC0883409F0D6C074
:100E5000D3C0883909F4C4C0A8F4883709F467C03E
:100E600038F4883609F463C0803709F460C0C6C01E
:100E7000883809F4B5C0803909F45FC0803809F0BA
:100E8000BDC05BC0803B09F483C038F4803A09F4EC
:100E900066C0883A09F47CC0B1C0803C09F4A4C0A3
:100EA000883C09F4A1C0883B09F487C0A7C08091A1
:100EB000250510C09091FE048091FD04981770F5EF
:100EC000E091FE0481E08E0F8093FE04F0E0E1509B
:100ED000FB4F80818093BB0085EC83C08093B90475
:100EE0008BC0E091FE0481E08E0F8093FE04809120
:100EF000BB00F0E0E150FB4F80839091FE048091B5
:100F0000FD046BC0E091FE0481E08E0F8093FE042F
:100F10008091BB00F0E0E150FB4F8083809124057D
:100F200081116AC081E08093230584EA5EC083E07A
:100F3000809326051092BA04CFCF8091BA048032F4
:100F400008F04EC0E091BA0481E08E0F8093BA049D
:100F50008091BB00F0E0E554FB4F8083BDCF0E9441
:100F6000DA068091BA04803230F4E091BA04F0E0FD
:100F7000E554FB4F10826091BA0470E0E0911F05C8
:100F8000F09120058BEB94E019951092BA0436C0CD
:100F900084E0809326051092DC041092DB04E0913B
:100FA0002105F091220519958091DB04811105C07E
:100FB00081E08093DB041092DD04E091DC0481E0A9
:100FC0008E0F8093DC04F0E0E352FB4F808180932E
:100FD000BB009091DC048091DB04981708F47CCF6F
:100FE00085E88093BC000AC085EC8093BC00109219
:100FF000260504C01092B9040E94D006FF91EF911B
:10100000BF91AF919F918F917F916F915F914F9120
:101010003F912F910F900BBE0F900FBE0F901F901E
:101020001895FC016187089525EA32E0FC013183BF
:101030002083089525EA32E0FC01318320830C945B
:10104000AF230F931F93CF93DF938C01EB0188E2C3
:10105000FB0111928A95E9F74BE050E06FEB72E0EB
:10106000CE010E94492A1B8681E090E0A0E0B0E01A
:101070008C879D87AE87BF87F80185819681A78180
:10108000B085888B998BAA8BBB8B44E050E060E0E5
:1010900070E04C8B5D8B6E8B7F8B1CA21DA21EA201
:1010A0001FA203811481B80180E090E00E942227F2
:1010B00025E33AEF4EE85CE30E943028688F798F91
:1010C0008A8F9B8FB801882777FD8095982F0E9483
:1010D0002427905825E33AEF4EE85CE30E9430283D
:1010E0006C8F7D8F8E8F9F8F18A219A21AA21BA2C0
:1010F000DF91CF911F910F910895FC018AEC92E04E
:101100009183808345835683678370871186089512
:101110001F93CF93DF931F92CDB7DEB7162F6BE6E9
:1011200070E087E694E049830E947A05612F87E6A4
:1011300094E00E9427054981642F87E694E00E948D
:10114000270587E694E00F90DF91CF911F910C94D3
:10115000F305CF93C62F6BE687E694E00E947005F7
:101160006C2F87E694E00E94270587E694E00E94B2
:10117000F30541E06BE687E694E00E94F00587E620
:1011800094E00E94CF04892BD1F387E694E00E947B
:10119000D704C82F87E694E00E94F3058C2FCF91E7
:1011A00008950F931F93CF93DF93EC018B0187E694
:1011B00094E00E9466051C830B836FE0CE010E94C1
:1011C000A908843D11F0873D09F540E060E2CE01B9
:1011D0000E9488084FE060E2CE010E9488088B815F
:1011E0009C81843F21E0920749F0803D27E09207EF
:1011F00039F08A3F910561F440E003C040E101C04D
:1012000040E263E2CE010E94880802C080E001C093
:1012100081E0DF91CF911F910F9108952F923F921E
:101220004F925F926F927F928F929F92AF92BF92F6
:10123000CF92DF92EF92FF920F931F93CF93DF93A2
:10124000CDB7DEB72A970FB6F894DEBF0FBECDBF7D
:101250008C017A87698784E2FB0111928A95E9F70C
:1012600084E290E0A0E0B0E0E985FA858083918394
:10127000A283B383F80185819681A781B085E98532
:10128000FA8584839583A683B78384E090E0A0E009
:10129000B0E080879187A287B3870E942720E985E5
:1012A000FA85608B718B828B938B6BE687E694E07B
:1012B0000E947005E0916704F09168040190F0814C
:1012C000E02D68EA87E694E0199587E694E00E94AD
:1012D000F3058111E2CF46E06BE687E694E00E94D9
:1012E000F00587E694E00E94D704B82E87E694E0E4
:1012F0000E94D704A82E87E694E00E94D704D82E37
:1013000087E694E00E94D704C82E87E694E00E9406
:10131000D704F82E87E694E00E94D704E82EAA822C
:10132000198229813A812B293A832983B901882797
:1013300077FD8095982F0E9424272B013C01E98599
:10134000FA85648B758B868B978BCC821B822B8165
:101350003C812D293C832B83B901882777FD80951B
:10136000982F0E9424274B015C01E985FA85608F44
:10137000718F828F938FEE821D822D813E812F2966
:101380003E832D83B901882777FD8095982F0E9491
:1013900024276B017C01E985FA85648F758F868F20
:1013A000978FF801818523803480882309F483C0D6
:1013B000F1E0FF8320E030EF4FEF56ECC301B201C4
:1013C0000E94852618160CF41F8221E0288720E051
:1013D00030EF4FEF56E4C301B2010E94252887FD8C
:1013E000188668843F81632A7724739420E030EF65
:1013F0004FEF56E4C501B4010E94252887FD712CEA
:1014000067287724739420E030EF4FEF56ECC50146
:10141000B4010E94852618160CF4712C7628BB2482
:10142000B39420E030EF4FEF56E4C701B6010E94BD
:10143000252887FDB12C7B2851F420E030EF4FEFB9
:1014400056ECC701B6010E9485261816A4F18AEF52
:1014500028163104B1F094EF291691E0390659F5B8
:1014600020ED37E0F8013483238340E060E2C801D7
:101470000E9488084FE060E2C8010E94880840E2AC
:1014800010C024EF31E0F8013483238340E060E2B0
:10149000C8010E9488084FE060E2C8010E948808E5
:1014A00040E163E2C8010E94880840E864E2C801A4
:1014B0000E948808F2CE34EF231631E0330691F112
:1014C00080ED281687E0380609F453C09AEF2916F4
:1014D000310409F080C029E23CE54FE05CE3E98596
:1014E000FA8564897589868997890E943028E985FB
:1014F000FA85648B758B868B978B29E23CE54FE0F0
:101500005CE3608D718D828D938D0E943028E9851A
:10151000FA85608F718F828F938F29E23CE54FE0CF
:101520005CE34DC029E23CE54FE85CE3E985FA85E0
:1015300064897589868997890E943028E985FA85AA
:10154000648B758B868B978B29E23CE54FE85CE3D7
:10155000608D718D828D938D0E943028E985FA858A
:10156000608F718F828F938F29E23CE54FE85CE3B7
:1015700026C029E23CE54FE85DE3E985FA85648908
:101580007589868997890E943028E985FA85648B58
:10159000758B868B978B29E23CE54FE85DE3608D88
:1015A000718D828D938D0E943028E985FA85608F38
:1015B000718F828F938F29E23CE54FE85DE3648D64
:1015C000758D868D978D0E943028E985FA85648F08
:1015D000758F868F978F25E33AEF4EE85CE3E985B8
:1015E000FA8564897589868997890E943028E985FA
:1015F000FA85648B758B868B978B25E33AEF4EE8E3
:101600005CE3608D718D828D938D0E943028E98519
:10161000FA85608F718F828F938F25E33AEF4EE8C2
:101620005CE3648D758D868D978D0E943028E985E9
:10163000FA85648F758F868F978F81E02A960FB613
:10164000F894DEBF0FBECDBFDF91CF911F910F91F8
:10165000FF90EF90DF90CF90BF90AF909F908F90D2
:101660007F906F905F904F903F902F900895FC0176
:10167000618B089525EA32E0FC01318320830895CF
:1016800025EA32E0FC0131832083089525EA32E027
:10169000FC01318320830C94AF2325EA32E0FC0166
:1016A000318320830C94AF230F931F93CF93DF9349
:1016B0008C01EB0188E2FB0111928A95E9F74BE07E
:1016C00050E064ED72E0CE010E94492A1B8641E0A1
:1016D00050E060E070E04C875D876E877F87F8019F
:1016E0000785108921893289088B198B2A8B3B8BBE
:1016F0004C8B5D8B6E8B7F8B1CA21DA21EA21FA22A
:10170000188E198E1A8E1B8E1C8E1D8E1E8E1F8E8D
:1017100018A219A21AA21BA2DF91CF911F910F91BB
:1017200008950F931F93CF93DF938C01EB0188E211
:10173000FB0111928A95E9F74BE050E064ED72E00D
:10174000CE010E94492A1B8641E050E060E070E033
:101750004C875D876E877F87F8014289538964894A
:101760007589488B598B6A8B7B8B42E050E060E037
:1017700070E04C8B5D8B6E8B7F8B1CA21DA21EA21A
:101780001FA2188E198E1A8E1B8E1C8E1D8E1E8EF9
:101790001F8E18A219A21AA21BA2DF91CF911F912E
:1017A0000F910895DC01ED91FC910190F081E02D05
:1017B0001994FC018FED92E0918380834787508BD1
:1017C000618B728B138214821582168217821086A7
:1017D0001186128613861486158616860895FC01D6
:1017E0008DEE92E091838083428B538B648B758B5B
:1017F000118A13821482158216821782108611862E
:10180000128613861486158616860895CF93DF9365
:101810001F921F92CDB7DEB787E694E02A834983F3
:101820000E9470054981642F87E694E00E94270595
:101830002A81622F87E694E00E94270587E694E0DC
:101840000F900F90DF91CF910C94F305CF93DF931E
:101850001F921F92CDB7DEB787E694E02A834983B3
:101860000E9470054981642F87E694E00E94270555
:101870002A81622F87E694E00E94270587E694E09C
:101880000F900F90DF91CF910C94F3050F931F935E
:10189000CF93DF938C01EB01262F41E06EE10E9494
:1018A000260CF801D08BC787C038D10509F45BC07E
:1018B000DCF4C034D105A9F1C036D10509F442C029
:1018C000A09709F08AC080E090E8A9E8B4E480938A
:1018D0000E0290930F02A0931002B093110280E0C9
:1018E00090E0A5E7B4E471C0C03CD10509F44CC058
:1018F000C03ED10509F459C0C03AD10509F06DC008
:1019000080E090E0A8ECB3E480930E0290930F0285
:10191000A0931002B093110280E090E8A1EBB3E431
:1019200054C080E090ECA5E5B4E480930E0290935F
:101930000F02A0931002B093110280E090E0AEE39A
:10194000B4E443C080E090E8A7E2B4E480930E02E0
:1019500090930F02A0931002B093110280E090E0E8
:10196000A6E1B4E432C080E090E0A1EEB3E480935D
:101970000E0290930F02A0931002B093110280E028
:1019800090E0A8ECB3E421C080E090E0A5EAB3E4E5
:1019900080930E0290930F02A0931002B093110255
:1019A00080E090E8A3E9B3E410C080E090E0A6E610
:1019B000B3E480930E0290930F02A0931002B093B1
:1019C000110280E090E0ADE4B3E480930A029093CA
:1019D0000B02A0930C02B0930D02DF91CF911F91E7
:1019E0000F9108951F93CF93DF931F92CDB7DEB76A
:1019F000162F87E694E049830E9470054981642F81
:101A000087E694E00E94270587E694E00E94F305AC
:101A100041E0612F87E694E00E94F00587E694E0BC
:101A20000E94D704182F87E694E00E94F305812FC7
:101A30000F90DF91CF911F910895CF93DF93EC0129
:101A400087E694E00E94660527E540E269E1CE0161
:101A50000E94060C40E269E1CE010E94F20C91E086
:101A6000873509F090E0892FDF91CF9108951F937A
:101A7000CF93DF931F92CDB7DEB7162F87E694E0A2
:101A800049830E9470054981642F87E694E00E9493
:101A9000270587E694E00E94F30541E0612F87E681
:101AA00094E00E94F00587E694E00E94D704182F86
:101AB00087E694E00E94F305812F0F90DF91CF918C
:101AC0001F910895CF93DF93EC0187E694E00E9485
:101AD000660520E042E06EE1CE010E94260C40E067
:101AE0006EE1CE010E94370D803139F460E270E082
:101AF000CE010E94460C81E001C080E0DF91CF91D1
:101B000008956F927F928F929F92AF92BF92CF92E1
:101B1000DF92EF92FF920F931F93CF93DF93EC012D
:101B200069E187E694E00E94700568EA70E087E664
:101B300094E00E94D20B87E694E00E94F30546E011
:101B400069E187E694E00E94F00587E694E00E9450
:101B5000CF040697D4F387E694E00E94D704782E4A
:101B600087E694E00E94D704682E87E694E00E94FE
:101B7000D704982E87E694E00E94D704882E87E643
:101B800094E00E94D704D82E87E694E00E94D70400
:101B9000C82EB62CA12CA72884E0B594A7948A95CA
:101BA000E1F7B501882777FD8095982F0E942427BB
:101BB0006B837C838D839E83F82CE12CE92894E051
:101BC000F594E7949A95E1F7B701882777FD80951A
:101BD000982F0E9424276F83788789879A871C2DE6
:101BE00000E00D2924E0159507952A95E1F7B80145
:101BF000882777FD8095982F0E9424276B877C8704
:101C00008D879E87DF91CF911F910F91FF90EF906D
:101C1000DF90CF90BF90AF909F908F907F906F900C
:101C200008950F931F93CF93DF938C01EB0184E210
:101C3000FB0111928A95E9F7C8010E94810D84E2A7
:101C400090E0A0E0B0E088839983AA83BB83F80189
:101C500087859089A189B2898C839D83AE83BF8358
:101C600081E090E0A0E0B0E088879987AA87BB87F1
:101C70000E942720688B798B8A8B9B8B2FE632E121
:101C800043E85AE3F80163817481858196810E945B
:101C900030282AE038EE4CE151E40E9430286C8B69
:101CA0007D8B8E8B9F8B2FE632E143E85AE3F80160
:101CB00067817085818592850E9430282AE038EE00
:101CC0004CE151E40E943028688F798F8A8F9B8F76
:101CD0002FE632E143E85AE3F80163857485858590
:101CE00096850E9430282AE038EE4CE151E40E94AB
:101CF00030286C8F7D8F8E8F9F8F81E0DF91CF9109
:101D00001F910F9108956F927F928F929F92AF9241
:101D1000BF92CF92DF92EF92FF920F931F93CF93D8
:101D2000DF93EC016EE187E694E00E94700563E0CA
:101D300070E087E694E00E94D20B87E694E00E9470
:101D4000F30546E06EE187E694E00E94F00587E641
:101D500094E00E94CF040697D4F387E694E00E94B3
:101D6000D704682E87E694E00E94D704782E87E691
:101D700094E00E94D704C82E87E694E00E94D7041E
:101D8000D82E87E694E00E94D704882E87E694E058
:101D90000E94D704982EB62CA12CA728B50188271D
:101DA00077FD8095982F0E9424276B837C838D83F9
:101DB0009E83F82CE12CE928B701882777FD8095D0
:101DC000982F0E9424276F83788789879A871C2DF4
:101DD00000E00D29B801882777FD8095982F0E9493
:101DE00024276B877C878D879E87DF91CF911F91FA
:101DF0000F91FF90EF90DF90CF90BF90AF909F90AA
:101E00008F907F906F9008952F923F924F925F92A4
:101E10006F927F928F929F92AF92BF92CF92DF92FA
:101E2000EF92FF920F931F93CF93DF93EC018B01FF
:101E300084E2FB0111928A95E9F749E06EE1CE0157
:101E40000E94370D80FFF3C0CE010E94830E898966
:101E5000882309F483C04B805C806D807E808F80F6
:101E60009884A984BA84CB84DC84ED84FE84222403
:101E7000239420E030E04FEF54ECC301B2010E9404
:101E8000852618160CF4212C3324339420E030E0FE
:101E90004FEF54E4C301B2010E94252887FD312C85
:101EA00032286624639420E030E04FEF54E4C5010B
:101EB000B4010E94252887FD612C63287724739440
:101EC00020E030E04FEF54ECC501B4010E948526BC
:101ED00018160CF4712C7628BB24B39420E030E063
:101EE0004FEF54E4C701B6010E94252887FDB12CAD
:101EF0007B2851F420E030E04FEF54ECC701B601ED
:101F00000E948526181654F18F8598898036910590
:101F1000E1F04CF480329105D9F080349105F1F470
:101F200060E670E017C0803A910561F0803C910551
:101F300031F08038910591F460EA70E00BC060EEFA
:101F400070E008C060EC70E005C060E870E002C0BE
:101F500060E470E0CE010E94460C6FCF84E290E016
:101F6000A0E0B0E0F80180839183A283B3838A89E3
:101F70009B89AC89BD8984839583A683B78382E0DE
:101F800090E0A0E0B0E080879187A287B3870E94AD
:101F90002720F801608B718B828B938BC0900E028F
:101FA000D0900F02E0901002F0901102A70196016C
:101FB0006B817C818D819E810E94892620E030E0AA
:101FC00048EC52E40E943028F801648B758B868BB4
:101FD000978BA70196016F81788589859A850E94E4
:101FE000892620E030E048EC52E40E943028F801D5
:101FF000608F718F828F938F20910A0230910B0234
:1020000040910C0250910D026B857C858D859E85DB
:102010000E94892620E030E048EC52E40E943028FB
:10202000F801648F758F868F978F81E001C080E003
:10203000DF91CF911F910F91FF90EF90DF90CF90A4
:10204000BF90AF909F908F907F906F905F904F90D8
:102050003F902F9008952F923F924F925F926F92F0
:102060007F928F929F92AF92BF92CF92DF92EF9228
:10207000FF920F931F93CF93DF93CDB7DEB7A8974F
:102080000FB6F894DEBF0FBECDBF1C0189829A82C5
:10209000AB82BC82CD82DE82EF82F88609871A8706
:1020A0002B873C874D875E876F87788BC980DA8066
:1020B000EB80FC808D819E81AF81B885898B9A8B66
:1020C000AB8BBC8B89859A85AB85BC858D8B9E8BB4
:1020D000AF8BB88F8D859E85AF85B889898F9A8F94
:1020E000AB8FBC8F22968CAD9DADAEADBFAD2297B0
:1020F0008D8F9E8FAF8FB8A326968CAD9DADAEAD64
:10210000BFAD269789A39AA3ABA3BCA32A968CAD97
:102110009DADAEADBFAD2A978DA39EA3AFA3B8A7CB
:102120002E968CAC9DACAEACBFAC2E97C1010E947C
:10213000F31E2D8D3E8D4F8D58A1C701B6010E9413
:1021400030282B013C0129A13AA14BA15CA169894E
:102150007A898B899C890E9430289B01AC01C3013C
:10216000B2010E94A7252B013C012DA13EA14FA148
:1021700058A56D897E898F89988D0E9430289B0192
:10218000AC01C301B2010E94A7252B013C01A501AE
:102190009401698D7A8D8B8D9C8D0E9430289B01D6
:1021A000AC01C301B2010E94A725D1016D937D93BB
:1021B0008D939C93139729A13AA14BA15CA1C701D0
:1021C000B6010E9430282B013C012D8D3E8D4F8D94
:1021D00058A169897A898B899C890E9430289B0142
:1021E000AC01C301B2010E94A8252B013C01A5014D
:1021F00094016D897E898F89988D0E9430289B017A
:10220000AC01C301B2010E94A8252B013C012DA104
:102210003EA14FA158A5698D7A8D8B8D9C8D0E9412
:1022200030289B01AC01C301B2010E94A725F10136
:1022300064837583868397832DA13EA14FA158A502
:10224000C701B6010E9430282B013C01A501940171
:1022500069897A898B899C890E9430289B01AC010D
:10226000C301B2010E94A7252B013C012D8D3E8D9B
:102270004F8D58A16D897E898F89988D0E94302855
:102280009B01AC01C301B2010E94A8252B013C01B6
:1022900029A13AA14BA15CA1698D7A8D8B8D9C8D72
:1022A0000E9430289B01AC01C301B2010E94A82505
:1022B000D10118966D937D938D939C931B97A501E7
:1022C0009401C701B6010E9430286B017C012DA149
:1022D0003EA14FA158A569897A898B899C890E9462
:1022E00030289B01AC01C701B6010E94A8256B01F3
:1022F0007C0129A13AA14BA15CA16D897E898F89BE
:10230000988D0E9430289B01AC01C701B6010E9444
:10231000A7256B017C012D8D3E8D4F8D58A1698DB8
:102320007A8D8B8D9C8D0E9430289B01AC01C7015A
:10233000B6010E94A825F101648775878687978773
:10234000C101A8960FB6F894DEBF0FBECDBFDF91D6
:10235000CF911F910F91FF90EF90DF90CF90BF90A2
:10236000AF909F908F907F906F905F904F903F9035
:102370002F9008952F923F924F925F926F927F928B
:102380008F929F92AF92BF92CF92DF92EF92FF9285
:102390000F931F93CF93DF93CDB7DEB766970FB63A
:1023A000F894DEBF0FBECDBF3C011A012B0104968D
:1023B0009A8B898B0E94F31EC30180579F4F0E9406
:1023C000F31EF301E056FF4FFC8BEB8BCF010E9415
:1023D000F31EC30180559F4F9E8B8D8B0E94F31E71
:1023E000C30180549F4F0E94F31E812C912C5401F5
:1023F000750164019501840140E050E060E87FE3ED
:10240000CE0101960E94771E80E1FE013196A989D6
:10241000BA8901900D928A95E1F79501840140E017
:1024200050E060E87FE3CE0101960E94771E80E1D4
:10243000FE013196AD89BE8901900D928A95E1F732
:102440009501840140E050E060E87FE3CE01019611
:102450000E94771E80E1FE013196AB89BC89019014
:102460000D928A95E1F7F3012082318242825382F4
:1024700080E090E0A0E8BFE3848B958BA68BB78BC0
:1024800066960FB6F894DEBF0FBECDBFDF91CF9139
:102490001F910F91FF90EF90DF90CF90BF90AF9082
:1024A0009F908F907F906F905F904F903F902F9074
:1024B00008952F923F924F925F926F927F928F92E8
:1024C0009F92AF92BF92CF92DF92EF92FF920F93C3
:1024D0001F93CF93DF93CDB7DEB7C454D1400FB66F
:1024E000F894DEBF0FBECDBF1C01C754DF4FC882BA
:1024F000C95BD040C654DF4FD882CA5BD040C554B8
:10250000DF4FE882CB5BD040C454DF4FF882CC5B16
:10251000D040C354DF4F0883CD5BD040C254DF4F5F
:102520001883CE5BD040C154DF4F2883CF5BD040AF
:10253000C054DF4F3883C05CD040CF53DF4F488357
:10254000C15CD040CE53DF4F5883C25CD040CD53E6
:10255000DF4F6883C35CD040CC53DF4F7883C45CCB
:10256000D040CE01865A9E4F0E94961F20E030E058
:10257000A9010E948526882311F40C945D1ECE01CA
:10258000865A9E4F0E94961F6B017C01CE01835597
:102590009F4F0E946E1FA7019601C65ADE4F6881A9
:1025A00079818A819B81CA55D1400E948926C35571
:1025B000DF4F688379838A839B83CD5AD040A701FC
:1025C0009601C25ADE4F688179818A819B81CE55FE
:1025D000D1400E948926CF54DF4F688379838A8354
:1025E0009B83C15BD040A7019601CE59DE4F688125
:1025F00079818A819B81C256D1400E948926CB5421
:10260000DF4F688379838A839B83C55BD0408CE0EE
:10261000FE01E355FF4FDE01A65ABE4F01900D9219
:102620008A95E1F7CE018A599E4F0E94961F20E0BD
:1026300030E0A9010E948526882311F40C945D1EC8
:10264000CE018A599E4F0E94961F6B017C01CE01DC
:102650008F559F4F0E946E1FA7019601CA59DE4FEA
:10266000688179818A819B81C656D1400E948926E2
:10267000CF55DF4F688379838A839B83C15AD040CB
:10268000A7019601C659DE4F688179818A819B81B5
:10269000CA56D1400E948926CB55DF4F6883798383
:1026A0008A839B83C55AD040A7019601C259DE4F49
:1026B000688179818A819B81CE56D1400E9489268A
:1026C000C755DF4F688379838A839B83C95AD0407B
:1026D0008CE0FE01EF55FF4FDE01AA59BE4F01907D
:1026E0000D928A95E1F7D10150968D909D90AD9015
:1026F000BC905397B7FAB094B7F8B0941C96CD90AD
:10270000DD90ED90FC901F97F7FAF094F7F8F094B5
:1027100018960D911D912D913C911B973058149650
:102720004D915D916D917C911797CE018F569F4F82
:102730000E94771ECA59DE4F8880C656D140C959BB
:10274000DE4F9880C756D140C859DE4FA880C85682
:10275000D140C759DE4FB880C956D140C659DE4F67
:10276000C880CA56D140C559DE4FD880CB56D1401B
:10277000C459DE4FE880CC56D140C359DE4FF880B3
:10278000CD56D140C259DE4F0881CE56D140C159F5
:10279000DE4F1881CF56D140C059DE4F2881C05737
:1027A000D140CF58DE4F3881C157D14040E050E092
:1027B000BA01CE0101960E94A31EEDB7FEB7709735
:1027C0000FB6F894FEBF0FBEEDBFADB7BEB7119602
:1027D00080E1FE01EF56FF4F01900D928A95E1F7DF
:1027E00089809A80AB80BC80CD80DE80EF80F884C9
:1027F00009851A852B853C854D855E856F85788991
:10280000CE018F579F4F0E942B102DB73EB72051FE
:1028100031090FB6F8943EBF0FBE2DBFADB7BEB79E
:10282000119680E1FE01EF57FF4F01900D928A95BE
:10283000E1F7D10114968C90149715969C901597FA
:102840001696AC9016971796BC9017971896CC9042
:1028500018971996DC9019971A96EC901A971B9670
:10286000FC901B971C960C911C971D961C911D9714
:102870001E962C911E971F963C911F9750964C9137
:10288000509751965C91519752966C9152975396EE
:102890007C91CE018B539F4F0E942B1080E1FE0153
:1028A000EB53FF4FD101A055BF4F01900D928A9578
:1028B000E1F7F101EC54FF4F6081718182819381D6
:1028C0003496C080D180E280F3800FB6F894DEBFEA
:1028D0000FBECDBF9B01AC010E9430284B015C01B3
:1028E000A7019601C701B6010E9430289B01AC01E7
:1028F000C501B4010E94A8250E9497288B019C0164
:10290000F101E454FF4F80809180A280B380C12CFC
:10291000D12C7601B701A601CE0101960E94771E47
:1029200080E1FE013196D101A056BF4F01900D927A
:102930008A95E1F7D10118968D919D910D90BC91EA
:10294000A02DCB52DF4F88839983AA83BB83C55DBB
:10295000D040D10150968D919D910D90BC91A02DAC
:10296000C752DF4F88839983AA83BB83C95DD04058
:102970009C01AD01CB52DF4F688179818A819B81B7
:10298000C55DD0400E943028CB50DF4F68837983EB
:102990008A839B83C55FD040D10114968D919D9110
:1029A0000D90BC91A02DC352DF4F88839983AA83D9
:1029B000BB83CD5DD040F101448455846684778427
:1029C000A3019201BC01CD010E943028C750DF4F06
:1029D000688379838A839B83C95FD0409B01AC0164
:1029E000CB50DF4F688179818A819B81C55FD04060
:1029F0000E94A7254B015C019B01AC010E94A82508
:102A0000C65ADE4F288139814A815B81CA55D1403F
:102A10000E94A725C350DF4F688379838A839B83F5
:102A2000CD5FD040D10158966D937D938D939C934B
:102A30005B97CB52DF4F288139814A815B81C55D2D
:102A4000D040C352DF4F688179818A819B81CD5DFF
:102A5000D0400E9430286B017C01C752DF4F288193
:102A600039814A815B81C95DD040C301B2010E94B6
:102A700030289B01AC01C701B6010E94A825CB51AB
:102A8000DF4F688379838A839B83C55ED0409B0137
:102A9000AC010E94A825C25ADE4F288139814A81A3
:102AA0005B81CE55D1400E94A725CF5FDE4F688362
:102AB00079838A839B83C150D140F101648F758FE4
:102AC000868F978FA3019201C301B2010E94302823
:102AD0006B017C01CB52DF4F288139814A815B81B8
:102AE000C55DD040CA01B9010E9430289B01AC01EC
:102AF00060E070E080E09FE30E94A725A7019601B7
:102B00000E94A725C751DF4F688379838A839B83FF
:102B1000C95ED0409B01AC010E94A825CE59DE4F72
:102B2000288139814A815B81C256D1400E94A72504
:102B3000CF5EDE4F688379838A839B83C151D14006
:102B4000D10190966D937D938D939C939397F10112
:102B5000EC55FF4F80819181A281B381C351DF4F3A
:102B600088839983AA83BB83CD5ED0409C01AD014D
:102B7000BC01CD010E94A825CF50DF4F6883798327
:102B80008A839B83C15FD040F101E455FF4F808170
:102B90009181A281B381C35FDE4F88839983AA8329
:102BA000BB83CD50D1409C01AD01BC01CD010E9441
:102BB000A825CF51DF4F688379838A839B83C15EC9
:102BC000D040A701960160E070E080E09FE30E94A2
:102BD000A7256B017C01C752DF4F288139814A81CB
:102BE0005B81C95DD040CA01B9010E9430289B01B8
:102BF000AC01C701B6010E94A7259B01AC01CF50D3
:102C0000DF4F688179818A819B81C15FD0400E94BA
:102C100030286B017C01A5019401CF51DF4F688101
:102C200079818A819B81C15ED0400E9430289B01BE
:102C3000AC01C701B6010E94A825CA59DE4F288100
:102C400039814A815B81C656D1400E94A725CB5F5E
:102C5000DE4F688379838A839B83C550D140D1013D
:102C600094966D937D938D939C939797A301920176
:102C7000CB52DF4F688179818A819B81C55DD040CD
:102C80000E9430286B017C01C752DF4F28813981B7
:102C90004A815B81C95DD040C352DF4F6881798131
:102CA0008A819B81CD5DD0400E9430289B01AC0180
:102CB000C701B6010E94A7259B01AC01CF50DF4F91
:102CC000688179818A819B81C15FD0400E943028D0
:102CD0006B017C01CB51DF4F288139814A815B81B7
:102CE000C55ED040CF51DF4F688179818A819B8159
:102CF000C15ED0400E9430289B01AC01C701B601E3
:102D00000E94A825C659DE4F288139814A815B81FE
:102D1000CA56D1400E94A725CB51DF4F68837983E3
:102D20008A839B83C55ED040F10160A771A782A70B
:102D300093A7CB50DF4F288139814A815B81C55FE2
:102D4000D040C750DF4F688179818A819B81C95FFC
:102D5000D0400E94A8259B01AC01CF50DF4F688175
:102D600079818A819B81C15FD0400E9430286B01AC
:102D70007C01C751DF4F288139814A815B81C95E5F
:102D8000D040CF51DF4F688179818A819B81C15EBC
:102D9000D0400E9430289B01AC01C701B6010E94BF
:102DA000A825C259DE4F288139814A815B81CE56E0
:102DB000D1400E94A725C751DF4F688379838A835A
:102DC0009B83C95ED040D1019C966D937D938D937A
:102DD0009C939F9720E030E040E050ECC301B201AB
:102DE0000E943028C75EDE4F688379838A839B8385
:102DF000C951D140F10160AB71AB82AB93ABC7520B
:102E0000DF4F288139814A815B81C95DD040CA0189
:102E1000B9010E94A825CB50DF4F688379838A834C
:102E20009B83C55FD040D101D4966D937D938D93E4
:102E30009C93D79720E030E040E050ECC352DF4F46
:102E4000688179818A819B81CD5DD0400E94302844
:102E5000C35EDE4F688379838A839B83CD51D140E3
:102E6000F10160AF71AF82AF93AFCB52DF4F2881DA
:102E700039814A815B81C55DD040CA01B9010E9498
:102E8000A825C750DF4F688379838A839B83C95FF6
:102E9000D040D101DC966D937D938D939C93DF9709
:102EA000F101E05CFF4FDC01CB0180839183A283C1
:102EB000B383C352DF4F288139814A815B81CD5D65
:102EC000D040CA01B9010E94A825CF5DDE4F6883BA
:102ED00079838A839B83C152D140F101EC5BFF4F20
:102EE00060837183828393833496CB50DF4F8881D4
:102EF0009981AA81BB81C55FD04080839183A283E1
:102F0000B383A3019201C301B2010E94A825CB5D46
:102F1000DE4F688379838A839B83C552D140F10158
:102F2000E45BFF4F608371838283938334961082C6
:102F300011821282138220E030E040E850ECCB5244
:102F4000DF4F688179818A819B81C55DD0400E9475
:102F50003028C75DDE4F688379838A839B83C9529B
:102F6000D140F101EC5AFF4F6083718382839383D8
:102F700020E030E040E850ECC301B2010E9430286C
:102F8000C35DDE4F688379838A839B83CD52D140B2
:102F9000F101E85AFF4F60837183828393833496F3
:102FA000108211821282138220E030E040E050EC67
:102FB000C35FDE4F688179818A819B81CD50D1408A
:102FC0000E943028A30192010E943028CF5CDE4F7E
:102FD000688379838A839B83C153D140F101E05A8E
:102FE000FF4F6083718382839383C752DF4F2881B1
:102FF00039814A815B81C95DD040CF51DF4F688103
:1030000079818A819B81C15ED0400E943028CB5E4D
:10301000DE4F688379838A839B83C551D140F10158
:10302000EC59FF4F608371838283938320E030E00B
:1030300040E850ECC351DF4F688179818A819B81E0
:10304000CD5ED0400E9430284B015C01C352DF4F5F
:10305000288139814A815B81CD5DD040CF51DF4FDE
:10306000688179818A819B81C15ED0400E9430282D
:10307000C75FDE4F688379838A839B83C950D140C1
:10308000A3019201C501B4010E943028C75FDE4F41
:10309000288139814A815B81C950D1400E94A7258E
:1030A000CB5CDE4F688379838A839B83C553D14091
:1030B000F101E859FF4F6083718382839383CB5280
:1030C000DF4F288139814A815B81C55DD040CF5176
:1030D000DF4F688179818A819B81C15ED0400E94E7
:1030E00030286B017C01C752DF4F288139814A812A
:1030F0005B81C95DD040C501B4010E943028A701A1
:1031000096010E94A825C75CDE4F688379838A8375
:103110009B83C953D140F101E459FF4F6083718310
:103120008283938320E030E040E050ECC351DF4FD6
:10313000688179818A819B81CD5ED0400E94302850
:103140004B015C01C752DF4F288139814A815B8185
:10315000C95DD0400E943028A70196010E94A82591
:10316000C35CDE4F688379838A839B83CD53D140D0
:10317000F101E059FF4F6083718382839383A30140
:103180009201CF50DF4F688179818A819B81C15F35
:10319000D0400E9430286B017C01C75FDE4F288140
:1031A00039814A815B81C950D1400E94A825C75FFF
:1031B000DE4F688379838A839B83C950D140F101B4
:1031C000EC58FF4F6083718382839383CB52DF4F30
:1031D000288139814A815B81C55DD040CF50DF4F66
:1031E000688179818A819B81C15FD0400E943028AB
:1031F000C351DF4F688379838A839B83CD5ED04040
:10320000CB5EDE4F288139814A815B81C551D14037
:103210000E94A825CF5BDE4F688379838A839B83D6
:10322000C154D140F101E858FF4F6083718382831C
:103230009383C352DF4F288139814A815B81CD5D01
:10324000D040C501B4010E9430284B015C01A301AC
:103250009201CF51DF4F688179818A819B81C15E64
:10326000D0400E9430289B01AC01C501B4010E94EE
:10327000A825CF51DF4F688379838A839B83C15E02
:10328000D040F101E458FF4F6083718382839383C0
:103290003496C082D182E282F38220E030E040E8BE
:1032A00050E4C35FDE4F688179818A819B81CD5074
:1032B000D1400E9430284B015C01C752DF4F28816A
:1032C00039814A815B81C95DD040CF50DF4F688131
:1032D00079818A819B81C15FD0400E943028C7528A
:1032E000DF4F688379838A839B83C95DD040CB524B
:1032F000DF4F288139814A815B81C55DD040C5019E
:10330000B4010E9430289B01AC01C752DF4F688195
:1033100079818A819B81C95DD0400E94A725C752CF
:10332000DF4F688379838A839B83C95DD040F10135
:10333000EC57FF4F6083718382839383C352DF4FC7
:10334000288139814A815B81CD5DD040CF50DF4FEC
:10335000688179818A819B81C15FD0400E94302839
:10336000CB52DF4F688379838A839B83C55DD040CE
:10337000A3019201C501B4010E9430289B01AC0158
:10338000CB52DF4F688179818A819B81C55DD040B6
:103390000E94A7252B013C01F101E857FF4F6083F4
:1033A0007183828393833496C351DF4F88819981DF
:1033B000AA81BB81CD5ED04080839183A283B383F9
:1033C00020E030E0A901CF5EDE4F688179818A81FB
:1033D0009B81C151D1400E943028C352DF4F688386
:1033E00079838A839B83CD5DD040D101A057BF4FA5
:1033F000CB52DF4FB983A883C55DD040C350DF4FA8
:10340000288139814A815B81CD5FD040C75EDE4F24
:10341000688179818A819B81C951D1400E9430287D
:103420004B015C01CF5FDE4F288139814A815B818E
:10343000C150D140C750DF4F688179818A819B811B
:10344000C95FD0400E9430289B01AC01C501B40186
:103450000E94A825C352DF4F288139814A815B81B0
:10346000CD5DD0400E94A8254B015C01CB5FDE4FB3
:10347000288139814A815B81C550D140CF5CDE4FC4
:10348000688179818A819B81C153D1400E94302813
:103490009B01AC01C501B4010E94A8254B015C0150
:1034A000CB51DF4F288139814A815B81C55ED04095
:1034B000C35CDE4F688179818A819B81CD53D14085
:1034C0000E9430289B01AC01C501B4010E94A825CF
:1034D0004B015C01C751DF4F288139814A815B81F3
:1034E000C95ED040C701B6010E9430289B01AC01E3
:1034F000C501B4010E94A825CB52DF4FE881F981B4
:10350000C55DD04060837183828393835101F4E968
:10351000AF0EB11CC350DF4F288139814A815B81D6
:10352000CD5FD040CB50DF4F688179818A819B810C
:10353000C55FD0400E9430286B017C01CF5FDE4F19
:10354000288139814A815B81C150D140CF5DDE4FF6
:10355000688179818A819B81C152D1400E94302843
:103560009B01AC01C701B6010E94A8256B017C013B
:10357000CF5EDE4F288139814A815B81C151D140C4
:10358000C75DDE4F688179818A819B81C952D140B4
:103590000E9430289B01AC01C701B6010E94A825FA
:1035A0006B017C01CB5FDE4F288139814A815B81D1
:1035B000C550D140CB5EDE4F688179818A819B8185
:1035C000C551D1400E9430289B01AC01C701B60112
:1035D0000E94A8256B017C01CB51DF4F28813981E6
:1035E0004A815B81C55ED040C75FDE4F68817981CB
:1035F0008A819B81C950D1400E9430289B01AC0137
:10360000C701B6010E94A8256B017C01C751DF4F9D
:10361000288139814A815B81C95ED040C752DF4F22
:10362000688179818A819B81C95DD0400E94302860
:103630009B01AC01C701B6010E94A825D5016D937D
:103640007D938D939C9313975101B8E9AB0EB11CF8
:10365000C350DF4F288139814A815B81CD5FD040E3
:10366000C35EDE4F688179818A819B81CD51D140D3
:103670000E9430286B017C01CF5FDE4F28813981A9
:103680004A815B81C150D140CB50DF4F6881798145
:103690008A819B81C55FD0400E9430289B01AC018C
:1036A000C701B6010E94A8256B017C01CF5EDE4FE9
:1036B000288139814A815B81C151D140C35DDE4F90
:1036C000688179818A819B81CD52D1400E943028C6
:1036D0009B01AC01C701B6010E94A8256B017C01CA
:1036E000CB5FDE4F288139814A815B81C550D14053
:1036F000CB5CDE4F688179818A819B81C553D14043
:103700000E9430289B01AC01C701B6010E94A82588
:103710006B017C01CB51DF4F288139814A815B816C
:10372000C55ED040CF5BDE4F688179818A819B8105
:10373000C154D1400E9430289B01AC01C701B601A1
:103740000E94A8256B017C01C751DF4F2881398178
:103750004A815B81C95ED040C301B2010E9430281A
:103760009B01AC01C701B6010E94A825F501608349
:103770007183828393835101FCE9AF0EB11CC35066
:10378000DF4F288139814A815B81CD5FD040C750AE
:10379000DF4F688179818A819B81C95FD0400E9417
:1037A00030286B017C01CF5FDE4F288139814A814F
:1037B0005B81C150D140CB5DDE4F688179818A81C8
:1037C0009B81C552D1400E9430289B01AC01C701AA
:1037D000B6010E94A825C352DF4F288139814A8152
:1037E0005B81CD5DD0400E94A8256B017C01CB5F41
:1037F000DE4F288139814A815B81C550D140C75C49
:10380000DE4F688179818A819B81C953D1400E94B2
:1038100030289B01AC01C701B6010E94A8256B01AD
:103820007C01CB51DF4F288139814A815B81C55EA4
:10383000D040CF51DF4F688179818A819B81C15E01
:10384000D0400E9430289B01AC01C701B6010E9404
:10385000A8256B017C01C751DF4F288139814A813E
:103860005B81C95ED040C351DF4F688179818A8115
:103870009B81CD5ED0400E9430289B01AC01C701E6
:10388000B6010E94A825D5016D937D938D939C93DD
:103890001397CB52DF4F88819981C55DD0400E943C
:1038A000051F2B013C01812C912C540175016401F1
:1038B00095018401B501A401CE0141960E94771EB5
:1038C000FE0171967F0100E010E0CB52DF4FE881EE
:1038D000F981C55DD040E00FF11FA3019201608125
:1038E0007181828193810E948926D7016D937D9396
:1038F0008D939D937D010C5F1F4F0031110529F7BA
:1039000080E1FE017196CB52DF4FA881B981C55D80
:10391000D04001900D928A95E1F7F10144885588D5
:103920006688778877FA709477F87094812C912C58
:1039300054017501640195018401B501A401CE0112
:103940008F589F4F0E94771E9E012F583F4F79013D
:1039500000E010E0CB52DF4FE881F981C55DD04037
:10396000E00FF11FA3019201608171818281938137
:103970000E943028D7016D937D938D939D937D0197
:103980000C5F1F4F0031110529F73E01B1E36B0EAB
:10399000711CC754DF4F8880C95BD040C654DF4FCD
:1039A0009880CA5BD040C554DF4FA880CB5BD04025
:1039B000C454DF4FB880CC5BD040C354DF4FC880C5
:1039C000CD5BD040C254DF4FD880CE5BD040C154D5
:1039D000DF4FE880CF5BD040C054DF4FF880C05C41
:1039E000D040CF53DF4F0881C15CD040CE53DF4F72
:1039F0001881C25CD040CD53DF4F2881C35CD040DA
:103A0000CC53DF4F3881C45CD04040E050E0BA0175
:103A1000C3010E94A31EEDB7FEB770970FB6F894CE
:103A2000FEBF0FBEEDBFADB7BEB7119680E1F1018D
:103A3000349601900D928A95E1F789A89AA8ABA8CF
:103A4000BCA8CDA8DEA8EFA8F8AC09AD1AAD2BAD87
:103A50003CAD4DAD5EAD6FAD21967FAD2197CE01F2
:103A600081960E942B10812C912C540175016401C8
:103A700095018401B501A401CE0101960E94771E33
:103A80008E010F5D1F4F0FB6F894DEBF0FBECDBF86
:103A9000CE0101967C01D8016D917D918D919D9112
:103AA0008D0120E030E040E05FE30E943028F70124
:103AB00061937193819391937F010615170559F7CF
:103AC00080E1FE01EF58FF4FDE01AF5ABF4F01907A
:103AD0000D928A95E1F7CE018F5B9F4F0E94F31EF6
:103AE0009E012F5A3F4F7901CE018F5B9F4F6C0192
:103AF000490190E1890E911CDE0111965D01F701EB
:103B000061917191819191917F01D5012D913D91AB
:103B10004D915D915D010E94A825F601619371931D
:103B2000819391936F01E814F90449F72101F0ECB6
:103B30004F0E511C80E1FE01EF5BFF4FD20101905F
:103B40000D928A95E1F7D1018D919D910D90BC91D7
:103B5000A02DCB52DF4F88839983AA83BB83C55D99
:103B6000D040812C912C5401750164019501840190
:103B7000B501A401CE018F599F4F0E94771EFE010F
:103B8000EF59FF4F7F0100E010E0F201E00FF11F5D
:103B9000CB52DF4F288139814A815B81C55DD0409E
:103BA00060817181828193810E943028D7016D9359
:103BB0007D938D939D937D010C5F1F4F0031110507
:103BC00021F780E1FE01EF59FF4FDE01D196019010
:103BD0000D928A95E1F7CE0181960E94F31EFE01B7
:103BE000B1967F0100E010E02101F4E04F0E511C7E
:103BF000D3016D917D918D919D913D01F201E00F79
:103C0000F11F20813181428153810E94A825F70153
:103C100061937193819391937F010C5F1F4F0031EA
:103C2000110531F780E1FE01B196D20101900D92AC
:103C30008A95E1F7C2010E94051FCB52DF4F6883CE
:103C400079838A839B83C55DD040812C912C54015C
:103C50007501640195018401B501A401CE010196AD
:103C60000E94771E9E012F5F3F4F790100E010E018
:103C7000F201E00FF11FCB52DF4F288139814A81D9
:103C80005B81C55DD04060817181828193810E949A
:103C90008926D7016D937D938D939D937D010C5F54
:103CA0001F4F0031110521F780E1FE013196D1014E
:103CB000149601900D928A95E1F7CC5BDE4F0FB61A
:103CC000F894DEBF0FBECDBFDF91CF911F910F9152
:103CD000FF90EF90DF90CF90BF90AF909F908F902C
:103CE0007F906F905F904F903F902F9008958F92AC
:103CF0009F92AF92BF92CF92DF92EF92FF920F937B
:103D00001F93CF93DF93CDB7DEB7FC014083518380
:103D1000628373830483158326833783C086D186A9
:103D2000E286F38684869586A686B786DF91CF9154
:103D30001F910F91FF90EF90DF90CF90BF90AF90C9
:103D40009F908F9008958F929F92AF92BF92CF9243
:103D5000DF92EF92FF920F931F93CF93DF93CDB734
:103D6000DEB72C970FB6F894DEBF0FBECDBFFC01B7
:103D700089829A82AB82BC82CD82DE82EF82F88613
:103D800009871A872B873C8740835183628373831B
:103D900049815A816B817C81448355836683778313
:103DA0004D815E816F8178854087518762877387F7
:103DB00049855A856B857C854487558766877787D3
:103DC0002C960FB6F894DEBF0FBECDBFDF91CF911A
:103DD0001F910F91FF90EF90DF90CF90BF90AF9029
:103DE0009F908F900895FC0110821182128213829D
:103DF0001482158216821782108611861286138607
:103E0000148615861686178608954F925F926F92D4
:103E10007F928F929F92AF92BF92CF92DF92EF925A
:103E2000FF92CF93DF9300D01F92CDB7DEB7FC0196
:103E3000608171818281938184809580A680B78022
:103E4000C084D184E284F384448455846684778476
:103E50009B01AC010E94302869837A838B839C8309
:103E6000A5019401C501B4010E9430289B01AC0159
:103E700069817A818B819C810E94A8254B015C011C
:103E8000A7019601C701B6010E9430289B01AC0131
:103E9000C501B4010E94A8256B017C01A301920118
:103EA000C301B2010E9430289B01AC01C701B601D9
:103EB0000E94A8250F900F900F900F90DF91CF9147
:103EC000FF90EF90DF90CF90BF90AF909F908F903A
:103ED0007F906F905F904F900C949728FC01108218
:103EE0001182128213821482158216821782108622
:103EF0001186128613860895CF92DF92EF92FF9279
:103F00000F931F93FC014083518362837383048367
:103F1000158326833783C086D186E286F3861F9178
:103F20000F91FF90EF90DF90CF9008954F925F92A6
:103F30006F927F928F929F92AF92BF92CF92DF92B9
:103F4000EF92FF92FC016081718182819381848074
:103F50009580A680B780C084D184E284F3849B01DD
:103F6000AC010E9430282B013C01A5019401C50140
:103F7000B4010E9430289B01AC01C301B2010E9430
:103F8000A8254B015C01A7019601C701B6010E945B
:103F900030289B01AC01C501B4010E94A825FF9007
:103FA000EF90DF90CF90BF90AF909F908F907F90D9
:103FB0006F905F904F900C9497281F920F920FB6BE
:103FC0000F9211242F933F938F939F93AF93BF939F
:103FD0008091280590912905A0912A05B0912B0583
:103FE0003091270523E0230F2D3720F40196A11DE2
:103FF000B11D05C026E8230F0296A11DB11D209317
:1040000027058093280590932905A0932A05B0934E
:104010002B0580912C0590912D05A0912E05B09136
:104020002F050196A11DB11D80932C0590932D05A0
:10403000A0932E05B0932F05BF91AF919F918F91C3
:104040003F912F910F900FBE0F901F9018952FB793
:10405000F894609128057091290580912A05909126
:104060002B052FBF08953FB7F89480912C059091B0
:104070002D05A0912E05B0912F0526B5A89B05C052
:104080002F3F19F00196A11DB11D3FBF6627782F64
:10409000892F9A2F620F711D811D911D42E0660FBD
:1040A000771F881F991F4A95D1F708958F929F9285
:1040B000AF92BF92CF92DF92EF92FF926B017C01A1
:1040C0000E9433204B015C01C114D104E104F104CE
:1040D000F1F00E94A6250E943320681979098A0907
:1040E0009B09683E73408105910570F321E0C21A77
:1040F000D108E108F10888EE880E83E0981EA11C23
:10410000B11CC114D104E104F10429F7DDCFFF9003
:10411000EF90DF90CF90BF90AF909F908F900895D9
:10412000789484B5826084BD84B5816084BD85B592
:10413000826085BD85B5816085BDEEE6F0E0808159
:1041400081608083E1E8F0E010828081826080837A
:10415000808181608083E0E8F0E0808181608083FD
:10416000E1EBF0E0808184608083E0EBF0E080812F
:1041700081608083E1E9F0E08081826080838081DA
:1041800081608083E0E9F0E0808181608083E1EA02
:10419000F0E0808182608083808181608083E0EABA
:1041A000F0E0808181608083E1E2F1E080818260E3
:1041B0008083808181608083E0E2F1E080818160A2
:1041C0008083EAE7F0E08081846080838081826080
:1041D0008083808181608083808180688083109269
:1041E000C100089590E0FC013197E231F10508F03B
:1041F0004CC0EE58FF4F0C941329809180008F77AC
:1042000003C0809180008F7D80938000089580910D
:104210008000877FF9CF84B58F7702C084B58F7D0A
:1042200084BD08958091B0008F7703C08091B00065
:104230008F7D8093B0000895809190008F7707C0A4
:10424000809190008F7D03C080919000877F809344
:10425000900008958091A0008F7707C08091A00002
:104260008F7D03C08091A000877F8093A000089578
:10427000809120018F7707C0809120018F7D03C03E
:1042800080912001877F8093200108950F931F93D1
:10429000CF93DF931F92CDB7DEB7282F30E0F9011F
:1042A000EA5BFD4F8491F901E457FD4F1491F90148
:1042B000EE52FD4F04910023C9F0882321F0698359
:1042C0000E94F2206981E02FF0E0EE0FFF1FE85E10
:1042D000FC4FA591B4919FB7F8948C91611103C0E4
:1042E0001095812301C0812B8C939FBF0F90DF918C
:1042F000CF911F910F9108950E94442AFC01818D56
:10430000228D90E0805C9F4F821B91098F739927CB
:104310000895FC01918D828D981731F0828DE80F00
:10432000F11D858D90E008958FEF9FEF0895FC01BA
:10433000918D828D981761F0828DDF01A80FB11DDC
:104340005D968C91928D9F5F9F73928F90E0089500
:104350008FEF9FEF089582E593E2892B41F080E093
:1043600090E0892B21F00E945223811125C080E02A
:1043700090E0892B41F080E090E0892B21F00E94B1
:10438000000081111CC080E090E0892B41F080E0AA
:1043900090E0892B21F00E940000811113C080E081
:1043A00090E0892BA1F080E090E0892B81F00E94C1
:1043B000000081110AC008950E940000D8CF0E9419
:1043C0000000E1CF0E940000EACF0C9400000895A5
:1043D000FC01848DDF01A80FB11DA35ABF4F2C91A2
:1043E000848D90E001968F739927848FA689B78971
:1043F0002C93A089B1898C9180648C93938D848D4A
:10440000981306C00288F389E02D80818F7D808318
:104410000895CF93DF93EC01888D8823C9F0EA8952
:10442000FB89808185FD05C0A889B9898C9186FDAD
:104430000FC00FB607FCF5CF808185FFF2CFA889AA
:10444000B9898C9185FFEDCFCE010E94E821E7CF9D
:10445000DF91CF910895CF92DF92FF920F931F9338
:10446000CF93DF931F92CDB7DEB76C0181E0D60109
:1044700058968C9358975B969C915B975C968C9121
:104480005C97981307C05096ED91FC9151978081ED
:1044900085FD2EC0F601038D10E00F5F1F4F0F73D7
:1044A0001127F02EF601848DF81211C00FB607FC0B
:1044B000F9CFD6015096ED91FC915197808185FFFF
:1044C000F1CFC60169830E94E8216981EBCF838D1A
:1044D000E80FF11DE35AFF4F6083D6015B960C9302
:1044E0005B975296ED91FC915397808180620CC04E
:1044F000D6015696ED91FC91579760835096ED91B9
:10450000FC91519780818064808381E090E00F90DE
:10451000DF91CF911F910F91FF90DF90CF90089581
:10452000BF92CF92DF92EF92FF92CF93DF93EC0195
:104530006A017B01B22EE889F98982E08083411506
:1045400081EE580761057105A1F060E079E08DE327
:1045500090E0A70196010E94F128215031094109FC
:1045600051095695479537952795211580E13807CC
:1045700098F0E889F989108260E874E88EE190E0AB
:10458000A70196010E94F1282150310941095109E2
:104590005695479537952795EC85FD853083EE85B3
:1045A000FF852083188EEC89FD89B082EA89FB891A
:1045B000808180618083EA89FB8980818860808333
:1045C000EA89FB89808180688083EA89FB89808110
:1045D0008F7D8083DF91CF91FF90EF90DF90CF9020
:1045E000BF9008951F920F920FB60F9211240BB631
:1045F0000F922F938F939F93EF93FF93E09140053A
:10460000F09141058081E0914605F091470582FDDA
:1046100012C09081809149058F5F8F7320914A0568
:10462000821751F0E0914905F0E0E05DFA4F958F77
:104630008093490501C08081FF91EF919F918F91F7
:104640002F910F900BBE0F900FBE0F901F901895DB
:104650001F920F920FB60F9211240BB60F922F9349
:104660003F934F935F936F937F938F939F93AF93FA
:10467000BF93EF93FF9380E395E00E94E821FF91C1
:10468000EF91BF91AF919F918F917F916F915F91CA
:104690004F913F912F910F900BBE0F900FBE0F9037
:1046A0001F90189580E395E00E947E2121E0892BE0
:1046B00009F420E0822F08951092330510923205FC
:1046C00088EE93E0A0E0B0E0809334059093350548
:1046D000A0933605B09337058BEF92E090933105A8
:1046E0008093300585EC90E090933D0580933C05E8
:1046F00084EC90E090933F0580933E0580EC90E041
:10470000909341058093400581EC90E090934305A0
:104710008093420582EC90E0909345058093440598
:1047200086EC90E0909347058093460510924905EA
:1047300010924A0510924B0510924C050895089569
:104740000E9490200E949F230E94ED01CBEAD1E2BB
:104750000E942C022097E1F30E94AB21F9CF0C9428
:10476000B529CF92DF92EF92FF920F931F93CF93D1
:10477000DF937C016A01EB0100E010E00C151D05E0
:1047800071F06991D701ED91FC910190F081E02DDC
:10479000C7011995892B19F00F5F1F4FEFCFC80183
:1047A000DF91CF911F910F91FF90EF90DF90CF900D
:1047B00008956115710581F0DB010D900020E9F786
:1047C000AD0141505109461B570BDC01ED91FC91A5
:1047D0000280F381E02D199480E090E008950C941C
:1047E000D923DC01ED91FC910190F081E02D199429
:1047F00067E073E00C94D9230F931F93CF93DF935B
:10480000EC010E94D9238C01CE010E94F823800F75
:10481000911FDF91CF911F910F9108958F929F92D9
:10482000AF92BF92DF92EF92FF920F931F93CF93BD
:10483000DF93CDB7DEB7A1970FB6F894DEBF0FBEFA
:10484000CDBF7C01F42FD52ECB0119A2223008F464
:104850002AE08E010F5D1F4F822E912CA12CB12CCE
:104860006F2F7D2DA50194010E94F128F22FD32EE8
:10487000CA01015011096A3014F4E0E301C0E7E312
:10488000E60FD801EC93232B242B252B49F7B801F5
:10489000C7010E94D923A1960FB6F894DEBF0FBEC0
:1048A000CDBFDF91CF911F910F91FF90EF90DF90DF
:1048B000BF90AF909F908F900895CF92DF92EF922C
:1048C000FF920F931F93CF93DF93EC016A017B015B
:1048D0002115310579F4E881F9810190F081E02D0D
:1048E000642FDF91CF911F910F91FF90EF90DF9098
:1048F000CF9019942A303105E9F477FF1AC06DE2A0
:104900000E94F1238C0144275527BA014C195D09F7
:104910006E097F092AE0CE010E940E24800F911FAC
:10492000DF91CF911F910F91FF90EF90DF90CF908B
:1049300008952AE0B701A601CE01DF91CF911F9122
:104940000F91FF90EF90DF90CF900C940E244F9238
:104950005F926F927F928F929F92AF92BF92CF920F
:10496000DF92EF92FF920F931F93CF93DF93EC01AF
:104970006A017B01B22E9A01AB01C701B6010E9408
:10498000D828882319F06AE073E027C02601370190
:10499000E89477F82FEF3FEF4FE75FE7C301B201ED
:1049A0000E94D82881110DC02FEF3FEF4FE75FE73E
:1049B000C301B2010E94852618161CF46EE073E054
:1049C0000CC02FEF3FEF4FE75FE4C701B6010E9435
:1049D00025281816ACF462E173E0CE01DF91CF9187
:1049E0001F910F91FF90EF90DF90CF90BF90AF900D
:1049F0009F908F907F906F905F904F900C94D923F1
:104A00002FEF3FEF4FE75FECC701B6010E9485260D
:104A100087FDE1CF20E030E0A901C701B6010E9487
:104A2000852687FF0AC06DE2CE010E94F1238C012A
:104A3000F7FAF094F7F8F09402C000E010E0A12C2F
:104A400060E070E080E09FE3AB1441F020E030E0F4
:104A500040E251E40E948926A394F6CF9B01AC0169
:104A6000C701B6010E94A8256B017C010E94F626B1
:104A70002B013C010E9422279B01AC01C701B6011A
:104A80000E94A7256B017C012AE0B301A201CE019F
:104A90000E940E24080F191FBB2039F066E173E055
:104AA000CE010E94D923080F191F7B2C772041F1DA
:104AB00020E030E040E251E4C701B6010E94302816
:104AC0006B017C010E94F1264B01AA2497FCA09463
:104AD000BA2C2AE030E0B501A401CE010E945D2489
:104AE000080F191FC501B4010E9424279B01AC01C6
:104AF000C701B6010E94A7256B017C017A94D6CF2D
:104B0000C801DF91CF911F910F91FF90EF90DF903F
:104B1000CF90BF90AF909F908F907F906F905F905D
:104B20004F9008950C94A7240F931F93CF93DF9376
:104B3000EC010E94A7248C01CE010E94F823800F73
:104B4000911FDF91CF911F910F91089508955058B3
:104B5000BB27AA270ED03FC230D230F035D220F08A
:104B600031F49F3F11F41EF4EFC10EF4E095E7FB22
:104B7000E5C1E92F41D280F3BA17620773078407B2
:104B8000950718F071F49EF559C20EF4E0950B2EBE
:104B9000BA2FA02D0B01B90190010C01CA01A0018F
:104BA0001124FF27591B99F0593F50F4503E68F1EA
:104BB0001A16F040A22F232F342F4427585FF3CF2B
:104BC000469537952795A795F0405395C9F77EF4FC
:104BD0001F16BA0B620B730B840BBAF09150A1F045
:104BE000FF0FBB1F661F771F881FC2F70EC0BA0FCB
:104BF000621F731F841F48F4879577956795B79553
:104C0000F7959E3F08F0B3CF9395880F08F099274A
:104C1000EE0F9795879508959F939F77EEE38937D9
:104C20009E0720F4E8E0F1E0B7D109C048D19058E0
:104C3000A2EA2AED3FE049EC5FE39BDFCCD10F9085
:104C400007FC90580895B9D158F080E891E009F434
:104C50009EEFBAD128F040E851E059F45EEF09C068
:104C600073C1ECC1E92FE078C7D168F3092E052A9A
:104C7000C1F3261737074807590738F00E2E07F8F3
:104C8000E02569F0E025E0640AC0EF6307F80094CE
:104C900007FADB01B9019D01DC01CA01AD01EF9307
:104CA00047D099D10AD05F91552331F02BED3FE0E9
:104CB00049E450FD49EC4CCF0895DF93DD27B92F2F
:104CC000BF7740E85FE31616170648075B0710F446
:104CD000D92FBFD19F938F937F936F9366D2ECE1CF
:104CE000F1E035D178D12F913F914F915F91C4D1AF
:104CF000DD2349F09058A2EA2AED3FE049EC5FE35A
:104D0000D0785D2736DFDF9166C1F4D008F481E00A
:104D100008950CD060C158D140F04FD130F021F44B
:104D20005F3F19F00BC151118AC10EC165D198F3D3
:104D30009923C9F35523B1F3951B550BBB27AA271C
:104D400062177307840738F09F5F5F4F220F331F8E
:104D5000441FAA1FA9F333D00E2E3AF0E0E830D05A
:104D600091505040E695001CCAF729D0FE2F27D05D
:104D7000660F771F881FBB1F261737074807AB072B
:104D8000B0E809F0BB0B802DBF01FF2793585F4FA0
:104D90002AF09E3F510568F0D1C051C15F3FECF34E
:104DA000983EDCF3869577956795B795F7959F5F65
:104DB000C9F7880F911D9695879597F90895E1E0B9
:104DC000660F771F881FBB1F621773078407BA0718
:104DD00020F0621B730B840BBA0BEE1F88F7E09573
:104DE000089504D06894B1112AC108950DD188F0B6
:104DF0009F5790F0B92F9927B751A0F0D1F0660FC7
:104E0000771F881F991F1AF0BA95C9F712C0B130E1
:104E100081F014D1B1E0089511C1672F782F882750
:104E2000B85F39F0B93FCCF3869577956795B39520
:104E3000D9F73EF490958095709561957F4F8F4F8F
:104E40009F4F0895E89409C097FB3EF49095809594
:104E5000709561957F4F8F4F9F4F9923A9F0F92F40
:104E600096E9BB279395F695879577956795B795BE
:104E7000F111F8CFFAF4BB0F11F460FF1BC06F5FA4
:104E80007F4F8F4F9F4F16C0882311F096E911C0B6
:104E9000772321F09EE8872F762F05C0662371F0D7
:104EA00096E8862F70E060E02AF09A95660F771FEB
:104EB000881FDAF7880F9695879597F90895DF93FD
:104EC000CF931F930F938B01EC01E9E4F1E03FD006
:104ED00082D09801AE018B01EC0160E070E080E8C7
:104EE0009FE335DE24D19801AE010F911F91CF9140
:104EF000DF91C2C0990F0008550FAA0BE0E8FEEF42
:104F000016161706E807F907C0F012161306E4078D
:104F1000F50798F0621B730B840B950B39F40A2686
:104F200061F0232B242B252B21F408950A2609F464
:104F3000A140A6958FEF811D811D089597F99F6768
:104F400080E870E060E008959FEF80EC0895DF93C3
:104F5000CF931F930F93FF92EF92DF927B018C010F
:104F6000689405C0DA2EEF0187D0FE01E894A59180
:104F70002591359145915591AEF3EF01FADDFE0192
:104F80009701A801DA9479F7DF90EF90FF900F91E5
:104F90001F91CF91DF9108959F938F937F936F938C
:104FA000FF93EF939B01AC015BD0EF91FF91CFDFBB
:104FB0002F913F914F915F9153C000240A94161690
:104FC000170618060906089500240A9412161306F7
:104FD000140605060895092E0394000C11F4882385
:104FE00052F0BB0F40F4BF2B11F460FF04C06F5FA1
:104FF0007F4F8F4F9F4F089557FD9058440F551F77
:1050000059F05F3F71F04795880F97FB991F61F04A
:105010009F3F79F087950895121613061406551FC1
:10502000F2CF4695F1DF08C0161617061806991F2D
:10503000F1CF86957105610508940895E894BB2722
:1050400066277727CB0197F9089554DF08F48FEF8F
:1050500008959B01AC0160E070E080E89FE359CEC9
:105060000BD0B9CFAADF28F0AFDF18F0952309F0F5
:1050700065CF6ACF1124E3CFBFDFA0F3959FD1F3B3
:10508000950F50E0551F629FF001729FBB27F00DF6
:10509000B11D639FAA27F00DB11DAA1F649F66274B
:1050A000B00DA11D661F829F2227B00DA11D621F9A
:1050B000739FB00DA11D621F839FA00D611D221F54
:1050C000749F3327A00D611D231F849F600D211D38
:1050D000822F762F6A2F11249F5750408AF0E1F0DB
:1050E00088234AF0EE0FFF1FBB1F661F771F881F24
:1050F00091505040A9F79E3F510570F01FCF9FCFB0
:105100005F3FECF3983EDCF3869577956795B7950E
:10511000F795E7959F5FC1F7FE2B880F911D969538
:10512000879597F9089511F40EF40ECF45C06CDF02
:10513000D0F39923D9F3CEF39F57550B87FF4AD06D
:105140000024A0E640EA900180585695979528F4EF
:10515000805C660F771F881F20F0261737074807E7
:1051600030F4621B730B840B202931294A2BA6953E
:1051700017940794202531254A2758F7660F771F83
:10518000881F20F026173707480730F4620B730B8F
:10519000840B200D311D411DA09581F7B901842F8D
:1051A0009158880F9695879508959B01AC0158CF2B
:1051B000A1DE880B990B08959F3F31F0915020F4A8
:1051C000879577956795B795880F911D96958795E3
:1051D00097F9089591505040660F771F881FD2F7B6
:1051E0000895A1E21A2EAA1BBB1BFD010DC0AA1F28
:1051F000BB1FEE1FFF1FA217B307E407F50720F040
:10520000A21BB30BE40BF50B661F771F881F991FBA
:105210001A9469F760957095809590959B01AC0103
:10522000BD01CF010895EE0FFF1F0590F491E02D11
:1052300019940790F691E02D1994CF93DF93823063
:10524000910510F482E090E0E091CF05F091D00557
:1052500020E030E0A0E0B0E0309739F140815181AA
:1052600048175907B8F04817590771F4828193819C
:10527000109729F013969C938E9312972CC09093BD
:10528000D0058093CF0527C02115310531F0421795
:10529000530718F0A901DB0101C0EF019A01BD011C
:1052A000DF010280F381E02DD7CF21153105F9F020
:1052B000281B390B2430310580F48A819B816115CC
:1052C000710521F0FB019383828304C09093D00584
:1052D0008093CF05FE01329644C0FE01E20FF31F1A
:1052E0008193919322503109398328833AC02091C8
:1052F000CD053091CE05232B41F42091020230914F
:1053000003023093CE052093CD0520910002309109
:1053100001022115310541F42DB73EB74091040239
:1053200050910502241B350BE091CD05F091CE057F
:10533000E217F307A0F42E1B3F0B2817390778F06C
:10534000AC014E5F5F4F2417350748F04E0F5F1FCB
:105350005093CE054093CD058193919302C0E0E038
:10536000F0E0CF01DF91CF910895CF93DF930097C5
:1053700009F487C0FC01329713821282C091CF05D5
:10538000D091D005209781F420813181280F391FD9
:105390008091CD059091CE058217930779F5F09312
:1053A000CE05E093CD056DC0DE0120E030E0AE1704
:1053B000BF0750F412964D915C9113979D014115D2
:1053C000510509F1DA01F3CFB383A2834081518102
:1053D000840F951F8A179B0771F48D919C911197EB
:1053E000840F951F02969183808312968D919C91D4
:1053F0001397938382832115310529F4F093D00507
:10540000E093CF053EC0D9011396FC93EE9312971B
:105410004D915D91A40FB51FEA17FB0779F48081C8
:105420009181840F951F0296D90111969C938E93BA
:105430008281938113969C938E931297E0E0F0E023
:105440008A819B81009719F0FE01EC01F9CFCE0112
:10545000029628813981820F931F2091CD053091CA
:10546000CE052817390769F4309729F41092D00532
:105470001092CF0502C013821282D093CE05C09342
:10548000CD05DF91CF91089581E090E0F8940C94E0
:10549000582AFB01DC014150504048F001900D9228
:1054A0000020C9F701C01D9241505040E0F7089517
:1054B00013E0C8E3D3E000E006C022970109FE0133
:1054C0000BBF0E941929CA33D10780E00807A9F74A
:0454D000F894FFCF7E
:1054D4000000D105800000007A440000754400807B
:1054E4008944414852532054657374004F6F6F7060
:1054F400732C206E6F204C534D333033206465740D
:105504006563746564202E2E2E20436865636B20CA
:10551400796F757220776972696E6721004F6F6FBA
:1055240070732C206E6F204C3347443230206465F6
:10553400746563746564202E2E2E20436865636B46
:1055440020796F757220776972696E67206F722097
:1055540049324320414444522100596177203A00A2
:105564002050697463683A200020526F6C6C3A20B2
:105574000000000000D001D701D6017C217C21006D
:105584000000002705FA04CF04D704EA04F9044C08
:105594003347443230000000000014081A08110890
:1055A4000E0921084C534D333033000000000040F5
:1055B4000B4D0BD601110E540B000000003A0B46A4
:1055C4000B370B040F910B000000002B22B1237E3C
:1055D400219721892109220D0A006E616E00696EEE
:0855E40066006F7666002E00E0
:00000001FF
