:100000000C9490000C94B8000C94B8000C94B800B8
:100010000C94B8000C94B8000C94B8000C94B80080
:100020000C94B8000C94B8000C94B8000C94B80070
:100030000C94B8000C94B8000C94B8000C94B80060
:100040000C94981E0C94B8000C942C210C945E21F6
:100050000C94B8000C94B8000C94B8000C94B80040
:100060000C94A1050C94B800036EDB363D9A999967
:10007000993DABAAAA2A3E000000803F084AD73B20
:100080003BCE016E84BCBFFDC12F3D6C74319ABD67
:1000900056833DDA3D00C77F11BED9E4BB4C3E918B
:1000A0006BAAAABE000000803F072C7AA5BA6CC5D7
:1000B00090DA3B9365FC8BBC53F810FD3C56928361
:1000C0004DBD879D3AB63DCBC9BF5BBE73DA0FC944
:1000D0003F000000000800020100000304070000C8
:1000E000000000000000010204081020408001020E
:1000F000040810200102040810200404040404046D
:1001000004040202020202020303030303030000C9
:100110000000250028002B005603B7048E218E0313
:1001200011241FBECFEFD8E0DEBFCDBF12E0A0E0AC
:10013000B1E0E6E2F1E502C005900D92A831B10709
:10014000D9F724E0A8E1B2E001C01D92AD3CB207AE
:10015000E1F711E0CEE1D1E004C02297FE010E9458
:100160004727C831D107C9F70E94D2210C948628AD
:100170000C94000025EA31E0FC01318320830895CE
:10018000089525EA31E0FC01318320830C94E121BC
:1001900085EA91E0909361028093600290936B02F4
:1001A00080936A029093810280938002089526E0F2
:1001B00040E052EC61E070E08CE294E00E94CA20E2
:1001C00062E171E08CE294E00E942E2269E072E02C
:1001D0008CE294E00E942E2280E892E00E94D80BEC
:1001E000811107C06CE171E08CE294E00E942E2244
:1001F000FFCF8AE692E00E941D0C811107C06CE1DE
:1002000071E08CE294E00E942E22FFCF6AEF70E052
:1002100080E692E00E948E07811107C06DE471E0D4
:100220008CE294E00E942122FFCF08954F925F92CA
:100230006F927F928F929F92AF92BF92CF92DF92F6
:10024000EF92FF920F931F93CF93DF93CDB7DEB75B
:100250006C970FB6F894DEBF0FBECDBF6CE372E0B3
:1002600080E892E00E94CC0CC0905802D0905902D5
:10027000E0905A02F0905B020091540210915502F6
:1002800020915602309157024091500250915102F4
:100290006091520270915302CE0101960E94371E66
:1002A0008CE0FE013196A0E3B2E001900D928A95B8
:1002B000E1F76CE372E08AE692E00E94BF0DC09025
:1002C0005802D0905902E0905A02F0905B020091DF
:1002D00054021091550220915602309157024091DC
:1002E0005002509151026091520270915302CE011E
:1002F00001960E94371E8CE0FE013196A8E1B2E023
:1003000001900D928A95E1F76CE372E080E692E04D
:100310000E94CB07C0905802D0905902E0905A0238
:10032000F0905B0200915402109155022091560208
:100330003091570240915002509151026091520207
:1003400070915302CE0101960E94371E8CE0FE018F
:100350003196A4E2B2E001900D928A95E1F78DB753
:100360009EB70C970FB6F8949EBF0FBE8DBFADB76A
:10037000BEB711968CE0E8E1F2E001900D928A950B
:10038000E1F7ADB7BEB71C970FB6F894BEBF0FBE6E
:10039000ADBF11968CE0E0E3F2E001900D928A95FA
:1003A000E1F7C0902402D0902502E0902602F09060
:1003B0002702009128021091290220912A023091EF
:1003C0002B0240912C0250912D0260912E027091CF
:1003D0002F0283E992E00E94141140909B025090FA
:1003E0009C0260909D0270909E02C0909F02D090EF
:1003F000A002E090A102F090A202A7019601C7011D
:10040000B6010E946226698B7A8B8B8B9C8B8091C4
:10041000970290919802A0919902B0919A028D8BC7
:100420009E8BAF8BB88F8091A3029091A402A09174
:10043000A502B091A6028D879E87AF87B88BA301D6
:100440009201C301B2010E94622629893A894B892F
:100450005C890E94DA239B01AC010E94DA239B0194
:10046000AC0160E070E080E89FE30E94D923698FCF
:100470007A8F8B8F9C8FA30192016D897E898F89E2
:10048000988D0E9462264B015C012D853E854F852B
:100490005889C701B6010E9462269B01AC01C501C3
:1004A000B4010E94DA239B01AC010E94DA23298D5A
:1004B0003A8D4B8D5C8D0E946424698F7A8F8B8F6F
:1004C0009C8FA70196016D897E898F89988D0E94E6
:1004D00062264B015C01A30192016D857E858F85AB
:1004E00098890E9462269B01AC01C501B4010E945B
:1004F000D9239B01AC010E94DA230E943E244B01C8
:100500005C012D853E854F855889CA01B9010E943D
:1005100062269B01AC0169897A898B899C890E943A
:10052000DA239B01AC010E94DA239B01AC0160E05D
:1005300070E080E89FE30E94D923698B7A8B8B8BD4
:100540009C8B2D853E854F8558896D897E898F8945
:10055000988D0E946226A30192010E94DA23A701CE
:1005600096010E94DA239B01AC010E94DA232989BB
:100570003A894B895C890E94642420E030E044E39E
:1005800053E40E9462262BED3FE049E450E40E94D0
:10059000BB242B013C010FB6F894DEBF0FBECDBFCC
:1005A00020E030E0A9010E94B72487FF05C020E0C9
:1005B00030E044EB53E403C020E030E0A901C30184
:1005C000B2010E94DA232B013C016AE871E08CE25F
:1005D00094E00E94212222E030E0B301A2018CE2EB
:1005E00094E00E94C42360E971E08CE294E00E94F0
:1005F000212220E030E044E353E4C501B4010E942D
:1006000062262BED3FE049E450E40E94BB24AB019D
:10061000BC0122E030E08CE294E00E94C42369E94E
:1006200071E08CE294E00E94212220E030E044E37B
:1006300053E4698D7A8D8B8D9C8D0E9462262BED03
:100640003FE049E450E40E94BB24AB01BC0122E03E
:1006500030E08CE294E00E94C623209106013091A4
:100660000701409108015091090160E070E08AE7BC
:1006700094E40E94BB240E9428250E94111F6C96BE
:100680000FB6F894DEBF0FBECDBFDF91CF911F91A3
:100690000F91FF90EF90DF90CF90BF90AF909F9021
:1006A0008F907F906F905F904F90089520910601FA
:1006B00030910701409108015091090160E070E01C
:1006C00080E89FE30E94BB24AB01BC0183E992E078
:1006D0000E9475104DE556E760E070E080E892E01A
:1006E0000E94960A4EE556E760E070E08AE692E0E6
:1006F0000E94AC0A44E150E060E070E080E692E0E5
:100700000E943A0780E392E00E94291E84E292E070
:100710000E94291E88E192E00C94291E0C94C800C6
:100720008091930390E020919403821B9109089596
:100730002091940380919303281750F4E22FF0E066
:10074000EB56FC4F808190E02F5F20939403089537
:100750008FEF9FEF0895E091940380919303E81742
:1007600030F4F0E0EB56FC4F808190E008958FEF7D
:100770009FEF08950895CF92DF92EF92FF920F932B
:100780001F93CF93DF937C01CB018A0120916F03EC
:10079000222389F0EB016B01C40ED51ECC15DD05BB
:1007A00069F06991D701ED91FC910190F081E02D04
:1007B000C7010995F3CF642F0E947805C801DF9126
:1007C000CF911F910F91FF90EF90DF90CF90089500
:1007D000CF93DF931F92CDB7DEB7698320916F036C
:1007E0002223D1F020917003203240F021E030E04C
:1007F000FC013383228380E090E015C08091710377
:10080000E82FF0E0EE58FC4F998190838F5F809342
:1008100071038093700305C061E0CE0101960E94D0
:10082000780581E090E00F90DF91CF910895FC0171
:100830001382128248EE53E060E070E044835583F7
:100840006683778383EB91E0918380830895109290
:1008500094031092930310927103109270030C94FE
:10086000BB0481E080936F03609392031092710345
:100870001092700308950C9431040F93062F21E019
:100880004091700362E773E0809192030E9421051A
:10089000109271031092700310926F030F910895DC
:1008A0008F929F92AF92BF92CF92DF92EF92FF9280
:1008B0000F931F93CF93DF93EC01F62ED42E4801B4
:1008C0005901EE2019F10E9431041E2D143008F058
:1008D00013E01150B8F0E881F98128E0129FB001CF
:1008E0001124A501940104C0569547953795279585
:1008F0006A95D2F7CA01B9010190F081E02DCE01CD
:100900000995E7CF60E0CE010E943D044D2D4132B4
:1009100008F040E22C2D65E973E08F2D0E94D90488
:100920001092940380939303DF91CF911F910F91C5
:10093000FF90EF90DF90CF90BF90AF909F908F90FF
:100940000895CF92EF920F931F93C22EE12C00E0F7
:1009500010E098010E9450041F910F91EF90CF90EA
:10096000089521E00C94A10461E00C943D0483E619
:1009700093E00C9417041092220481E080932004E9
:1009800010921F0461E082E10E94AF1F61E083E1E9
:100990000E94AF1FE9EBF0E080818E7F8083808131
:1009A0008D7F808388E48093B80085E48093BC00C9
:1009B0000895413208F043C0909122049111FCCF78
:1009C00091E090932204209320042FEF2093B5030D
:1009D0001092FA03240F2093F9039093210490912D
:1009E0002104880F892B8093210480911F0481307A
:1009F00061F410921F04809121048093BB008091C8
:100A0000BC0083FDF8CF85EC01C085EE8093BC006F
:100A1000809122048130E1F38091FA03841710F46D
:100A20004091FA032BEF33E0FB01D9018A2F821B9F
:100A3000841718F48D918193F9CF842F089580E065
:100A400008950F93413208F04AC090912204911109
:100A5000FCCF92E090932204009320049FEF9093A8
:100A6000B5031092FA034093F903FB016BEF73E0B7
:100A7000DB019A2F961B941718F491919D93F9CF4F
:100A80001092210490912104880F892B80932104D6
:100A900080911F04813061F410921F048091210421
:100AA0008093BB008091BC0083FDF8CF85EC01C032
:100AB00085EE8093BC00222321F0809122048230B5
:100AC000E1F38091B5038F3F61F08091B5038032EF
:100AD00051F08091B503803341F483E007C081E099
:100AE00005C080E003C082E001C084E00F9108955A
:100AF000613298F420912204243089F46093D70362
:100B0000FC0189ED93E0DC012A2F281B261718F43D
:100B100021912D93F9CF80E0089581E0089582E03E
:100B2000089585ED8093BC008091BC0084FDFCCFCE
:100B300010922204089585EC8093BC001092220448
:100B400008951F920F920FB60F9211242F933F9387
:100B50004F935F936F937F938F939F93AF93BF93C5
:100B6000EF93FF938091B900887F803609F49EC08F
:100B700078F5883209F45DC090F4803109F456C0EC
:100B800038F4882309F4F5C0883009F44FC0F5C063
:100B9000883109F44EC0803209F45FC0EEC0803461
:100BA00009F46AC058F4803309F457C0883309F057
:100BB000E4C08093B5030E949B05DFC0803509F433
:100BC0004FC0883509F45DC0883409F0D6C0D3C061
:100BD000883909F4C4C0A8F4883709F467C038F428
:100BE000883609F463C0803709F460C0C6C088380D
:100BF00009F4B5C0803909F45FC0803809F0BDC080
:100C00005BC0803B09F483C038F4803A09F466C0C5
:100C1000883A09F47CC0B1C0803C09F4A4C0883C87
:100C200009F4A1C0883B09F487C0A7C080912104C2
:100C300010C09091FA038091F903981770F5E09134
:100C4000FA0381E08E0F8093FA03F0E0E550FC4F49
:100C500080818093BB0085EC83C08093B5038BC0FB
:100C6000E091FA0381E08E0F8093FA038091BB003C
:100C7000F0E0E550FC4F80839091FA038091F903F6
:100C80006BC0E091FA0381E08E0F8093FA038091AC
:100C9000BB00F0E0E550FC4F80838091200481117F
:100CA0006AC081E080931F0484EA5EC083E0809381
:100CB00022041092B603CFCF8091B603803208F0A1
:100CC0004EC0E091B60381E08E0F8093B603809111
:100CD000BB00F0E0E954FC4F8083BDCF0E949B0530
:100CE0008091B603803230F4E091B603F0E0E9542D
:100CF000FC4F10826091B60370E0E0911B04F0910C
:100D00001C0487EB93E009951092B60336C084E08B
:100D1000809322041092D8031092D703E0911D040F
:100D2000F0911E0409958091D703811105C081E0DF
:100D30008093D7031092D903E091D80381E08E0FFE
:100D40008093D803F0E0E752FC4F80818093BB0092
:100D50009091D8038091D703981708F47CCF85E849
:100D60008093BC000AC085EC8093BC0010922204E2
:100D700004C01092B5030E949105FF91EF91BF91BD
:100D8000AF919F918F917F916F915F914F913F9123
:100D90002F910F900FBE0F901F901895FC01618747
:100DA000089525EA31E0FC0131832083089525EA86
:100DB00031E0FC01318320830C94E1210F931F93D8
:100DC000CF93DF938C01EB0188E2FB0111928A95AE
:100DD000E9F74BE050E06FEB71E0CE010E9477281D
:100DE0001B8681E090E0A0E0B0E08C879D87AE8715
:100DF000BF87F80185819681A781B085888B998B03
:100E0000AA8BBB8B44E050E060E070E04C8B5D8BC4
:100E10006E8B7F8B1CA21DA21EA21FA203811481B8
:100E2000B80180E090E00E94542525E33AEF4EE8B7
:100E30005CE30E946226688F798F8A8F9B8FB8014E
:100E4000882777FD8095982F0E945625905825E396
:100E50003AEF4EE85CE30E9462266C8F7D8F8E8FA6
:100E60009F8F18A219A21AA21BA2DF91CF911F91E6
:100E70000F910895FC018AEC91E091838083458372
:100E8000568367837087118608951F93CF93DF93EE
:100E90001F92CDB7DEB7162F6BE670E083E693E0C6
:100EA00049830E943B04612F83E693E00E94E8039C
:100EB0004981642F83E693E00E94E80383E693E090
:100EC0000F90DF91CF911F910C94B404CF93C62F54
:100ED0006BE683E693E00E9431046C2F83E693E097
:100EE0000E94E80383E693E00E94B40441E06BE6CD
:100EF00083E693E00E94B10483E693E00E949003AE
:100F0000892BD1F383E693E00E949803C82F83E6F0
:100F100093E00E94B4048C2FCF9108950F931F93F8
:100F2000CF93DF93EC018B0183E693E00E942704CB
:100F30001C830B836FE0CE010E946607843D11F095
:100F4000873D09F540E060E2CE010E9445074FE091
:100F500060E2CE010E9445078B819C81843F21E0A5
:100F6000920749F0803D27E0920739F08A3F9105CA
:100F700061F440E003C040E101C040E263E2CE0121
:100F80000E94450702C080E001C081E0DF91CF915F
:100F90001F910F9108952F923F924F925F926F92FF
:100FA0007F928F929F92AF92BF92CF92DF92EF92F9
:100FB000FF920F931F93CF93DF93CDB7DEB72A979E
:100FC0000FB6F894DEBF0FBECDBF8C017A8769875C
:100FD00084E2FB0111928A95E9F784E290E0A0E0B7
:100FE000B0E0E985FA8580839183A283B383F80119
:100FF00085819681A781B085E985FA85848395836B
:10100000A683B78384E090E0A0E0B0E0808791877A
:10101000A287B3870E94E21EE985FA85608B718BF7
:10102000828B938B6BE683E693E00E943104E09120
:101030006303F09164030190F081E02D68EA83E698
:1010400093E0099583E693E00E94B4048111E2CF16
:1010500046E06BE683E693E00E94B10483E693E00A
:101060000E949803B82E83E693E00E949803A82E6E
:1010700083E693E00E949803D82E83E693E00E94D3
:101080009803C82E83E693E00E949803F82E83E627
:1010900093E00E949803E82EAA82198229813A815E
:1010A0002B293A832983B901882777FD8095982FCA
:1010B0000E9456252B013C01E985FA85648B758BCE
:1010C000868B978BCC821B822B813C812D293C8384
:1010D0002B83B901882777FD8095982F0E9456258C
:1010E0004B015C01E985FA85608F718F828F938F48
:1010F000EE821D822D813E812F293E832D83B901F1
:10110000882777FD8095982F0E9456256B017C01DA
:10111000E985FA85648F758F868F978FF8018185B1
:1011200023803480882309F483C0F1E0FF8320E02A
:1011300030EF4FEF56ECC301B2010E94B7241816EE
:101140000CF41F8221E0288720E030EF4FEF56E4B7
:10115000C301B2010E94572687FD188668843F812B
:10116000632A7724739420E030EF4FEF56E4C501F3
:10117000B4010E94572687FD712C67287724739449
:1011800020E030EF4FEF56ECC501B4010E94B724C8
:1011900018160CF4712C7628BB24B39420E030EFA1
:1011A0004FEF56E4C701B6010E94572687FDB12CC8
:1011B0007B2851F420E030EF4FEF56ECC701B60129
:1011C0000E94B7241816A4F18AEF28163104B1F052
:1011D00094EF291691E0390659F520ED37E0F80132
:1011E0003483238340E060E2C8010E9445074FE05A
:1011F00060E2C8010E94450740E210C024EF31E0E0
:10120000F8013483238340E060E2C8010E9445076F
:101210004FE060E2C8010E94450740E163E2C80177
:101220000E94450740E864E2C8010E944507F2CEEB
:1012300034EF231631E0330691F180ED281687E074
:10124000380609F453C09AEF2916310409F080C01A
:1012500029E23CE54FE05CE3E985FA85648975891C
:10126000868997890E946226E985FA85648B758B49
:10127000868B978B29E23CE54FE05CE3608D718DB6
:10128000828D938D0E946226E985FA85608F718F29
:10129000828F938F29E23CE54FE05CE34DC029E269
:1012A0003CE54FE85CE3E985FA85648975898689C0
:1012B00097890E946226E985FA85648B758B868BF7
:1012C000978B29E23CE54FE85CE3608D718D828D60
:1012D000938D0E946226E985FA85608F718F828FD7
:1012E000938F29E23CE54FE85CE326C029E23CE528
:1012F0004FE85DE3E985FA85648975898689978970
:101300000E946226E985FA85648B758B868B978BA4
:1013100029E23CE54FE85DE3608D718D828D938D10
:101320000E946226E985FA85608F718F828F938F84
:1013300029E23CE54FE85DE3648D758D868D978DE0
:101340000E946226E985FA85648F758F868F978F54
:1013500025E33AEF4EE85CE3E985FA85648975890F
:10136000868997890E946226E985FA85648B758B48
:10137000868B978B25E33AEF4EE85CE3608D718DA9
:10138000828D938D0E946226E985FA85608F718F28
:10139000828F938F25E33AEF4EE85CE3648D758D81
:1013A000868D978D0E946226E985FA85648F758FF8
:1013B000868F978F81E02A960FB6F894DEBF0FBE16
:1013C000CDBFDF91CF911F910F91FF90EF90DF90F4
:1013D000CF90BF90AF909F908F907F906F905F90D5
:1013E0004F903F902F900895FC01618B089525EA5E
:1013F00031E0FC0131832083089525EA31E0FC01CE
:1014000031832083089525EA31E0FC013183208374
:101410000C94E12125EA31E0FC01318320830C9416
:10142000E1210F931F93CF93DF938C01EB0188E2AF
:10143000FB0111928A95E9F74BE050E064ED71E011
:10144000CE010E9477281B8641E050E060E070E00A
:101450004C875D876E877F87F80107851089218912
:101460003289088B198B2A8B3B8B4C8B5D8B6E8B57
:101470007F8B1CA21DA21EA21FA2188E198E1A8E6F
:101480001B8E1C8E1D8E1E8E1F8E18A219A21AA2D4
:101490001BA2DF91CF911F910F9108950F931F937E
:1014A000CF93DF938C01EB0188E2FB0111928A95C7
:1014B000E9F74BE050E064ED71E0CE010E9477283F
:1014C0001B8641E050E060E070E04C875D876E87EE
:1014D0007F87F8014289538964897589488B598BC4
:1014E0006A8B7B8B42E050E060E070E04C8B5D8B60
:1014F0006E8B7F8B1CA21DA21EA21FA2188E198E9E
:101500001A8E1B8E1C8E1D8E1E8E1F8E18A219A267
:101510001AA21BA2DF91CF911F910F910895DC01B8
:10152000ED91FC910190F081E02D0994FC018FED8B
:1015300091E0918380834787508B618B728B1382FC
:1015400014821582168217821086118612861386DF
:101550001486158616860895FC018DEE91E0918320
:101560008083428B538B648B758B118A1382148218
:1015700015821682178210861186128613861486AB
:10158000158616860895CF93DF9300D0CDB7DEB7CA
:1015900083E693E02A8349830E9431044981642FC2
:1015A00083E693E00E94E8032A81622F83E693E0BA
:1015B0000E94E80383E693E00F900F90DF91CF91B4
:1015C0000C94B404CF93DF9300D0CDB7DEB783E69D
:1015D00093E02A8349830E9431044981642F83E682
:1015E00093E00E94E8032A81622F83E693E00E9441
:1015F000E80383E693E00F900F90DF91CF910C9476
:10160000B4040F931F93CF93DF938C01EB01262F2C
:1016100041E06EE10E94E20AF801D08BC787C03832
:10162000D10509F45BC0DCF4C034D105A9F1C036A2
:10163000D10509F442C0A09709F08AC080E090E883
:10164000A9E8B4E480930E0190930F01A0931001D8
:10165000B093110180E090E0A5E7B4E471C0C03C14
:10166000D10509F44CC0C03ED10509F459C0C03AB7
:10167000D10509F06DC080E090E0A8ECB3E4809360
:101680000E0190930F01A0931001B093110180E01F
:1016900090E8A1EBB3E454C080E090ECA5E5B4E49D
:1016A00080930E0190930F01A0931001B09311014C
:1016B00080E090E0AEE3B4E443C080E090E8A7E2CD
:1016C000B4E480930E0190930F01A0931001B093A6
:1016D000110180E090E0A6E1B4E432C080E090E047
:1016E000A1EEB3E480930E0190930F01A09310013B
:1016F000B093110180E090E0A8ECB3E421C080E059
:1017000090E0A5EAB3E480930E0190930F01A093BB
:101710001001B093110180E090E8A3E9B3E410C098
:1017200080E090E0A6E6B3E480930E0190930F0171
:10173000A0931001B093110180E090E0ADE4B3E418
:1017400080930A0190930B01A0930C01B0930D01BB
:10175000DF91CF911F910F9108951F93CF93DF9346
:101760001F92CDB7DEB7162F83E693E049830E9420
:1017700031044981642F83E693E00E94E80383E605
:1017800093E00E94B40441E0612F83E693E00E945D
:10179000B10483E693E00E949803182F83E693E058
:1017A0000E94B404812F0F90DF91CF911F91089573
:1017B000CF93DF93EC0183E693E00E94270427E5B3
:1017C00040E269E1CE010E94C30A40E269E1CE0134
:1017D0000E94AD0B91E0873509F090E0892FDF91F1
:1017E000CF9108951F93CF93DF931F92CDB7DEB7AC
:1017F000162F83E693E049830E9431044981642FC8
:1018000083E693E00E94E80383E693E00E94B40439
:1018100041E0612F83E693E00E94B10483E693E008
:101820000E949803182F83E693E00E94B404812F4E
:101830000F90DF91CF911F910895CF93DF93EC012B
:1018400083E693E00E94270420E042E06EE1CE01AF
:101850000E94E20A40E06EE1CE010E94F20B80316C
:1018600039F460E270E0CE010E94010B81E001C01A
:1018700080E0DF91CF9108956F927F928F929F9237
:10188000AF92BF92CF92DF92EF92FF920F931F938E
:10189000CF93DF93EC0169E183E693E00E9431048A
:1018A00068EA70E083E693E00E948F0A83E693E0A3
:1018B0000E94B40446E069E183E693E00E94B1042B
:1018C00083E693E00E9490030697D4F383E693E0C7
:1018D0000E949803782E83E693E00E949803682E76
:1018E00083E693E00E949803982E83E693E00E949B
:1018F0009803882E83E693E00E949803D82E83E60F
:1019000093E00E949803C82EB62CA12CA72884E04F
:10191000B594A7948A95E1F7B501882777FD80955E
:10192000982F0E9456256B837C838D839E83F82C91
:10193000E12CE92894E0F594E7949A95E1F7B70152
:10194000882777FD8095982F0E9456256F8378878A
:1019500089879A871C2D00E00D2924E015950795AD
:101960002A95E1F7B801882777FD8095982F0E9486
:1019700056256B877C878D879E87DF91CF911F913E
:101980000F91FF90EF90DF90CF90BF90AF909F901E
:101990008F907F906F9008950F931F93CF93DF9355
:1019A0008C01EB0184E2FB0111928A95E9F7C801F1
:1019B0000E943C0C84E290E0A0E0B0E08883998330
:1019C000AA83BB83F80187859089A189B2898C831A
:1019D0009D83AE83BF8381E090E0A0E0B0E0888784
:1019E0009987AA87BB870E94E21E688B798B8A8BB6
:1019F0009B8B2FE632E143E85AE3F801638174815F
:101A0000858196810E9462262AE038EE4CE151E4FD
:101A10000E9462266C8B7D8B8E8B9F8B2FE632E132
:101A200043E85AE3F80167817085818592850E94B9
:101A300062262AE038EE4CE151E40E946226688F6B
:101A4000798F8A8F9B8F2FE632E143E85AE3F801C2
:101A500063857485858596850E9462262AE038EE26
:101A60004CE151E40E9462266C8F7D8F8E8F9F8F98
:101A700081E0DF91CF911F910F9108956F927F9236
:101A80008F929F92AF92BF92CF92DF92EF92FF928E
:101A90000F931F93CF93DF93EC016EE183E693E006
:101AA0000E94310463E070E083E693E00E948F0AB5
:101AB00083E693E00E94B40446E06EE183E693E09F
:101AC0000E94B10483E693E00E9490030697D4F34A
:101AD00083E693E00E949803682E83E693E00E94D9
:101AE0009803782E83E693E00E949803C82E83E63D
:101AF00093E00E949803D82E83E693E00E94980317
:101B0000882E83E693E00E949803982EB62CA12C91
:101B1000A728B501882777FD8095982F0E94562524
:101B20006B837C838D839E83F82CE12CE928B7019D
:101B3000882777FD8095982F0E9456256F83788798
:101B400089879A871C2D00E00D29B801882777FD29
:101B50008095982F0E9456256B877C878D879E875E
:101B6000DF91CF911F910F91FF90EF90DF90CF9079
:101B7000BF90AF909F908F907F906F9008952F921D
:101B80003F924F925F926F927F928F929F92AF920D
:101B9000BF92CF92DF92EF92FF920F931F93CF935A
:101BA000DF93EC018B0184E2FB0111928A95E9F746
:101BB00049E06EE1CE010E94F20B80FFF3C0CE013E
:101BC0000E943E0D8989882309F483C04B805C8084
:101BD0006D807E808F809884A984BA84CB84DC84D5
:101BE000ED84FE842224239420E030E04FEF54EC77
:101BF000C301B2010E94B72418160CF4212C33241F
:101C0000339420E030E04FEF54E4C301B2010E946E
:101C1000572687FD312C32286624639420E030E07B
:101C20004FEF54E4C501B4010E94572687FD612C93
:101C300063287724739420E030E04FEF54ECC50123
:101C4000B4010E94B72418160CF4712C7628BB241A
:101C5000B39420E030E04FEF54E4C701B6010E9496
:101C6000572687FDB12C7B2851F420E030E04FEF60
:101C700054ECC701B6010E94B724181654F18F85A1
:101C8000988980369105E1F04CF480329105D9F0C5
:101C900080349105F1F460E670E017C0803A910558
:101CA00061F0803C910531F08038910591F460EA53
:101CB00070E00BC060EE70E008C060EC70E005C042
:101CC00060E870E002C060E470E0CE010E94010BA9
:101CD0006FCF84E290E0A0E0B0E0F80180839183D0
:101CE000A283B3838A899B89AC89BD8984839583C8
:101CF000A683B78382E090E0A0E0B0E08087918780
:101D0000A287B3870E94E21EF801608B718B828BE1
:101D1000938BC0900E01D0900F01E0901001F090D5
:101D20001101A70196016B817C818D819E810E94AA
:101D3000BB2420E030E048EC52E40E946226F80127
:101D4000648B758B868B978BA70196016F81788545
:101D500089859A850E94BB2420E030E048EC52E45B
:101D60000E946226F801608F718F828F938F20917D
:101D70000A0130910B0140910C0150910D016B85CE
:101D80007C858D859E850E94BB2420E030E048EC58
:101D900052E40E946226F801648F758F868F978FB8
:101DA00081E001C080E0DF91CF911F910F91FF9002
:101DB000EF90DF90CF90BF90AF909F908F907F90EB
:101DC0006F905F904F903F902F9008952F923F9289
:101DD0004F925F926F927F928F929F92AF92BF923B
:101DE000CF92DF92EF92FF920F931F93CF93DF93E7
:101DF000CDB7DEB7A8970FB6F894DEBF0FBECDBF44
:101E00001C0189829A82AB82BC82CD82DE82EF8203
:101E1000F88609871A872B873C874D875E876F87EF
:101E2000788BC980DA80EB80FC808D819E81AF81C8
:101E3000B885898B9A8BAB8BBC8B89859A85AB8552
:101E4000BC858D8B9E8BAF8BB88F8D859E85AF8526
:101E5000B889898F9A8FAB8FBC8F21968CAD9DAD41
:101E6000AEADBFAD21978D8F9E8FAF8FB8A3259656
:101E70008CAD9DADAEADBFAD259789A39AA3ABA3A5
:101E8000BCA329968CAD9DADAEADBFAD29978DA3FA
:101E90009EA3AFA3B8A72D968CAC9DACAEACBFAC47
:101EA0002D97C1010E94AE1D2D8D3E8D4F8D58A1E5
:101EB000C701B6010E9462262B013C0129A13AA16B
:101EC0004BA15CA169897A898B899C890E946226D1
:101ED0009B01AC01C301B2010E94D9232B013C013B
:101EE0002DA13EA14FA158A56D897E898F89988D1E
:101EF0000E9462269B01AC01C301B2010E94D9235A
:101F00002B013C01A5019401698D7A8D8B8D9C8DEF
:101F10000E9462269B01AC01C301B2010E94D92339
:101F2000D1016D937D938D939C93139729A13AA131
:101F30004BA15CA1C701B6010E9462262B013C01A6
:101F40002D8D3E8D4F8D58A169897A898B899C8909
:101F50000E9462269B01AC01C301B2010E94DA23F8
:101F60002B013C01A50194016D897E898F89988D93
:101F70000E9462269B01AC01C301B2010E94DA23D8
:101F80002B013C012DA13EA14FA158A5698D7A8D51
:101F90008B8D9C8D0E9462269B01AC01C301B20116
:101FA0000E94D923F10164837583868397832DA1D1
:101FB0003EA14FA158A5C701B6010E9462262B0180
:101FC0003C01A501940169897A898B899C890E94C9
:101FD00062269B01AC01C301B2010E94D9232B01EF
:101FE0003C012D8D3E8D4F8D58A16D897E898F8945
:101FF000988D0E9462269B01AC01C301B2010E9430
:10200000DA232B013C0129A13AA14BA15CA1698DE6
:102010007A8D8B8D9C8D0E9462269B01AC01C30141
:10202000B2010E94DA23D10118966D937D938D93AE
:102030009C931B97A5019401C701B6010E946226DB
:102040006B017C012DA13EA14FA158A569897A8918
:102050008B899C890E9462269B01AC01C701B60155
:102060000E94DA236B017C0129A13AA14BA15CA15A
:102070006D897E898F89988D0E9462269B01AC01B3
:10208000C701B6010E94D9236B017C012D8D3E8DC5
:102090004F8D58A1698D7A8D8B8D9C8D0E94622603
:1020A0009B01AC01C701B6010E94DA23F1016487EC
:1020B000758786879787C101A8960FB6F894DEBF0B
:1020C0000FBECDBFDF91CF911F910F91FF90EF9089
:1020D000DF90CF90BF90AF909F908F907F906F9048
:1020E0005F904F903F902F9008952F923F924F9284
:1020F0005F926F927F928F929F92AF92BF92CF9298
:10210000DF92EF92FF920F931F93CF93DF93CDB7A0
:10211000DEB766970FB6F894DEBF0FBECDBF3C01A9
:102120001A012B0104969A8B898B0E94AE1DC30164
:1021300080579F4F0E94AE1DF301E056FF4FFC8B6E
:10214000EB8BCF010E94AE1DC30180559F4F9E8B2C
:102150008D8B0E94AE1DC30180549F4F0E94AE1D07
:10216000812C912C5401750164019501840140E09A
:1021700050E060E87FE3CE0101960E94321D80E1CD
:10218000FE013196A989BA8901900D928A95E1F7ED
:102190009501840140E050E060E87FE3CE010196C4
:1021A0000E94321D80E1FE013196AD89BE89019009
:1021B0000D928A95E1F79501840140E050E060E8D6
:1021C0007FE3CE0101960E94321D80E1FE0131962F
:1021D000AB89BC8901900D928A95E1F7F3012082C9
:1021E00031824282538280E090E0A0E8BFE3848B9A
:1021F000958BA68BB78B66960FB6F894DEBF0FBE95
:10220000CDBFDF91CF911F910F91FF90EF90DF90A5
:10221000CF90BF90AF909F908F907F906F905F9086
:102220004F903F902F9008952F923F924F925F9240
:102230006F927F928F929F92AF92BF92CF92DF92D6
:10224000EF92FF920F931F93CF93DF93CDB7DEB73B
:10225000C454D1400FB6F894DEBF0FBECDBF1C01F1
:10226000C754DF4FC882C95BD040C654DF4FD88205
:10227000CA5BD040C554DF4FE882CB5BD040C4542A
:10228000DF4FF882CC5BD040C354DF4F0883CD5B77
:10229000D040C254DF4F1883CE5BD040C154DF4FD3
:1022A0002883CF5BD040C054DF4F3883C05CD04020
:1022B000CF53DF4F4883C15CD040CE53DF4F5883AC
:1022C000C25CD040CD53DF4F6883C35CD040CC5359
:1022D000DF4F7883C45CD040CE01875A9E4F0E9466
:1022E000511E20E030E0A9010E94B724882311F498
:1022F0000C94181DCE01875A9E4F0E94511E6B01EF
:102300007C01CE0183559F4F0E94291EA701960193
:10231000C75ADE4F688179818A819B81C955D14036
:102320000E94BB24C355DF4F688379838A839B83D4
:10233000CD5AD040A7019601C35ADE4F68817981FA
:102340008A819B81CD55D1400E94BB24CF54DF4F61
:10235000688379838A839B83C15BD040A701960100
:10236000CF59DE4F688179818A819B81C156D140E6
:102370000E94BB24CB54DF4F688379838A839B837D
:10238000C55BD0408CE0FE01E355FF4FDE01A75A4C
:10239000BE4F01900D928A95E1F7CE018B599E4F69
:1023A0000E94511E20E030E0A9010E94B72488233A
:1023B00011F40C94181DCE018B599E4F0E94511E92
:1023C0006B017C01CE018F559F4F0E94291EA701F2
:1023D0009601CB59DE4F688179818A819B81C556F0
:1023E000D1400E94BB24CF55DF4F688379838A8315
:1023F0009B83C15AD040A7019601C759DE4F68811F
:1024000079818A819B81C956D1400E94BB24CB55DA
:10241000DF4F688379838A839B83C55AD040A701A5
:102420009601C359DE4F688179818A819B81CD569F
:10243000D1400E94BB24C755DF4F688379838A83CC
:102440009B83C95AD0408CE0FE01EF55FF4FDE015F
:10245000AB59BE4F01900D928A95E1F7D10150968C
:102460008D909D90AD90BC905397B7FAB094B7F80B
:10247000B0941C96CD90DD90ED90FC901F97F7FAEC
:10248000F094F7F8F09418960D911D912D913C91D0
:102490001B97305814964D915D916D917C911797D3
:1024A000CE018F569F4F0E94321DCB59DE4F888040
:1024B000C556D140CA59DE4F9880C656D140C95939
:1024C000DE4FA880C756D140C859DE4FB880C856E5
:1024D000D140C759DE4FC880C956D140C659DE4FDA
:1024E000D880CA56D140C559DE4FE880CB56D1407E
:1024F000C459DE4FF880CC56D140C359DE4F088115
:10250000CD56D140C259DE4F1881CE56D140C15967
:10251000DE4F2881CF56D140C059DE4F3881C05799
:10252000D14040E050E0BA01CE0101960E945E1D0C
:10253000EDB7FEB770970FB6F894FEBF0FBEEDBFB4
:10254000ADB7BEB7119680E1FE01EF56FF4F019087
:102550000D928A95E1F789809A80AB80BC80CD800E
:10256000DE80EF80F88409851A852B853C854D85B2
:102570005E856F857889CE018F579F4F0E94E60E4A
:102580002DB73EB7205131090FB6F8943EBF0FBEAC
:102590002DBFADB7BEB7119680E1FE01EF57FF4FDB
:1025A00001900D928A95E1F7D10114968C901497C1
:1025B00015969C9015971696AC9016971796BC900A
:1025C00017971896CC9018971996DC9019971A9629
:1025D000EC901A971B96FC901B971C960C911C97DD
:1025E0001D961C911D971E962C911E971F963C912F
:1025F0001F9750964C91509751965C9151975296D7
:102600006C91529753967C91CE018B539F4F0E94B1
:10261000E60E80E1FE01EB53FF4FD101A055BF4F05
:1026200001900D928A95E1F7F101EC54FF4F608122
:102630007181828193813496C080D180E280F38061
:102640000FB6F894DEBF0FBECDBF9B01AC010E9458
:1026500062264B015C01A7019601C701B6010E94E9
:1026600062269B01AC01C501B4010E94DA230E94DD
:10267000C9268B019C01F101E454FF4F80809180B9
:10268000A280B380C12CD12C7601B701A601CE0166
:1026900001960E94321D80E1FE013196D101A056C3
:1026A000BF4F01900D928A95E1F7D10118968D9157
:1026B0009D910D90BC91A02DCB52DF4F88839983C3
:1026C000AA83BB83C55DD040D10150968D919D9169
:1026D0000D90BC91A02DC752DF4F88839983AA83A8
:1026E000BB83C95DD0409C01AD01CB52DF4F6881F7
:1026F00079818A819B81C55DD0400E946226CB5042
:10270000DF4F688379838A839B83C55FD040D10183
:1027100014968D919D910D90BC91A02DC352DF4FC9
:1027200088839983AA83BB83CD5DD040F101448423
:10273000558466847784A3019201BC01CD010E9477
:102740006226C750DF4F688379838A839B83C95F82
:10275000D0409B01AC01CB50DF4F688179818A81E9
:102760009B81C55FD0400E94D9234B015C019B0136
:10277000AC010E94DA23C75ADE4F288139814A8191
:102780005B81C955D1400E94D923C350DF4F688374
:1027900079838A839B83CD5FD040D10158966D9316
:1027A0007D938D939C935B97CB52DF4F288139812A
:1027B0004A815B81C55DD040C352DF4F688179811A
:1027C0008A819B81CD5DD0400E9462266B017C0195
:1027D000C752DF4F288139814A815B81C95DD04072
:1027E000C301B2010E9462269B01AC01C701B60180
:1027F0000E94DA23CB51DF4F688379838A839B83DE
:10280000C55ED0409B01AC010E94DA23C35ADE4F63
:10281000288139814A815B81CD55D1400E94D923DD
:10282000CF5FDE4F688379838A839B83C150D14019
:10283000F101648F758F868F978FA3019201C30179
:10284000B2010E9462266B017C01CB52DF4F2881CE
:1028500039814A815B81C55DD040CA01B9010E94BE
:1028600062269B01AC0160E070E080E09FE30E9483
:10287000D923A70196010E94D923C751DF4F68834E
:1028800079838A839B83C95ED0409B01AC010E94FF
:10289000DA23CF59DE4F288139814A815B81C156C5
:1028A000D1400E94D923CF5EDE4F688379838A832B
:1028B0009B83C151D140D10190966D937D938D93AF
:1028C0009C939397F101EC55FF4F80819181A281F8
:1028D000B381C351DF4F88839983AA83BB83CD5EC5
:1028E000D0409C01AD01BC01CD010E94DA23CF5044
:1028F000DF4F688379838A839B83C15FD040F10176
:10290000E455FF4F80819181A281B381C35FDE4F87
:1029100088839983AA83BB83CD50D1409C01AD01AC
:10292000BC01CD010E94DA23CF51DF4F6883798348
:102930008A839B83C15ED040A701960160E070E06E
:1029400080E09FE30E94D9236B017C01C752DF4FD7
:10295000288139814A815B81C95DD040CA01B901B2
:102960000E9462269B01AC01C701B6010E94D923D7
:102970009B01AC01CF50DF4F688179818A819B81B7
:10298000C15FD0400E9462266B017C01A5019401C9
:10299000CF51DF4F688179818A819B81C15ED040B0
:1029A0000E9462269B01AC01C701B6010E94DA2396
:1029B000CB59DE4F288139814A815B81C556D14090
:1029C0000E94D923CB5FDE4F688379838A839B8300
:1029D000C550D140D10194966D937D938D939C9376
:1029E0009797A3019201CB52DF4F688179818A8149
:1029F0009B81C55DD0400E9462266B017C01C7525D
:102A0000DF4F288139814A815B81C95DD040C35243
:102A1000DF4F688179818A819B81CD5DD0400E94A2
:102A200062269B01AC01C701B6010E94D9239B011C
:102A3000AC01CF50DF4F688179818A819B81C15F72
:102A4000D0400E9462266B017C01CB51DF4F288170
:102A500039814A815B81C55ED040CF51DF4F6881AB
:102A600079818A819B81C15ED0400E9462269B0150
:102A7000AC01C701B6010E94DA23C759DE4F288195
:102A800039814A815B81C956D1400E94D923CB51FB
:102A9000DF4F688379838A839B83C55ED040F101D1
:102AA00060A771A782A793A7CB50DF4F28813981F8
:102AB0004A815B81C55FD040C750DF4F6881798113
:102AC0008A819B81C95FD0400E94DA239B01AC01BF
:102AD000CF50DF4F688179818A819B81C15FD0406F
:102AE0000E9462266B017C01C751DF4F288139812A
:102AF0004A815B81C95ED040CF51DF4F68817981C7
:102B00008A819B81C15ED0400E9462269B01AC01FC
:102B1000C701B6010E94DA23C359DE4F28813981EB
:102B20004A815B81CD56D1400E94D923C751DF4FE6
:102B3000688379838A839B83C95ED040D1019C9648
:102B40006D937D938D939C939F9720E030E040E0C0
:102B500050ECC301B2010E946226C75EDE4F68835B
:102B600079838A839B83C951D140F10160AB71ABFA
:102B700082AB93ABC752DF4F288139814A815B8199
:102B8000C95DD040CA01B9010E94DA23CB50DF4FA2
:102B9000688379838A839B83C55FD040D101D496B3
:102BA0006D937D938D939C93D79720E030E040E028
:102BB00050ECC352DF4F688179818A819B81CD5D62
:102BC000D0400E946226C35EDE4F688379838A8389
:102BD0009B83CD51D140F10160AF71AF82AF93AF14
:102BE000CB52DF4F288139814A815B81C55DD0405E
:102BF000CA01B9010E94DA23C750DF4F6883798385
:102C00008A839B83C95FD040D101DC966D937D930D
:102C10008D939C93DF97F101E05CFF4FDC01CB01CA
:102C200080839183A283B383C352DF4F288139818C
:102C30004A815B81CD5DD040CA01B9010E94DA238F
:102C4000CF5DDE4F688379838A839B83C152D140F5
:102C5000F101EC5BFF4F6083718382839383349631
:102C6000CB50DF4F88819981AA81BB81C55FD0405D
:102C700080839183A283B383A3019201C301B20134
:102C80000E94DA23CB5DDE4F688379838A839B833E
:102C9000C552D140F101E45BFF4F608371838283B1
:102CA00093833496108211821282138220E030E0E6
:102CB00040E850ECCB52DF4F688179818A819B815B
:102CC000C55DD0400E946226C75DDE4F6883798370
:102CD0008A839B83C952D140F101EC5AFF4F608334
:102CE00071838283938320E030E040E850ECC3019D
:102CF000B2010E946226C35DDE4F688379838A83B6
:102D00009B83CD52D140F101E85AFF4F608371831C
:102D1000828393833496108211821282138220E080
:102D200030E040E050ECC35FDE4F688179818A81FA
:102D30009B81CD50D1400E946226A30192010E9446
:102D40006226CF5CDE4F688379838A839B83C1537D
:102D5000D140F101E05AFF4F6083718382839383F6
:102D6000C752DF4F288139814A815B81C95DD040DC
:102D7000CF51DF4F688179818A819B81C15ED040CC
:102D80000E946226CB5EDE4F688379838A839B83B1
:102D9000C551D140F101EC59FF4F608371838283AB
:102DA000938320E030E040E850ECC351DF4F68816E
:102DB00079818A819B81CD5ED0400E9462264B0141
:102DC0005C01C352DF4F288139814A815B81CD5D2F
:102DD000D040CF51DF4F688179818A819B81C15E6C
:102DE000D0400E946226C75FDE4F688379838A8362
:102DF0009B83C950D140A3019201C501B4010E9437
:102E00006226C75FDE4F288139814A815B81C950C4
:102E1000D1400E94D923CB5CDE4F688379838A83BB
:102E20009B83C553D140F101E859FF4F6083718303
:102E300082839383CB52DF4F288139814A815B8122
:102E4000C55DD040CF51DF4F688179818A819B81F8
:102E5000C15ED0400E9462266B017C01C752DF4FE9
:102E6000288139814A815B81C95DD040C501B401A7
:102E70000E946226A70196010E94DA23C75CDE4FFA
:102E8000688379838A839B83C953D140F101E459D4
:102E9000FF4F608371838283938320E030E040E0C2
:102EA00050ECC351DF4F688179818A819B81CD5E6F
:102EB000D0400E9462264B015C01C752DF4F28813F
:102EC00039814A815B81C95DD0400E946226A70199
:102ED00096010E94DA23C35CDE4F688379838A837C
:102EE0009B83CD53D140F101E059FF4F6083718343
:102EF00082839383A3019201CF50DF4F6881798150
:102F00008A819B81C15FD0400E9462266B017C0157
:102F1000C75FDE4F288139814A815B81C950D1402A
:102F20000E94DA23C75FDE4F688379838A839B839D
:102F3000C950D140F101EC58FF4F60837183828307
:102F40009383CB52DF4F288139814A815B81C55DF4
:102F5000D040CF50DF4F688179818A819B81C15FEA
:102F6000D0400E946226C351DF4F688379838A83F1
:102F70009B83CD5ED040CB5EDE4F288139814A8174
:102F80005B81C551D1400E94DA23CF5BDE4F68835D
:102F900079838A839B83C154D140F101E858FF4F64
:102FA0006083718382839383C352DF4F2881398189
:102FB0004A815B81CD5DD040C501B4010E9462268B
:102FC0004B015C01A3019201CF51DF4F68817981F0
:102FD0008A819B81C15ED0400E9462269B01AC0128
:102FE000C501B4010E94DA23CF51DF4F6883798392
:102FF0008A839B83C15ED040F101E458FF4F608318
:103000007183828393833496C082D182E282F38279
:1030100020E030E040E850E4C35FDE4F6881798112
:103020008A819B81CD50D1400E9462264B015C0178
:10303000C752DF4F288139814A815B81C95DD04009
:10304000CF50DF4F688179818A819B81C15FD040F9
:103050000E946226C752DF4F688379838A839B83ED
:10306000C95DD040CB52DF4F288139814A815B81D5
:10307000C55DD040C501B4010E9462269B01AC0130
:10308000C752DF4F688179818A819B81C95DD040B9
:103090000E94D923C752DF4F688379838A839B8339
:1030A000C95DD040F101EC57FF4F6083718382838B
:1030B0009383C352DF4F288139814A815B81CD5D83
:1030C000D040CF50DF4F688179818A819B81C15F79
:1030D000D0400E946226CB52DF4F688379838A8377
:1030E0009B83C55DD040A3019201C501B4010E943C
:1030F00062269B01AC01CB52DF4F688179818A81C6
:103100009B81C55DD0400E94D9232B013C01F10178
:10311000E857FF4F60837183828393833496C35152
:10312000DF4F88819981AA81BB81CD5ED0408083A9
:103130009183A283B38320E030E0A901CF5EDE4F0C
:10314000688179818A819B81C151D1400E94622628
:10315000C352DF4F688379838A839B83CD5DD040E0
:10316000D101A057BF4FCB52DF4FB983A883C55DB4
:10317000D040C350DF4F288139814A815B81CD5FC8
:10318000D040C75EDE4F688179818A819B81C951B9
:10319000D1400E9462264B015C01CF5FDE4F288147
:1031A00039814A815B81C150D140C750DF4F68816E
:1031B00079818A819B81C95FD0400E9462269B01F0
:1031C000AC01C501B4010E94DA23C352DF4F28814C
:1031D00039814A815B81CD5DD0400E94DA234B0169
:1031E0005C01CB5FDE4F288139814A815B81C5500C
:1031F000D140CF5CDE4F688179818A819B81C15348
:10320000D1400E9462269B01AC01C501B4010E941D
:10321000DA234B015C01CB51DF4F288139814A8190
:103220005B81C55ED040C35CDE4F688179818A8155
:103230009B81CD53D1400E9462269B01AC01C50108
:10324000B4010E94DA234B015C01C751DF4F288192
:1032500039814A815B81C95ED040C701B6010E94B5
:1032600062269B01AC01C501B4010E94DA23CB5256
:10327000DF4FE881F981C55DD0406083718382832F
:1032800093835101F4E9AF0EB11CC350DF4F288185
:1032900039814A815B81CD5FD040CB50DF4F68815F
:1032A00079818A819B81C55FD0400E9462266B0133
:1032B0007C01CF5FDE4F288139814A815B81C1501B
:1032C000D140CF5DDE4F688179818A819B81C15277
:1032D000D1400E9462269B01AC01C701B6010E9449
:1032E000DA236B017C01CF5EDE4F288139814A8170
:1032F0005B81C151D140C75DDE4F688179818A8190
:103300009B81C952D1400E9462269B01AC01C7013A
:10331000B6010E94DA236B017C01CB5FDE4F28816E
:1033200039814A815B81C550D140CB5EDE4F6881D7
:1033300079818A819B81C551D1400E9462269B017F
:10334000AC01C701B6010E94DA236B017C01CB51AD
:10335000DF4F288139814A815B81C55ED040C75FDC
:10336000DE4F688179818A819B81C950D1400E945A
:1033700062269B01AC01C701B6010E94DA236B01F2
:103380007C01C751DF4F288139814A815B81C95E49
:10339000D040C752DF4F688179818A819B81C95DA6
:1033A000D0400E9462269B01AC01C701B6010E9479
:1033B000DA23D5016D937D938D939C9313975101DF
:1033C000B8E9AB0EB11CC350DF4F288139814A8167
:1033D0005B81CD5FD040C35EDE4F688179818A8199
:1033E0009B81CD51D1400E9462266B017C01CF5F51
:1033F000DE4F288139814A815B81C150D140CB5059
:10340000DF4F688179818A819B81C55FD0400E94AE
:1034100062269B01AC01C701B6010E94DA236B0151
:103420007C01CF5EDE4F288139814A815B81C151A9
:10343000D140C35DDE4F688179818A819B81CD5205
:10344000D1400E9462269B01AC01C701B6010E94D7
:10345000DA236B017C01CB5FDE4F288139814A8101
:103460005B81C550D140CB5CDE4F688179818A8118
:103470009B81C553D1400E9462269B01AC01C701CC
:10348000B6010E94DA236B017C01CB51DF4F28810A
:1034900039814A815B81C55ED040CF5BDE4F688158
:1034A00079818A819B81C154D1400E9462269B010F
:1034B000AC01C701B6010E94DA236B017C01C75140
:1034C000DF4F288139814A815B81C95ED040C301C9
:1034D000B2010E9462269B01AC01C701B6010E94A5
:1034E000DA23F50160837183828393835101FCE9C0
:1034F000AF0EB11CC350DF4F288139814A815B81F7
:10350000CD5FD040C750DF4F688179818A819B8130
:10351000C95FD0400E9462266B017C01CF5FDE4F05
:10352000288139814A815B81C150D140CB5DDE4F1A
:10353000688179818A819B81C552D1400E9462262F
:103540009B01AC01C701B6010E94DA23C352DF4FD1
:10355000288139814A815B81CD5DD0400E94DA2388
:103560006B017C01CB5FDE4F288139814A815B8111
:10357000C550D140C75CDE4F688179818A819B81CB
:10358000C953D1400E9462269B01AC01C701B6011C
:103590000E94DA236B017C01CB51DF4F28813981F6
:1035A0004A815B81C55ED040CF51DF4F6881798110
:1035B0008A819B81C15ED0400E9462269B01AC0142
:1035C000C701B6010E94DA236B017C01C751DF4FAE
:1035D000288139814A815B81C95ED040C351DF4F68
:1035E000688179818A819B81CD5ED0400E9462266C
:1035F0009B01AC01C701B6010E94DA23D5016D938E
:103600007D938D939C931397CB52DF4F8881998143
:10361000C55DD0400E94C01D2B013C01812C912C26
:1036200054017501640195018401B501A401CE0125
:1036300041960E94321DFE0171967F0100E010E06C
:10364000CB52DF4FE881F981C55DD040E00FF11F1B
:10365000A301920160817181828193810E94BB24C8
:10366000D7016D937D938D939D937D010C5F1F4FCB
:103670000031110529F780E1FE017196CB52DF4F31
:10368000A881B981C55DD04001900D928A95E1F77E
:10369000F101448855886688778877FA709477F8BE
:1036A0007094812C912C5401750164019501840161
:1036B000B501A401CE018F589F4F0E94321D9E017B
:1036C0002F583F4F790100E010E0CB52DF4FE881E7
:1036D000F981C55DD040E00FF11FA3019201608127
:1036E0007181828193810E946226D7016D937D93BF
:1036F0008D939D937D010C5F1F4F0031110529F7BC
:103700003E01B1E36B0E711CC754DF4F8880C95B6B
:10371000D040C654DF4F9880CA5BD040C554DF4FBD
:10372000A880CB5BD040C454DF4FB880CC5BD04086
:10373000C354DF4FC880CD5BD040C254DF4FD88028
:10374000CE5BD040C154DF4FE880CF5BD040C05447
:10375000DF4FF880C05CD040CF53DF4F0881C15CA1
:10376000D040CE53DF4F1881C25CD040CD53DF4FE5
:103770002881C35CD040CC53DF4F3881C45CD0403B
:1037800040E050E0BA01C3010E945E1DEDB7FEB7F4
:1037900070970FB6F894FEBF0FBEEDBFADB7BEB7C2
:1037A000119680E1F101349601900D928A95E1F72E
:1037B00089A89AA8ABA8BCA8CDA8DEA8EFA8F8ACA9
:1037C00009AD1AAD2BAD3CAD4DAD5EAD6FAD2196E3
:1037D0007FAD2197CE0181960E94E60E812C912C1F
:1037E00054017501640195018401B501A401CE0164
:1037F00001960E94321D8E010F5D1F4F0FB6F89487
:10380000DEBF0FBECDBFCE0101967C01D8016D9108
:103810007D918D919D918D0120E030E040E05FE34E
:103820000E946226F70161937193819391937F01C6
:103830000615170559F780E1FE01EF58FF4FDE012D
:10384000AF5ABF4F01900D928A95E1F7CE018F5B81
:103850009F4F0E94AE1D9E012F5A3F4F7901CE010E
:103860008F5B9F4F6C01490190E1890E911CDE0135
:1038700011965D01F70161917191819191917F01A3
:10388000D5012D913D914D915D915D010E94DA230D
:10389000F60161937193819391936F01E814F90498
:1038A00049F72101F0EC4F0E511C80E1FE01EF5B66
:1038B000FF4FD20101900D928A95E1F7D1018D91D0
:1038C0009D910D90BC91A02DCB52DF4F88839983A1
:1038D000AA83BB83C55DD040812C912C5401750116
:1038E000640195018401B501A401CE018F599F4F58
:1038F0000E94321DFE01EF59FF4F7F0100E010E0F2
:10390000F201E00FF11FCB52DF4F288139814A814C
:103910005B81C55DD04060817181828193810E940D
:103920006226D7016D937D938D939D937D010C5FEE
:103930001F4F0031110521F780E1FE01EF59FF4FC4
:10394000DE01D19601900D928A95E1F7CE01819624
:103950000E94AE1DFE01B1967F0100E010E0210142
:10396000F4E04F0E511CD3016D917D918D919D918D
:103970003D01F201E00FF11F20813181428153812D
:103980000E94DA23F70161937193819391937F01F0
:103990000C5F1F4F0031110531F780E1FE01B19638
:1039A000D20101900D928A95E1F7C2010E94C01DDB
:1039B000CB52DF4F688379838A839B83C55DD04078
:1039C000812C912C54017501640195018401B5018C
:1039D000A401CE0101960E94321D9E012F5F3F4F30
:1039E000790100E010E0F201E00FF11FCB52DF4F50
:1039F000288139814A815B81C55DD04060817181B8
:103A0000828193810E94BB24D7016D937D938D9316
:103A10009D937D010C5F1F4F0031110521F780E15F
:103A2000FE013196D101149601900D928A95E1F72D
:103A3000CC5BDE4F0FB6F894DEBF0FBECDBFDF917B
:103A4000CF911F910F91FF90EF90DF90CF90BF909B
:103A5000AF909F908F907F906F905F904F903F902E
:103A60002F9008958F929F92AF92BF92CF92DF9244
:103A7000EF92FF920F931F93CF93DF93CDB7DEB7F3
:103A8000FC014083518362837383048315832683FF
:103A90003783C086D186E286F38684869586A6869D
:103AA000B786DF91CF911F910F91FF90EF90DF903C
:103AB000CF90BF90AF909F908F9008958F929F92DC
:103AC000AF92BF92CF92DF92EF92FF920F931F932C
:103AD000CF93DF93CDB7DEB72C970FB6F894DEBF48
:103AE0000FBECDBFFC0189829A82AB82BC82CD829F
:103AF000DE82EF82F88609871A872B873C8740830E
:103B000051836283738349815A816B817C814483B1
:103B10005583668377834D815E816F817885408789
:103B200051876287738749855A856B857C85448771
:103B30005587668777872C960FB6F894DEBF0FBE41
:103B4000CDBFDF91CF911F910F91FF90EF90DF904C
:103B5000CF90BF90AF909F908F900895FC011082FE
:103B600011821282138214821582168217821086A5
:103B70001186128613861486158616861786089572
:103B80004F925F926F927F928F929F92AF92BF926D
:103B9000CF92DF92EF92FF92CF93DF9300D000D0CD
:103BA000CDB7DEB7FC016081718182819381848011
:103BB0009580A680B780C084D184E284F384448455
:103BC0005584668477849B01AC010E9462266983D8
:103BD0007A838B839C83A5019401C501B4010E9463
:103BE00062269B01AC0169817A818B819C810E9454
:103BF000DA234B015C01A7019601C701B6010E94BF
:103C000062269B01AC01C501B4010E94DA236B015D
:103C10007C01A3019201C301B2010E9462269B01B3
:103C2000AC01C701B6010E94DA230F900F900F90EC
:103C30000F90DF91CF91FF90EF90DF90CF90BF90EA
:103C4000AF909F908F907F906F905F904F900C946B
:103C5000C926FC01108211821282138214821582FD
:103C60001682178210861186128613860895CF92C7
:103C7000DF92EF92FF920F931F93FC0140835183D9
:103C8000628373830483158326833783C086D1863A
:103C9000E286F3861F910F91FF90EF90DF90CF9017
:103CA00008954F925F926F927F928F929F92AF9200
:103CB000BF92CF92DF92EF92FF92FC0160817181FF
:103CC0008281938184809580A680B780C084D184CE
:103CD000E284F3849B01AC010E9462262B013C012B
:103CE000A5019401C501B4010E9462269B01AC01AB
:103CF000C301B2010E94DA234B015C01A7019601C6
:103D0000C701B6010E9462269B01AC01C501B40146
:103D10000E94DA23FF90EF90DF90CF90BF90AF909A
:103D20009F908F907F906F905F904F900C94C926DA
:103D30001F920F920FB60F9211242F933F938F93E0
:103D40009F93AF93BF938091240490912504A091F9
:103D50002604B09127043091230423E0230F2D374C
:103D600020F40196A11DB11D05C026E8230F02967F
:103D7000A11DB11D20932304809324049093250456
:103D8000A0932604B09327048091280490912904DD
:103D9000A0912A04B0912B040196A11DB11D80931E
:103DA000280490932904A0932A04B0932B04BF9174
:103DB000AF919F918F913F912F910F900FBE0F90D8
:103DC0001F9018952FB7F8946091240470912504E2
:103DD00080912604909127042FBF08953FB7F8944F
:103DE0008091280490912904A0912A04B0912B0479
:103DF00026B5A89B05C02F3F19F00196A11DB11D46
:103E00003FBF6627782F892F9A2F620F711D811D62
:103E1000911D42E0660F771F881F991F4A95D1F7C1
:103E200008958F929F92AF92BF92CF92DF92EF92BE
:103E3000FF926B017C010E94EE1E4B015C01C114DC
:103E4000D104E104F104F1F00E94D8230E94EE1E97
:103E5000681979098A099B09683E734081059105B3
:103E600070F321E0C21AD108E108F10888EE880E4B
:103E700083E0981EA11CB11CC114D104E104F1041B
:103E800029F7DDCFFF90EF90DF90CF90BF90AF90FC
:103E90009F908F900895789484B5826084BD84B596
:103EA000816084BD85B5826085BD85B5816085BD35
:103EB000EEE6F0E0808181608083E1E8F0E010824E
:103EC000808182608083808181608083E0E8F0E08F
:103ED000808181608083E1EBF0E080818460808379
:103EE000E0EBF0E0808181608083EAE7F0E08081B0
:103EF0008460808380818260808380818160808310
:103F00008081806880831092C1000895833081F0A1
:103F100028F4813099F08230A1F008958730A9F01B
:103F20008830B9F08430D1F4809180008F7D03C057
:103F3000809180008F7780938000089584B58F777B
:103F400002C084B58F7D84BD08958091B0008F77C5
:103F500003C08091B0008F7D8093B00008950F93CF
:103F60001F93CF93DF931F92CDB7DEB7282F30E09A
:103F7000F901EE52FF4F8491F901EA51FF4F14917C
:103F8000F901E650FF4F04910023C9F0882321F086
:103F900069830E94861F6981E02FF0E0EE0FFF1F0A
:103FA000E25FFE4FA591B4919FB7F8948C91611197
:103FB00003C01095812301C0812B8C939FBF0F906C
:103FC000DF91CF911F910F9108950E947228FC01FB
:103FD000818D228D90E0805C9F4F821B91098F73B1
:103FE00099270895FC01918D828D981731F0828D6B
:103FF000E80FF11D858D90E008958FEF9FEF0895F4
:10400000FC01918D828D981761F0828DDF01A80FE0
:10401000B11D5D968C91928D9F5F9F73928F90E002
:1040200008958FEF9FEF089584E891E2892B49F07E
:1040300080E090E0892B29F00E94842181110C946A
:1040400000000895FC01848DDF01A80FB11DA35A63
:10405000BF4F2C91848D90E001968F739927848FA8
:10406000A689B7892C93A089B1898C9180648C939F
:10407000938D848D981306C00288F389E02D80818A
:104080008F7D80830895CF93DF93EC01888D882303
:10409000C9F0EA89FB89808185FD05C0A889B989B5
:1040A0008C9186FD0FC00FB607FCF5CF808185FF90
:1040B000F2CFA889B9898C9185FFEDCFCE010E94FE
:1040C0002220E7CFDF91CF910895CF92DF92FF9228
:1040D0000F931F93CF93DF931F92CDB7DEB76C0181
:1040E00081E0D60158968C9358975B969C915B978C
:1040F0005C968C915C97981307C05096ED91FC915B
:104100005197808185FD2EC0F601038D10E00F5F71
:104110001F4F0F731127F02EF601848DF81211C076
:104120000FB607FCF9CFD6015096ED91FC9151974F
:10413000808185FFF1CFC60169830E9422206981B9
:10414000EBCF838DE80FF11DE35AFF4F6083D6015B
:104150005B960C935B975296ED91FC9153978081FF
:1041600080620CC0D6015696ED91FC915797608302
:104170005096ED91FC91519780818064808381E01D
:1041800090E00F90DF91CF911F910F91FF90DF9002
:10419000CF900895BF92CF92DF92EF92FF92CF938C
:1041A000DF93EC016A017B01B22EE889F98982E094
:1041B0008083411581EE580761057105A1F060E02B
:1041C00079E08DE390E0A70196010E94232721501A
:1041D000310941095109569547953795279521157C
:1041E00080E1380798F0E889F989108260E874E87E
:1041F0008EE190E0A70196010E942327215031090A
:10420000410951095695479537952795EC85FD85C8
:104210003083EE85FF852083188EEC89FD89B0827E
:10422000EA89FB89808180618083EA89FB898081BA
:1042300088608083EA89FB89808180688083EA893D
:10424000FB8980818F7D8083DF91CF91FF90EF90FC
:10425000DF90CF90BF9008951F920F920FB60F92EC
:1042600011242F938F939F93EF93FF93E0913C043E
:10427000F0913D048081E0914204F091430482FD7D
:1042800012C09081809145048F5F8F732091460406
:10429000821751F0E0914504F0E0E45DFB4F958F0B
:1042A0008093450401C08081FF91EF919F918F9190
:1042B0002F910F900FBE0F901F9018951F920F9285
:1042C0000FB60F9211242F933F934F935F936F93E9
:1042D0007F938F939F93AF93BF93EF93FF938CE262
:1042E00094E00E942220FF91EF91BF91AF919F91A6
:1042F0008F917F916F915F914F913F912F910F908F
:104300000FBE0F901F9018958CE294E00E94E71F5B
:1043100021E0892B09F420E0822F089510922F04C8
:1043200010922E0488EE93E0A0E0B0E08093300479
:1043300090933104A0933204B09333048BEF91E057
:1043400090932D0480932C0485EC90E09093390495
:104350008093380484EC90E090933B0480933A047B
:1043600080EC90E090933D0480933C0481EC90E0DD
:1043700090933F0480933E0482EC90E0909341043C
:104380008093400486EC90E0909343048093420431
:10439000109245041092460410924704109248046B
:1043A000089508950E944B1F0E94D1210E94D700BA
:1043B000C4E1D0E20E9416012097E1F30E9414208C
:1043C000F9CF0C94E327CF92DF92EF92FF920F93F5
:1043D0001F93CF93DF937C016A01EB0100E010E0B3
:1043E0000C151D0571F06991D701ED91FC910190BB
:1043F000F081E02DC7010995892B19F00F5F1F4F40
:10440000EFCFC801DF91CF911F910F91FF90EF90F7
:10441000DF90CF9008956115710581F0DB010D905B
:104420000020E9F7AD0141505109461B570BDC0153
:10443000ED91FC910280F381E02D099480E090E001
:1044400008950C940B22DC01ED91FC910190F08118
:10445000E02D099467E072E00C940B220F931F93F8
:10446000CF93DF93EC010E940B228C01CE010E94BE
:104470002A22800F911FDF91CF911F910F910895F4
:104480008F929F92AF92BF92DF92EF92FF920F9323
:104490001F93CF93DF93CDB7DEB7A1970FB6F894F4
:1044A000DEBF0FBECDBF7C01F42FD52ECB0119A2EC
:1044B000223008F42AE08E010F5D1F4F822E912CCE
:1044C000A12CB12C6F2F7D2DA50194010E942327D3
:1044D000F22FD32ECA01015011096A3014F4E0E31F
:1044E00001C0E7E3E60FD801EC93232B242B252B07
:1044F00049F7B801C7010E940B22A1960FB6F894A4
:10450000DEBF0FBECDBFDF91CF911F910F91FF9006
:10451000EF90DF90BF90AF909F908F900895CF92D3
:10452000DF92EF92FF920F931F93CF93DF93EC01F3
:104530006A017B012115310579F4E881F981019047
:10454000F081E02D642FDF91CF911F910F91FF90AB
:10455000EF90DF90CF9009942A303105E9F477FF8E
:104560001AC06DE20E9423228C0144275527BA010C
:104570004C195D096E097F092AE0CE010E94402294
:10458000800F911FDF91CF911F910F91FF90EF90BE
:10459000DF90CF9008952AE0B701A601CE01DF9108
:1045A000CF911F910F91FF90EF90DF90CF900C94DF
:1045B00040224F925F926F927F928F929F92AF9222
:1045C000BF92CF92DF92EF92FF920F931F93CF9300
:1045D000DF93EC016A017B01B22E9A01AB01C701A6
:1045E000B6010E940A27882319F06AE072E027C00A
:1045F00026013701E89477F82FEF3FEF4FE75FE7A9
:10460000C301B2010E940A2781110DC02FEF3FEFB5
:104610004FE75FE7C301B2010E94B72418161CF4EC
:104620006EE072E00CC02FEF3FEF4FE75FE4C70191
:10463000B6010E9457261816ACF462E172E0CE0172
:10464000DF91CF911F910F91FF90EF90DF90CF906E
:10465000BF90AF909F908F907F906F905F904F90A2
:104660000C940B222FEF3FEF4FE75FECC701B60131
:104670000E94B72487FDE1CF20E030E0A901C70107
:10468000B6010E94B72487FF0AC06DE2CE010E94E6
:1046900023228C01F7FAF094F7F8F09402C000E0BE
:1046A00010E0A12C60E070E080E09FE3AB1441F0EB
:1046B00020E030E040E251E40E94BB24A394F6CF16
:1046C0009B01AC01C701B6010E94DA236B017C019A
:1046D0000E9428252B013C010E9454259B01AC011E
:1046E000C701B6010E94D9236B017C012AE0B30106
:1046F000A201CE010E944022080F191FBB2039F0F1
:1047000066E172E0CE010E940B22080F191F7B2C7C
:10471000772041F120E030E040E251E4C701B601EA
:104720000E9462266B017C010E9423254B01AA2472
:1047300097FCA094BA2C2AE030E0B501A401CE0188
:104740000E948F22080F191FC501B4010E9456252F
:104750009B01AC01C701B6010E94D9236B017C010A
:104760007A94D6CFC801DF91CF911F910F91FF901E
:10477000EF90DF90CF90BF90AF909F908F907F9001
:104780006F905F904F9008950C94D9220F931F93D0
:10479000CF93DF93EC010E94D9228C01CE010E94BD
:1047A0002A22800F911FDF91CF911F910F910895C1
:1047B00008955058BB27AA270ED03FC230D230F000
:1047C00035D220F031F49F3F11F41EF4EFC10EF406
:1047D000E095E7FBE5C1E92F41D280F3BA17620704
:1047E00073078407950718F071F49EF559C20EF40B
:1047F000E0950B2EBA2FA02D0B01B90190010C01F1
:10480000CA01A0011124FF27591B99F0593F50F408
:10481000503E68F11A16F040A22F232F342F442760
:10482000585FF3CF469537952795A795F040539558
:10483000C9F77EF41F16BA0B620B730B840BBAF028
:104840009150A1F0FF0FBB1F661F771F881FC2F793
:104850000EC0BA0F621F731F841F48F487957795A7
:104860006795B795F7959E3F08F0B3CF9395880F5E
:1048700008F09927EE0F9795879508959F939F7756
:10488000EEE389379E0720F4E8E6F0E0B7D109C0EF
:1048900048D19058A2EA2AED3FE049EC5FE39BDF64
:1048A000CCD10F9007FC90580895B9D158F080E80A
:1048B00091E009F49EEFBAD128F040E851E059F4B4
:1048C0005EEF09C073C1ECC1E92FE078C7D168F38E
:1048D000092E052AC1F3261737074807590738F06C
:1048E0000E2E07F8E02569F0E025E0640AC0EF63CA
:1048F00007F8009407FADB01B9019D01DC01CA0148
:10490000AD01EF9347D099D10AD05F91552331F093
:104910002BED3FE049E450FD49EC4CCF0895DF9387
:10492000DD27B92FBF7740E85FE316161706480763
:104930005B0710F4D92FBFD19F938F937F936F9311
:1049400066D2ECE7F0E035D178D12F913F914F91CD
:104950005F91C4D1DD2349F09058A2EA2AED3FE0EF
:1049600049EC5FE3D0785D2736DFDF9166C1F4D094
:1049700008F481E008950CD060C158D140F04FD1C7
:1049800030F021F45F3F19F00BC151118AC10EC103
:1049900065D198F39923C9F35523B1F3951B550BB2
:1049A000BB27AA2762177307840738F09F5F5F4F02
:1049B000220F331F441FAA1FA9F333D00E2E3AF043
:1049C000E0E830D091505040E695001CCAF729D05D
:1049D000FE2F27D0660F771F881FBB1F26173707AC
:1049E0004807AB07B0E809F0BB0B802DBF01FF27DC
:1049F00093585F4F2AF09E3F510568F0D1C051C1D6
:104A00005F3FECF3983EDCF3869577956795B79515
:104A1000F7959F5FC9F7880F911D9695879597F930
:104A20000895E1E0660F771F881FBB1F62177307A9
:104A30008407BA0720F0621B730B840BBA0BEE1FBE
:104A400088F7E095089504D06894B1112AC10895BB
:104A50000DD188F09F5790F0B92F9927B751A0F04A
:104A6000D1F0660F771F881F991F1AF0BA95C9F702
:104A700012C0B13081F014D1B1E0089511C1672F97
:104A8000782F8827B85F39F0B93FCCF386957795B2
:104A90006795B395D9F73EF490958095709561959B
:104AA0007F4F8F4F9F4F0895E89409C097FB3EF4C6
:104AB00090958095709561957F4F8F4F9F4F99236B
:104AC000A9F0F92F96E9BB279395F69587957795E9
:104AD0006795B795F111F8CFFAF4BB0F11F460FFA9
:104AE0001BC06F5F7F4F8F4F9F4F16C0882311F001
:104AF00096E911C0772321F09EE8872F762F05C015
:104B0000662371F096E8862F70E060E02AF09A95AF
:104B1000660F771F881FDAF7880F9695879597F9A4
:104B20000895DF93CF931F930F938B01EC01E9EA74
:104B3000F0E03FD082D09801AE018B01EC0160E043
:104B400070E080E89FE335DE24D19801AE010F913B
:104B50001F91CF91DF91C2C0990F0008550FAA0B8A
:104B6000E0E8FEEF16161706E807F907C0F0121680
:104B70001306E407F50798F0621B730B840B950B83
:104B800039F40A2661F0232B242B252B21F40895D8
:104B90000A2609F4A140A6958FEF811D811D089575
:104BA00097F99F6780E870E060E008959FEF80ECE0
:104BB0000895DF93CF931F930F93FF92EF92DF92AD
:104BC0007B018C01689405C0DA2EEF0187D0FE01CD
:104BD000E894A5912591359145915591AEF3EF015A
:104BE000FADDFE019701A801DA9479F7DF90EF90E2
:104BF000FF900F911F91CF91DF9108959F938F9315
:104C00007F936F93FF93EF939B01AC015BD0EF9188
:104C1000FF91CFDF2F913F914F915F9153C00024BF
:104C20000A941616170618060906089500240A9411
:104C300012161306140605060895092E0394000C97
:104C400011F4882352F0BB0F40F4BF2B11F460FF26
:104C500004C06F5F7F4F8F4F9F4F089557FD90584F
:104C6000440F551F59F05F3F71F04795880F97FB30
:104C7000991F61F09F3F79F08795089512161306EA
:104C80001406551FF2CF4695F1DF08C01616170619
:104C90001806991FF1CF869571056105089408954E
:104CA000E894BB2766277727CB0197F9089554DF4F
:104CB00008F48FEF08959B01AC0160E070E080E89C
:104CC0009FE359CE0BD0B9CFAADF28F0AFDF18F0A1
:104CD000952309F065CF6ACF1124E3CFBFDFA0F39E
:104CE000959FD1F3950F50E0551F629FF001729F81
:104CF000BB27F00DB11D639FAA27F00DB11DAA1FA0
:104D0000649F6627B00DA11D661F829F2227B00DEC
:104D1000A11D621F739FB00DA11D621F839FA00D77
:104D2000611D221F749F3327A00D611D231F849FC7
:104D3000600D211D822F762F6A2F11249F5750401E
:104D40008AF0E1F088234AF0EE0FFF1FBB1F661FB9
:104D5000771F881F91505040A9F79E3F510570F072
:104D60001FCF9FCF5F3FECF3983EDCF3869577959E
:104D70006795B795F795E7959F5FC1F7FE2B880F6D
:104D8000911D9695879597F9089511F40EF40ECF1D
:104D900045C06CDFD0F39923D9F3CEF39F57550B61
:104DA00087FF4AD00024A0E640EA9001805856953B
:104DB000979528F4805C660F771F881F20F02617D0
:104DC0003707480730F4621B730B840B2029312905
:104DD0004A2BA69517940794202531254A2758F782
:104DE000660F771F881F20F026173707480730F413
:104DF000620B730B840B200D311D411DA09581F7B3
:104E0000B901842F9158880F9695879508959B0135
:104E1000AC0158CFA1DE880B990B08959F3F31F06C
:104E2000915020F4879577956795B795880F911DD8
:104E30009695879597F9089591505040660F771F82
:104E4000881FD2F70895A1E21A2EAA1BBB1BFD01F1
:104E50000DC0AA1FBB1FEE1FFF1FA217B307E40759
:104E6000F50720F0A21BB30BE40BF50B661F771FB1
:104E7000881F991F1A9469F7609570958095909591
:104E80009B01AC01BD01CF010895EE0FFF1F0590FE
:104E9000F491E02D0994CF93DF938230910510F4C3
:104EA00082E090E0E091CB04F091CC0420E030E08F
:104EB000A0E0B0E0309739F140815181481759079F
:104EC000B8F04817590771F482819381109729F03F
:104ED00013969C938E9312972CC09093CC0480933E
:104EE000CB0427C02115310531F04217530718F0C4
:104EF000A901DB0101C0EF019A01BD01DF010280C0
:104F0000F381E02DD7CF21153105F9F0281B390B9E
:104F10002430310580F48A819B816115710521F06F
:104F2000FB019383828304C09093CC048093CB04D1
:104F3000FE01329644C0FE01E20FF31F819391936C
:104F400022503109398328833AC02091C904309115
:104F5000CA04232B41F420910201309103013093C4
:104F6000CA042093C9042091000130910101211548
:104F7000310541F42DB73EB7409104015091050130
:104F8000241B350BE091C904F091CA04E217F30722
:104F9000A0F42E1B3F0B2817390778F0AC014E5FA9
:104FA0005F4F2417350748F04E0F5F1F5093CA0418
:104FB0004093C9048193919302C0E0E0F0E0CF01F7
:104FC000DF91CF910895CF93DF93009709F487C0C5
:104FD000FC01329713821282C091CB04D091CC0491
:104FE000209781F420813181280F391F8091C904D5
:104FF0009091CA048217930779F5F093CA04E0935D
:10500000C9046DC0DE0120E030E0AE17BF0750F4E8
:1050100012964D915C9113979D014115510509F12F
:10502000DA01F3CFB383A28340815181840F951FAE
:105030008A179B0771F48D919C911197840F951F8E
:1050400002969183808312968D919C9113979383FE
:1050500082832115310529F4F093CC04E093CB042D
:105060003EC0D9011396FC93EE9312974D915D913A
:10507000A40FB51FEA17FB0779F480819181840F93
:10508000951F0296D90111969C938E9382819381EC
:1050900013969C938E931297E0E0F0E08A819B81B7
:1050A000009719F0FE01EC01F9CFCE01029628819C
:1050B0003981820F931F2091C9043091CA042817A7
:1050C000390769F4309729F41092CC041092CB047C
:1050D00002C013821282D093CA04C093C904DF9124
:1050E000CF91089581E090E0F8940C948628FB011C
:1050F000DC014150504048F001900D920020C9F76A
:1051000001C01D9241505040E0F7089511E0CEE1FA
:10511000D1E004C0FE010E9447272296C032D10789
:06512000C9F7F894FFCF6F
:105126000000CD0480000000484300007544008064
:105136008944414852532054657374004F6F6F7011
:10514600732C206E6F204C534D33303320646574BE
:105156006563746564202E2E2E20436865636B207C
:10516600796F757220776972696E6721004F6F6F6C
:1051760070732C206E6F204C3347443230206465A8
:10518600746563746564202E2E2E20436865636BF8
:1051960020796F757220776972696E67206F722049
:1051A60049324320414444522100596177203A0054
:1051B6002050697463683A200020526F6C6C3A2064
:1051C6000000000000BA00C100C000E51FE51F0096
:1051D600000000E803BB0390039803AB03BA034C3B
:1051E60033474432300000000000D106D706CE0611
:1051F600CB07DE064C534D3330330000000000FD74
:10520600090A0AC000CC0C110A00000000F70903C5
:105216000AF409BF0D4E0A000000006520E321E7ED
:105226001F0020F21F43200D0A006E616E00696E9A
:0852360066006F7666002E0091
:00000001FF
