:100000000C949D010C94CE010C94CE010C94CE0165
:100010000C94CE010C94CE010C94CE010C94CE0124
:100020000C94CE010C94CE010C94CE010C94CE0114
:100030000C94CE010C94CE010C94CE010C94CE0104
:100040000C94CE010C94CE010C94CE010C94CE01F4
:100050000C94CE010C94CE010C94CE010C94B41FE0
:100060000C94CE010C94C9220C94FF220C94CE0166
:100070000C94CE010C94CE010C94CE010C94CE01C4
:100080000C94CE010C94CE010C94CE010C94CE01B4
:100090000C94CE010C94CE010C94CE010C94B706B6
:1000A0000C94CE010C94CE010C94CE010C94CE0194
:1000B0000C94CE010C94CE010C94CE010C94CE0184
:1000C0000C94CE010C94CE010C94CE010C94CE0174
:1000D0000C94CE010C94CE010C94CE010C94CE0164
:1000E0000C94CE01E220E520D420D820DE201C2173
:1000F000E920ED20F320F720FB2001210521092133
:100100001C210F2113211721036EDB363D9A99998B
:10011000993DABAAAA2A3E000000803F084AD73B7F
:100120003BCE016E84BCBFFDC12F3D6C74319ABDC6
:1001300056833DDA3D00C77F11BED9E4BB4C3E91EA
:100140006BAAAABE000000803F072C7AA5BA6CC536
:1001500090DA3B9365FC8BBC53F810FD3C569283C0
:100160004DBD879D3AB63DCBC9BF5BBE73DA0FC9A3
:100170003F000C94F1070C94ED200C94E5080C94CE
:10018000E5200C94D8200C9413210C9453210C944A
:1001900029230C9402220C9433230C94F8070C941A
:1001A000E8070C9417210C94C1040C94F7200C94CC
:1001B000A4040C94F3200C946C040C941D0B0C946C
:1001C00082210C94D0040C94A6040C94EB070C949C
:1001D000FE040C9460210C94E9200C94E2200C9411
:1001E0006E210C94D0010C94DB0E0C94FB200C942B
:1001F000DE200C94D7010C94D1040C942B0B0C949E
:1002000088230C94E80D0C94240B0C94170B0C947D
:1002100055210C94680B0C94AE040C94E0210C94C2
:100220000E0B0C9401210C94110B0C94CD050C9425
:10023000D4200C940F210C9409210C9405210C94CA
:100240001C210C94D60100000A0B02090C0D0E08AB
:10025000070304010000000000000000000000008F
:10026000000000000000000000000000000000008E
:10027000000012111000000000000000000000004B
:10028000000000000000000000000000010210203B
:1002900020080810204010204080020102010804BC
:1002A0000201010204081020408080402010080450
:1002B00002018004020180402010080402010804A9
:1002C00002010102040810204080010204081020ED
:1002D0004080050505050705080808080202020216
:1002E0000A0A0808040404040101010101010101D2
:1002F0000303030303030303040707070C0C0C0C9D
:100300000C0C0C0C02020202060606060606060685
:100310000B0B0B0B0B0B0B0B000022002500280016
:100320002B002E00310034000201000005010801FD
:100330000B016C04CD053323A40411241FBECFEFA1
:10034000D1E2DEBFCDBF00E00CBF13E0A0E0B2E021
:10035000E2E8F4E500E00BBF02C007900D92A8317F
:10036000B107D9F725E0A8E1B3E001C01D92AD3C8B
:10037000B207E1F713E0C8E3D3E000E006C022973C
:100380000109FE010BBF0E94F028C233D10780E0B3
:100390000807A9F70E9477230C942F2A0C940000D9
:1003A00025EA32E0FC01318320830895089525EA8F
:1003B00032E0FC01318320830C94862385EA92E0AD
:1003C000909361038093600390936B0380936A031F
:1003D0009093810380938003089526E040E052ECDF
:1003E00061E070E08CE295E00E94672262E172E0D9
:1003F0008CE295E00E94D32369E073E08CE295E003
:100400000E94D32380E893E00E94F40C811107C07E
:100410006CE172E08CE295E00E94D323FFCF8AE684
:1004200093E00E94390D811107C06CE172E08CE20B
:1004300095E00E94D323FFCF6AEF70E080E693E05F
:100440000E94A808811107C06DE472E08CE295E07B
:100450000E94C623FFCF08954F925F926F927F92C2
:100460008F929F92AF92BF92CF92DF92EF92FF92C4
:100470000F931F93CF93DF93CDB7DEB76C970FB673
:10048000F894DEBF0FBECDBF6CE373E080E893E06D
:100490000E94E80DC0905803D0905903E0905A0391
:1004A000F0905B0300915403109155032091560383
:1004B0003091570340915003509151036091520382
:1004C00070915303CE0101960E94531F8CE0FE01F0
:1004D0003196A0E3B3E001900D928A95E1F76CE3C9
:1004E00073E08AE693E00E94DB0EC0905803D09040
:1004F0005903E0905A03F0905B030091540310916C
:100500005503209156033091570340915003509169
:1005100051036091520370915303CE0101960E94E2
:10052000531F8CE0FE013196A8E1B3E001900D92DB
:100530008A95E1F76CE373E080E693E00E94E508BA
:10054000C0905803D0905903E0905A03F0905B0399
:100550000091540310915503209156033091570395
:100560004091500350915103609152037091530395
:10057000CE0101960E94531F8CE0FE013196A4E249
:10058000B3E001900D928A95E1F78DB79EB70C9775
:100590000FB6F8949EBF0FBE8DBFADB7BEB7119614
:1005A0008CE0E8E1F3E001900D928A95E1F7ADB7B8
:1005B000BEB71C970FB6F894BEBF0FBEADBF119665
:1005C0008CE0E0E3F3E001900D928A95E1F7C090B2
:1005D0002403D0902503E0902603F0902703009198
:1005E00028031091290320912A0330912B03409175
:1005F0002C0350912D0360912E0370912F0383E9FA
:1006000093E00E94301240909B0350909C036090B6
:100610009D0370909E03C0909F03D090A003E09034
:10062000A103F090A203A7019601C701B6010E94A1
:100630000728698B7A8B8B8B9C8B80919703909189
:100640009803A0919903B0919A038D8B9E8BAF8BE9
:10065000B88F8091A3039091A403A091A503B091BA
:10066000A6038D879E87AF87B88BA3019201C30134
:10067000B2010E94072829893A894B895C890E9426
:100680007F259B01AC010E947F259B01AC0160E0AE
:1006900070E080E89FE30E947E25698F7A8F8B8FC0
:1006A0009C8FA30192016D897E898F89988D0E940C
:1006B00007284B015C012D853E854F855889C70170
:1006C000B6010E9407289B01AC01C501B4010E943C
:1006D0007F259B01AC010E947F25298D3A8D4B8D92
:1006E0005C8D0E940926698F7A8F8B8F9C8FA70162
:1006F00096016D897E898F89988D0E9407284B010C
:100700005C01A30192016D857E858F8598890E9489
:1007100007289B01AC01C501B4010E947E259B0105
:10072000AC010E947F250E94E3254B015C012D85D1
:100730003E854F855889CA01B9010E9407289B014F
:10074000AC0169897A898B899C890E947F259B01EC
:10075000AC010E947F259B01AC0160E070E080E865
:100760009FE30E947E25698B7A8B8B8B9C8B2D85DA
:100770003E854F8558896D897E898F89988D0E9425
:100780000728A30192010E947F25A70196010E94DC
:100790007F259B01AC010E947F2529893A894B89DD
:1007A0005C890E94092620E030E044E353E40E9483
:1007B00007282BED3FE049E450E40E9460262B011E
:1007C0003C010FB6F894DEBF0FBECDBF20E030E095
:1007D000A9010E945C2687FF05C020E030E044EBC1
:1007E00053E403C020E030E0A901C301B2010E943C
:1007F0007F252B013C016AE872E08CE295E00E94C3
:10080000C62322E030E0B301A2018CE295E00E9411
:10081000692560E972E08CE295E00E94C62320E041
:1008200030E044E353E4C501B4010E9407282BEDF6
:100830003FE049E450E40E946026AB01BC0122E0A5
:1008400030E08CE295E00E94692569E972E08CE273
:1008500095E00E94C62320E030E044E353E4698D34
:100860007A8D8B8D9C8D0E9407282BED3FE049E40B
:1008700050E40E946026AB01BC0122E030E08CE233
:1008800095E00E946B25209106023091070240916D
:1008900008025091090260E070E08AE794E40E9447
:1008A00060260E94CD260E942D206C960FB6F894EB
:1008B000DEBF0FBECDBFDF91CF911F910F91FF9093
:1008C000EF90DF90CF90BF90AF909F908F907F90F0
:1008D0006F905F904F90089520910602309107022B
:1008E000409108025091090260E070E080E89FE3C7
:1008F0000E946026AB01BC0183E993E00E94911144
:100900004DE556E760E070E080E893E00E94B00BB0
:100910004EE556E760E070E08AE693E00E94C60B81
:1009200044E150E060E070E080E693E00E9454080B
:1009300080E393E00E94451F84E293E00E94451FFC
:1009400088E193E00C94451F0C94DE0180919304A0
:1009500090E020919404821B9109089520919404C1
:1009600080919304281750F4E22FF0E0EB56FB4FF0
:10097000808190E02F5F2093940408958FEF9FEF84
:100980000895E091940480919304E81730F4F0E026
:10099000EB56FB4F808190E008958FEF9FEF089515
:1009A0000895CF92DF92EF92FF920F931F93CF9310
:1009B000DF937C01CB018A0120916F04222389F00F
:1009C000EB016B01C40ED51ECC15DD0569F06991F4
:1009D000D701ED91FC910190F081E02DC7011995AF
:1009E000F3CF642F0E948E06C801DF91CF911F9133
:1009F0000F91FF90EF90DF90CF900895CF93DF930A
:100A00001F92CDB7DEB7698320916F042223D1F006
:100A100020917004203240F021E030E0FC0133836B
:100A2000228380E090E015C080917104E82FF0E00F
:100A3000EE58FB4F998190838F5F80937104809370
:100A4000700405C061E0CE0101960E948E0681E02F
:100A500090E00F90DF91CF910895FC0113821282F4
:100A600048EE53E060E070E044835583668377830B
:100A700083EB92E091838083089510929404109206
:100A8000930410927104109270040C94D10581E0CB
:100A900080936F046093920410927104109270041A
:100AA00008950C9447050F93062F21E040917004A0
:100AB00062E774E0809192040E94370610927104FC
:100AC0001092700410926F040F9108958F929F926C
:100AD000AF92BF92CF92DF92EF92FF920F931F934C
:100AE000CF93DF93EC01F62ED42E48015901EE206E
:100AF00019F10E9447051E2D143008F013E0115023
:100B0000B8F0E881F98128E0129FB0011124A50115
:100B1000940104C056954795379527956A95D2F765
:100B2000CA01B9010190F081E02DCE011995E7CFFE
:100B300060E0CE010E9453054D2D413208F040E2A5
:100B40002C2D65E974E08F2D0E94EF05109294041E
:100B500080939304DF91CF911F910F91FF90EF90BD
:100B6000DF90CF90BF90AF909F908F900895CF92DD
:100B7000EF920F931F93C22EE12C00E010E098013A
:100B80000E9466051F910F91EF90CF90089521E08C
:100B90000C94B70561E00C94530583E694E00C9443
:100BA0002D051092220581E08093200510921F05EB
:100BB00061E084E10E941D2161E085E10E941D2128
:100BC000E9EBF0E080818E7F808380818D7F808360
:100BD00088E48093B80085E48093BC000895413296
:100BE00008F043C0909122059111FCCF91E09093C1
:100BF0002205209320052FEF2093B5041092FA04CC
:100C0000240F2093F9049093210590912105880FDA
:100C1000892B8093210580911F05813061F410920A
:100C20001F05809121058093BB008091BC0083FD4E
:100C3000F8CF85EC01C085EE8093BC008091220541
:100C40008130E1F38091FA04841710F44091FA04A2
:100C50002BEF34E0FB01D9018A2F821B841718F493
:100C60008D918193F9CF842F089580E008950F939B
:100C7000413208F04AC0909122059111FCCF92E0D8
:100C800090932205009320059FEF9093B504109256
:100C9000FA044093F904FB016BEF74E0DB019A2F37
:100CA000961B941718F491919D93F9CF10922105FA
:100CB00090912105880F892B8093210580911F0534
:100CC000813061F410921F05809121058093BB0053
:100CD0008091BC0083FDF8CF85EC01C085EE809348
:100CE000BC00222321F0809122058230E1F3809123
:100CF000B5048F3F61F08091B504803251F080914E
:100D0000B504803341F483E007C081E005C080E092
:100D100003C082E001C084E00F910895613298F42D
:100D200020912205243089F46093D704FC0189EDD9
:100D300094E0DC012A2F281B261718F421912D930B
:100D4000F9CF80E0089581E0089582E0089585ED6F
:100D50008093BC008091BC0084FDFCCF10922205E2
:100D6000089585EC8093BC001092220508951F928F
:100D70000F920FB60F9211240BB60F922F933F9341
:100D80004F935F936F937F938F939F93AF93BF9393
:100D9000EF93FF938091B900887F803609F49EC05D
:100DA00078F5883209F45DC090F4803109F456C0BA
:100DB00038F4882309F4F5C0883009F44FC0F5C031
:100DC000883109F44EC0803209F45FC0EEC080342F
:100DD00009F46AC058F4803309F457C0883309F025
:100DE000E4C08093B5040E94B106DFC0803509F4E9
:100DF0004FC0883509F45DC0883409F0D6C0D3C02F
:100E0000883909F4C4C0A8F4883709F467C038F4F5
:100E1000883609F463C0803709F460C0C6C08838DA
:100E200009F4B5C0803909F45FC0803809F0BDC04D
:100E30005BC0803B09F483C038F4803A09F466C093
:100E4000883A09F47CC0B1C0803C09F4A4C0883C55
:100E500009F4A1C0883B09F487C0A7C0809121058F
:100E600010C09091FA048091F904981770F5E09100
:100E7000FA0481E08E0F8093FA04F0E0E550FB4F16
:100E800080818093BB0085EC83C08093B5048BC0C8
:100E9000E091FA0481E08E0F8093FA048091BB0008
:100EA000F0E0E550FB4F80839091FA048091F904C3
:100EB0006BC0E091FA0481E08E0F8093FA04809178
:100EC000BB00F0E0E550FB4F80838091200581114D
:100ED0006AC081E080931F0584EA5EC083E080934E
:100EE00022051092B604CFCF8091B604803208F06C
:100EF0004EC0E091B60481E08E0F8093B6048091DD
:100F0000BB00F0E0E954FB4F8083BDCF0E94B106E7
:100F10008091B604803230F4E091B604F0E0E954F8
:100F2000FB4F10826091B60470E0E0911B05F091D8
:100F30001C0587EB94E019951092B60436C084E046
:100F4000809322051092D8041092D704E0911D05D9
:100F5000F0911E0519958091D704811105C081E09B
:100F60008093D7041092D904E091D80481E08E0FC9
:100F70008093D804F0E0E752FB4F80818093BB0060
:100F80009091D8048091D704981708F47CCF85E815
:100F90008093BC000AC085EC8093BC0010922205AF
:100FA00004C01092B5040E94A706FF91EF91BF9173
:100FB000AF919F918F917F916F915F914F913F91F1
:100FC0002F910F900BBE0F900FBE0F901F90189592
:100FD000FC016187089525EA32E0FC01318320831A
:100FE000089525EA32E0FC01318320830C948623A6
:100FF0000F931F93CF93DF938C01EB0188E2FB01EA
:1010000011928A95E9F74BE050E06FEB72E0CE0168
:101010000E94202A1B8681E090E0A0E0B0E08C874F
:101020009D87AE87BF87F80185819681A781B085AE
:10103000888B998BAA8BBB8B44E050E060E070E01A
:101040004C8B5D8B6E8B7F8B1CA21DA21EA21FA2E0
:1010500003811481B80180E090E00E94F92625E325
:101060003AEF4EE85CE30E940728688F798F8A8FF9
:101070009B8FB801882777FD8095982F0E94FB26CB
:10108000905825E33AEF4EE85CE30E9407286C8F06
:101090007D8F8E8F9F8F18A219A21AA21BA2DF919B
:1010A000CF911F910F910895FC018AEC92E09183FA
:1010B00080834583568367837087118608951F93C5
:1010C000CF93DF931F92CDB7DEB7162F6BE670E09C
:1010D00083E694E049830E945105612F83E694E002
:1010E0000E94FE044981642F83E694E00E94FE047E
:1010F00083E694E00F90DF91CF911F910C94CA0585
:10110000CF93C62F6BE683E694E00E9447056C2FD1
:1011100083E694E00E94FE0483E694E00E94CA0500
:1011200041E06BE683E694E00E94C70583E694E025
:101130000E94A604892BD1F383E694E00E94AE04BA
:10114000C82F83E694E00E94CA058C2FCF910895A2
:101150000F931F93CF93DF93EC018B0183E694E011
:101160000E943D051C830B836FE0CE010E94800826
:10117000843D11F0873D09F540E060E2CE010E9418
:101180005F084FE060E2CE010E945F088B819C8186
:10119000843F21E0920749F0803D27E0920739F033
:1011A0008A3F910561F440E003C040E101C040E2A4
:1011B00063E2CE010E945F0802C080E001C081E0CE
:1011C000DF91CF911F910F9108952F923F924F92EF
:1011D0005F926F927F928F929F92AF92BF92CF92C7
:1011E000DF92EF92FF920F931F93CF93DF93CDB7D0
:1011F000DEB72A970FB6F894DEBF0FBECDBF8C01C5
:101200007A87698784E2FB0111928A95E9F784E283
:1012100090E0A0E0B0E0E985FA8580839183A28325
:10122000B383F80185819681A781B085E985FA8528
:1012300084839583A683B78384E090E0A0E0B0E048
:1012400080879187A287B3870E94FE1FE985FA8570
:10125000608B718B828B938B6BE683E694E00E94AC
:101260004705E0916304F09164040190F081E02D62
:1012700068EA83E694E0199583E694E00E94CA0543
:101280008111E2CF46E06BE683E694E00E94C70559
:1012900083E694E00E94AE04B82E83E694E00E94B8
:1012A000AE04A82E83E694E00E94AE04D82E83E616
:1012B00094E00E94AE04C82E83E694E00E94AE043F
:1012C000F82E83E694E00E94AE04E82EAA821982EA
:1012D00029813A812B293A832983B901882777FD0F
:1012E0008095982F0E94FB262B013C01E985FA8509
:1012F000648B758B868B978BCC821B822B813C8178
:101300002D293C832B83B901882777FD8095982F61
:101310000E94FB264B015C01E985FA85608F718F85
:10132000828F938FEE821D822D813E812F293E83F5
:101330002D83B901882777FD8095982F0E94FB2681
:101340006B017C01E985FA85648F758F868F978F95
:10135000F801818523803480882309F483C0F1E07B
:10136000FF8320E030EF4FEF56ECC301B2010E9443
:101370005C2618160CF41F8221E0288720E030EF4D
:101380004FEF56E4C301B2010E94FC2787FD188687
:1013900068843F81632A7724739420E030EF4FEF15
:1013A00056E4C501B4010E94FC2787FD712C672813
:1013B0007724739420E030EF4FEF56ECC501B40171
:1013C0000E945C2618160CF4712C7628BB24B3946A
:1013D00020E030EF4FEF56E4C701B6010E94FC2732
:1013E00087FDB12C7B2851F420E030EF4FEF56EC15
:1013F000C701B6010E945C261816A4F18AEF2816D0
:101400003104B1F094EF291691E0390659F520ED39
:1014100037E0F8013483238340E060E2C8010E9492
:101420005F084FE060E2C8010E945F0840E210C020
:1014300024EF31E0F8013483238340E060E2C80107
:101440000E945F084FE060E2C8010E945F0840E12F
:1014500063E2C8010E945F0840E864E2C8010E949C
:101460005F08F2CE34EF231631E0330691F180EDC0
:10147000281687E0380609F453C09AEF291631047C
:1014800009F080C029E23CE54FE05CE3E985FA859C
:1014900064897589868997890E940728E985FA8574
:1014A000648B758B868B978B29E23CE54FE05CE380
:1014B000608D718D828D938D0E940728E985FA8554
:1014C000608F718F828F938F29E23CE54FE05CE360
:1014D0004DC029E23CE54FE85CE3E985FA85648983
:1014E0007589868997890E940728E985FA85648B22
:1014F000758B868B978B29E23CE54FE85CE3608D2A
:10150000718D828D938D0E940728E985FA85608F01
:10151000718F828F938F29E23CE54FE85CE326C010
:1015200029E23CE54FE85DE3E985FA856489758940
:10153000868997890E940728E985FA85648B758BCF
:10154000868B978B29E23CE54FE85DE3608D718DDA
:10155000828D938D0E940728E985FA85608F718FAF
:10156000828F938F29E23CE54FE85DE3648D758DB2
:10157000868D978D0E940728E985FA85648F758F7F
:10158000868F978F25E33AEF4EE85CE3E985FA858D
:1015900064897589868997890E940728E985FA8573
:1015A000648B758B868B978B25E33AEF4EE85CE373
:1015B000608D718D828D938D0E940728E985FA8553
:1015C000608F718F828F938F25E33AEF4EE85CE353
:1015D000648D758D868D978D0E940728E985FA8523
:1015E000648F758F868F978F81E02A960FB6F89457
:1015F000DEBF0FBECDBFDF91CF911F910F91FF9046
:10160000EF90DF90CF90BF90AF909F908F907F90A2
:101610006F905F904F903F902F900895FC01618BE9
:10162000089525EA32E0FC0131832083089525EAFC
:1016300032E0FC0131832083089525EA32E0FC0189
:10164000318320830C94862325EA32E0FC01318328
:1016500020830C9486230F931F93CF93DF938C01E9
:10166000EB0188E2FB0111928A95E9F74BE050E02B
:1016700064ED72E0CE010E94202A1B8641E050E01A
:1016800060E070E04C875D876E877F87F801078593
:10169000108921893289088B198B2A8B3B8B4C8BC3
:1016A0005D8B6E8B7F8B1CA21DA21EA21FA2188EAB
:1016B000198E1A8E1B8E1C8E1D8E1E8E1F8E18A2CA
:1016C00019A21AA21BA2DF91CF911F910F91089529
:1016D0000F931F93CF93DF938C01EB0188E2FB0103
:1016E00011928A95E9F74BE050E064ED72E0CE018B
:1016F0000E94202A1B8641E050E060E070E04C87A9
:101700005D876E877F87F80142895389648975896F
:10171000488B598B6A8B7B8B42E050E060E070E035
:101720004C8B5D8B6E8B7F8B1CA21DA21EA21FA2F9
:10173000188E198E1A8E1B8E1C8E1D8E1E8E1F8E5D
:1017400018A219A21AA21BA2DF91CF911F910F918B
:101750000895DC01ED91FC910190F081E02D199448
:10176000FC018FED92E0918380834787508B618BE2
:10177000728B13821482158216821782108611864C
:10178000128613861486158616860895FC018DEE42
:1017900092E091838083428B538B648B758B118A8B
:1017A0001382148215821682178210861186128681
:1017B00013861486158616860895CF93DF931F929D
:1017C0001F92CDB7DEB783E694E02A8349830E9457
:1017D00047054981642F83E694E00E94FE042A8134
:1017E000622F83E694E00E94FE0483E694E00F906B
:1017F0000F90DF91CF910C94CA05CF93DF931F9286
:101800001F92CDB7DEB783E694E02A8349830E9416
:1018100047054981642F83E694E00E94FE042A81F3
:10182000622F83E694E00E94FE0483E694E00F902A
:101830000F90DF91CF910C94CA050F931F93CF9314
:10184000DF938C01EB01262F41E06EE10E94FD0B3E
:10185000F801D08BC787C038D10509F45BC0DCF430
:10186000C034D105A9F1C036D10509F442C0A09712
:1018700009F08AC080E090E8A9E8B4E480930E0201
:1018800090930F02A0931002B093110280E090E0B9
:10189000A5E7B4E471C0C03CD10509F44CC0C03E1A
:1018A000D10509F459C0C03AD10509F06DC080E0F6
:1018B00090E0A8ECB3E480930E0290930F02A09303
:1018C0001002B093110280E090E8A1EBB3E454C0A1
:1018D00080E090ECA5E5B4E480930E0290930F02B3
:1018E000A0931002B093110280E090E0AEE3B4E464
:1018F00043C080E090E8A7E2B4E480930E029093A6
:101900000F02A0931002B093110280E090E0A6E1D4
:10191000B4E432C080E090E0A1EEB3E480930E0224
:1019200090930F02A0931002B093110280E090E018
:10193000A8ECB3E421C080E090E0A5EAB3E4809392
:101940000E0290930F02A0931002B093110280E058
:1019500090E8A3E9B3E410C080E090E0A6E6B3E429
:1019600080930E0290930F02A0931002B093110285
:1019700080E090E0ADE4B3E480930A0290930B0220
:10198000A0930C02B0930D02DF91CF911F910F91A4
:1019900008951F93CF93DF931F92CDB7DEB7162F15
:1019A00083E694E049830E9447054981642F83E6DA
:1019B00094E00E94FE0483E694E00E94CA0541E0A0
:1019C000612F83E694E00E94C70583E694E00E94BD
:1019D000AE04182F83E694E00E94CA05812F0F9071
:1019E000DF91CF911F910895CF93DF93EC0183E6B0
:1019F00094E00E943D0527E540E269E1CE010E94A6
:101A0000DD0B40E269E1CE010E94C90C91E087350F
:101A100009F090E0892FDF91CF9108951F93CF9324
:101A2000DF931F92CDB7DEB7162F83E694E049838C
:101A30000E9447054981642F83E694E00E94FE04DA
:101A400083E694E00E94CA0541E0612F83E694E0BA
:101A50000E94C70583E694E00E94AE04182F83E637
:101A600094E00E94CA05812F0F90DF91CF911F91C2
:101A70000895CF93DF93EC0183E694E00E943D0547
:101A800020E042E06EE1CE010E94FD0B40E06EE1FD
:101A9000CE010E940E0D803139F460E270E0CE017B
:101AA0000E941D0C81E001C080E0DF91CF9108957C
:101AB0006F927F928F929F92AF92BF92CF92DF925E
:101AC000EF92FF920F931F93CF93DF93EC0169E1A5
:101AD00083E694E00E94470568EA70E083E694E0BC
:101AE0000E94A90B83E694E00E94CA0546E069E1E2
:101AF00083E694E00E94C70583E694E00E94A60472
:101B00000697D4F383E694E00E94AE04782E83E631
:101B100094E00E94AE04682E83E694E00E94AE0436
:101B2000982E83E694E00E94AE04882E83E694E02B
:101B30000E94AE04D82E83E694E00E94AE04C82E24
:101B4000B62CA12CA72884E0B594A7948A95E1F738
:101B5000B501882777FD8095982F0E94FB266B831F
:101B60007C838D839E83F82CE12CE92894E0F59406
:101B7000E7949A95E1F7B701882777FD8095982F2C
:101B80000E94FB266F83788789879A871C2D00E047
:101B90000D2924E0159507952A95E1F7B8018827C6
:101BA00077FD8095982F0E94FB266B877C878D8719
:101BB0009E87DF91CF911F910F91FF90EF90DF9063
:101BC000CF90BF90AF909F908F907F906F9008952F
:101BD0000F931F93CF93DF938C01EB0184E2FB0102
:101BE00011928A95E9F7C8010E94580D84E290E0AD
:101BF000A0E0B0E088839983AA83BB83F80187853E
:101C00009089A189B2898C839D83AE83BF8381E053
:101C100090E0A0E0B0E088879987AA87BB870E9400
:101C2000FE1F688B798B8A8B9B8B2FE632E143E812
:101C30005AE3F80163817481858196810E940728A7
:101C40002AE038EE4CE151E40E9407286C8B7D8B32
:101C50008E8B9F8B2FE632E143E85AE3F8016781D0
:101C60007085818592850E9407282AE038EE4CE134
:101C700051E40E940728688F798F8A8F9B8F2FE607
:101C800032E143E85AE3F8016385748585859685DA
:101C90000E9407282AE038EE4CE151E40E94072810
:101CA0006C8F7D8F8E8F9F8F81E0DF91CF911F9101
:101CB0000F9108956F927F928F929F92AF92BF92F1
:101CC000CF92DF92EF92FF920F931F93CF93DF9308
:101CD000EC016EE183E694E00E94470563E070E06A
:101CE00083E694E00E94A90B83E694E00E94CA0573
:101CF00046E06EE183E694E00E94C70583E694E047
:101D00000E94A6040697D4F383E694E00E94AE04F2
:101D1000682E83E694E00E94AE04782E83E694E079
:101D20000E94AE04C82E83E694E00E94AE04D82E32
:101D300083E694E00E94AE04882E83E694E00E943D
:101D4000AE04982EB62CA12CA728B501882777FDC4
:101D50008095982F0E94FB266B837C838D839E83C6
:101D6000F82CE12CE928B701882777FD8095982F7A
:101D70000E94FB266F83788789879A871C2D00E055
:101D80000D29B801882777FD8095982F0E94FB26A2
:101D90006B877C878D879E87DF91CF911F910F91F5
:101DA000FF90EF90DF90CF90BF90AF909F908F907B
:101DB0007F906F9008952F923F924F925F926F9213
:101DC0007F928F929F92AF92BF92CF92DF92EF92CB
:101DD000FF920F931F93CF93DF93EC018B0184E26B
:101DE000FB0111928A95E9F749E06EE1CE010E946C
:101DF0000E0D80FFF3C0CE010E945A0E8989882300
:101E000009F483C04B805C806D807E808F809884D5
:101E1000A984BA84CB84DC84ED84FE8422242394B8
:101E200020E030E04FEF54ECC301B2010E945C2689
:101E300018160CF4212C3324339420E030E04FEFBB
:101E400054E4C301B2010E94FC2787FD312C3228E3
:101E50006624639420E030E04FEF54E4C501B40100
:101E60000E94FC2787FD612C63287724739420E06F
:101E700030E04FEF54ECC501B4010E945C26181607
:101E80000CF4712C7628BB24B39420E030E04FEFA3
:101E900054E4C701B6010E94FC2787FDB12C7B28C2
:101EA00051F420E030E04FEF54ECC701B6010E943E
:101EB0005C26181654F18F85988980369105E1F0DB
:101EC0004CF480329105D9F080349105F1F460E64C
:101ED00070E017C0803A910561F0803C910531F0C7
:101EE0008038910591F460EA70E00BC060EE70E01C
:101EF00008C060EC70E005C060E870E002C060E41B
:101F000070E0CE010E941D0C6FCF84E290E0A0E053
:101F1000B0E0F80180839183A283B3838A899B898F
:101F2000AC89BD8984839583A683B78382E090E0E2
:101F3000A0E0B0E080879187A287B3870E94FE1F50
:101F4000F801608B718B828B938BC0900E02D090C6
:101F50000F02E0901002F0901102A70196016B8130
:101F60007C818D819E810E94602620E030E048ECDB
:101F700052E40E940728F801648B758B868B978B3F
:101F8000A70196016F81788589859A850E946026D0
:101F900020E030E048EC52E40E940728F801608F0E
:101FA000718F828F938F20910A0230910B024091A2
:101FB0000C0250910D026B857C858D859E850E945B
:101FC000602620E030E048EC52E40E940728F80147
:101FD000648F758F868F978F81E001C080E0DF91DD
:101FE000CF911F910F91FF90EF90DF90CF90BF9016
:101FF000AF909F908F907F906F905F904F903F90A9
:102000002F9008952F923F924F925F926F927F92FE
:102010008F929F92AF92BF92CF92DF92EF92FF92F8
:102020000F931F93CF93DF93CDB7DEB7A8970FB66B
:10203000F894DEBF0FBECDBF1C0189829A82AB82AD
:10204000BC82CD82DE82EF82F88609871A872B87D1
:102050003C874D875E876F87788BC980DA80EB80FD
:10206000FC808D819E81AF81B885898B9A8BAB8BEB
:10207000BC8B89859A85AB85BC858D8B9E8BAF8B00
:10208000B88F8D859E85AF85B889898F9A8FAB8FE4
:10209000BC8F22968CAD9DADAEADBFAD22978D8F1E
:1020A0009E8FAF8FB8A326968CAD9DADAEADBFAD64
:1020B000269789A39AA3ABA3BCA32A968CAD9DAD0A
:1020C000AEADBFAD2A978DA39EA3AFA3B8A72E96A2
:1020D0008CAC9DACAEACBFAC2E97C1010E94CA1EA9
:1020E0002D8D3E8D4F8D58A1C701B6010E94072846
:1020F0002B013C0129A13AA14BA15CA169897A89F4
:102100008B899C890E9407289B01AC01C301B20105
:102110000E947E252B013C012DA13EA14FA158A577
:102120006D897E898F89988D0E9407289B01AC015B
:10213000C301B2010E947E252B013C01A50194013F
:10214000698D7A8D8B8D9C8D0E9407289B01AC0137
:10215000C301B2010E947E25D1016D937D938D93C1
:102160009C93139729A13AA14BA15CA1C701B60189
:102170000E9407282B013C012D8D3E8D4F8D58A1CB
:1021800069897A898B899C890E9407289B01AC0107
:10219000C301B2010E947F252B013C01A5019401DE
:1021A0006D897E898F89988D0E9407289B01AC01DB
:1021B000C301B2010E947F252B013C012DA13EA14C
:1021C0004FA158A5698D7A8D8B8D9C8D0E94072813
:1021D0009B01AC01C301B2010E947E25F101648321
:1021E0007583868397832DA13EA14FA158A5C70172
:1021F000B6010E9407282B013C01A50194016989C1
:102200007A898B899C890E9407289B01AC01C301B4
:10221000B2010E947E252B013C012D8D3E8D4F8DFC
:1022200058A16D897E898F89988D0E9407289B010E
:10223000AC01C301B2010E947F252B013C0129A101
:102240003AA14BA15CA1698D7A8D8B8D9C8D0E94EA
:1022500007289B01AC01C301B2010E947F25D10177
:1022600018966D937D938D939C931B97A501940174
:10227000C701B6010E9407286B017C012DA13EA178
:102280004FA158A569897A898B899C890E94072862
:102290009B01AC01C701B6010E947F256B017C0147
:1022A00029A13AA14BA15CA16D897E898F89988D66
:1022B0000E9407289B01AC01C701B6010E947E2540
:1022C0006B017C012D8D3E8D4F8D58A1698D7A8DCE
:1022D0008B8D9C8D0E9407289B01AC01C701B60124
:1022E0000E947F25F1016487758786879787C101E2
:1022F000A8960FB6F894DEBF0FBECDBFDF91CF9189
:102300001F910F91FF90EF90DF90CF90BF90AF9013
:102310009F908F907F906F905F904F903F902F9005
:1023200008952F923F924F925F926F927F928F9279
:102330009F92AF92BF92CF92DF92EF92FF920F9354
:102340001F93CF93DF93CDB7DEB766970FB6F894A0
:10235000DEBF0FBECDBF3C011A012B0104969A8B44
:10236000898B0E94CA1EC30180579F4F0E94CA1EBC
:10237000F301E056FF4FFC8BEB8BCF010E94CA1E8E
:10238000C30180559F4F9E8B8D8B0E94CA1EC30137
:1023900080549F4F0E94CA1E812C912C54017501BC
:1023A00064019501840140E050E060E87FE3CE01E4
:1023B00001960E944E1E80E1FE013196A989BA89DC
:1023C00001900D928A95E1F79501840140E050E07B
:1023D00060E87FE3CE0101960E944E1E80E1FE017F
:1023E0003196AD89BE8901900D928A95E1F79501EC
:1023F000840140E050E060E87FE3CE0101960E9456
:102400004E1E80E1FE013196AB89BC8901900D9290
:102410008A95E1F7F301208231824282538280E083
:1024200090E0A0E8BFE3848B958BA68BB78B669674
:102430000FB6F894DEBF0FBECDBFDF91CF911F91D5
:102440000F91FF90EF90DF90CF90BF90AF909F9053
:102450008F907F906F905F904F903F902F90089556
:102460002F923F924F925F926F927F928F929F92A4
:10247000AF92BF92CF92DF92EF92FF920F931F9392
:10248000CF93DF93CDB7DEB7C454D1400FB6F894E5
:10249000DEBF0FBECDBF1C01C754DF4FC882C95B72
:1024A000D040C654DF4FD882CA5BD040C554DF4FFE
:1024B000E882CB5BD040C454DF4FF882CC5BD04085
:1024C000C354DF4F0883CD5BD040C254DF4F188325
:1024D000CE5BD040C154DF4F2883CF5BD040C05487
:1024E000DF4F3883C05CD040CF53DF4F4883C15C9F
:1024F000D040CE53DF4F5883C25CD040CD53DF4F26
:102500006883C35CD040CC53DF4F7883C45CD04039
:10251000CE01865A9E4F0E946D1F20E030E0A90137
:102520000E945C26882311F40C94341ECE01865A36
:102530009E4F0E946D1F6B017C01CE0183559F4F02
:102540000E94451FA7019601C65ADE4F6881798116
:102550008A819B81CA55D1400E946026C355DF4FB6
:10256000688379838A839B83CD5AD040A7019601E3
:10257000C25ADE4F688179818A819B81CE55D140D4
:102580000E946026CF54DF4F688379838A839B83C0
:10259000C15BD040A7019601CE59DE4F6881798199
:1025A0008A819B81C256D1400E946026CB54DF4F66
:1025B000688379838A839B83C55BD0408CE0FE016E
:1025C000E355FF4FDE01A65ABE4F01900D928A954A
:1025D000E1F7CE018A599E4F0E946D1F20E030E046
:1025E000A9010E945C26882311F40C94341ECE01AC
:1025F0008A599E4F0E946D1F6B017C01CE018F5541
:102600009F4F0E94451FA7019601CA59DE4F68815E
:1026100079818A819B81C656D1400E946026CF5520
:10262000DF4F688379838A839B83C15AD040A70197
:102630009601C659DE4F688179818A819B81CA568D
:10264000D1400E946026CB55DF4F688379838A830F
:102650009B83C55AD040A7019601C259DE4F6881BD
:1026600079818A819B81CE56D1400E946026C755D0
:10267000DF4F688379838A839B83C95AD0408CE07B
:10268000FE01EF55FF4FDE01AA59BE4F01900D929A
:102690008A95E1F7D10150968D909D90AD90BC90B8
:1026A0005397B7FAB094B7F8B0941C96CD90DD90DC
:1026B000ED90FC901F97F7FAF094F7F8F0941896C5
:1026C0000D911D912D913C911B97305814964D9171
:1026D0005D916D917C911797CE018F569F4F0E940F
:1026E0004E1ECA59DE4F8880C656D140C959DE4FAA
:1026F0009880C756D140C859DE4FA880C856D140EF
:10270000C759DE4FB880C956D140C659DE4FC88080
:10271000CA56D140C559DE4FD880CB56D140C45996
:10272000DE4FE880CC56D140C359DE4FF880CD56FD
:10273000D140C259DE4F0881CE56D140C159DE4F3B
:102740001881CF56D140C059DE4F2881C057D140A3
:10275000CF58DE4F3881C157D14040E050E0BA0138
:10276000CE0101960E947A1EEDB7FEB770970FB6A4
:10277000F894FEBF0FBEEDBFADB7BEB7119680E1B6
:10278000FE01EF56FF4F01900D928A95E1F7898087
:102790009A80AB80BC80CD80DE80EF80F884098594
:1027A0001A852B853C854D855E856F857889CE01A0
:1027B0008F579F4F0E9402102DB73EB7205131090D
:1027C0000FB6F8943EBF0FBE2DBFADB7BEB7119682
:1027D00080E1FE01EF57FF4F01900D928A95E1F7DE
:1027E000D10114968C90149715969C901597169677
:1027F000AC9016971796BC9017971896CC90189790
:102800001996DC9019971A96EC901A971B96FC90E3
:102810001B971C960C911C971D961C911D971E963C
:102820002C911E971F963C911F9750964C91509754
:1028300051965C91519752966C91529753967C9118
:10284000CE018B539F4F0E94021080E1FE01EB539B
:10285000FF4FD101A055BF4F01900D928A95E1F72E
:10286000F101EC54FF4F6081718182819381349634
:10287000C080D180E280F3800FB6F894DEBF0FBE37
:10288000CDBF9B01AC010E9407284B015C01A70151
:102890009601C701B6010E9407289B01AC01C50142
:1028A000B4010E947F250E946E288B019C01F101DA
:1028B000E454FF4F80809180A280B380C12CD12C42
:1028C0007601B701A601CE0101960E944E1E80E15D
:1028D000FE013196D101A056BF4F01900D928A950D
:1028E000E1F7D10118968D919D910D90BC91A02D8D
:1028F000CB52DF4F88839983AA83BB83C55DD040C9
:10290000D10150968D919D910D90BC91A02DC752F3
:10291000DF4F88839983AA83BB83C95DD0409C0124
:10292000AD01CB52DF4F688179818A819B81C55D82
:10293000D0400E940728CB50DF4F688379838A8379
:102940009B83C55FD040D10114968D919D910D90D0
:10295000BC91A02DC352DF4F88839983AA83BB8388
:10296000CD5DD040F1014484558466847784A30111
:102970009201BC01CD010E940728C750DF4F688338
:1029800079838A839B83C95FD0409B01AC01CB5084
:10299000DF4F688179818A819B81C55FD0400E9429
:1029A0007E254B015C019B01AC010E947F25C65A2C
:1029B000DE4F288139814A815B81CA55D1400E940E
:1029C0007E25C350DF4F688379838A839B83CD5FE5
:1029D000D040D10158966D937D938D939C935B97D6
:1029E000CB52DF4F288139814A815B81C55DD04060
:1029F000C352DF4F688179818A819B81CD5DD04050
:102A00000E9407286B017C01C752DF4F2881398162
:102A10004A815B81C95DD040C301B2010E94072891
:102A20009B01AC01C701B6010E947F25CB51DF4F4E
:102A3000688379838A839B83C55ED0409B01AC0108
:102A40000E947F25C25ADE4F288139814A815B81ED
:102A5000CE55D1400E947E25CF5FDE4F68837983BB
:102A60008A839B83C150D140F101648F758F868F1B
:102A7000978FA3019201C301B2010E9407286B0145
:102A80007C01CB52DF4F288139814A815B81C55D52
:102A9000D040CA01B9010E9407289B01AC0160E047
:102AA00070E080E09FE30E947E25A70196010E94CE
:102AB0007E25C751DF4F688379838A839B83C95EF4
:102AC000D0409B01AC010E947F25CE59DE4F28816A
:102AD00039814A815B81C256D1400E947E25CF5EFA
:102AE000DE4F688379838A839B83C151D140D101B2
:102AF00090966D937D938D939C939397F101EC55F4
:102B0000FF4F80819181A281B381C351DF4F8883C0
:102B10009983AA83BB83CD5ED0409C01AD01BC01EB
:102B2000CD010E947F25CF50DF4F688379838A8350
:102B30009B83C15FD040F101E455FF4F80819181BB
:102B4000A281B381C35FDE4F88839983AA83BB834D
:102B5000CD50D1409C01AD01BC01CD010E947F252B
:102B6000CF51DF4F688379838A839B83C15ED040D6
:102B7000A701960160E070E080E09FE30E947E255F
:102B80006B017C01C752DF4F288139814A815B810B
:102B9000C95DD040CA01B9010E9407289B01AC0160
:102BA000C701B6010E947E259B01AC01CF50DF4FCB
:102BB000688179818A819B81C15FD0400E9407280A
:102BC0006B017C01A5019401CF51DF4F68817981B0
:102BD0008A819B81C15ED0400E9407289B01AC0185
:102BE000C701B6010E947F25CA59DE4F288139816D
:102BF0004A815B81C656D1400E947E25CB5FDE4F65
:102C0000688379838A839B83C550D140D101949690
:102C10006D937D938D939C939797A3019201CB52D3
:102C2000DF4F688179818A819B81C55DD0400E9498
:102C300007286B017C01C752DF4F288139814A8107
:102C40005B81C95DD040C352DF4F688179818A8141
:102C50009B81CD5DD0400E9407289B01AC01C7013C
:102C6000B6010E947E259B01AC01CF50DF4F6881E9
:102C700079818A819B81C15FD0400E9407286B01C6
:102C80007C01CB51DF4F288139814A815B81C55E50
:102C9000D040CF51DF4F688179818A819B81C15EAD
:102CA000D0400E9407289B01AC01C701B6010E94D9
:102CB0007F25C659DE4F288139814A815B81CA56FA
:102CC000D1400E947E25CB51DF4F688379838A8370
:102CD0009B83C55ED040F10160A771A782A793A72F
:102CE000CB50DF4F288139814A815B81C55FD0405D
:102CF000C750DF4F688179818A819B81C95FD0404D
:102D00000E947F259B01AC01CF50DF4F6881798104
:102D10008A819B81C15FD0400E9407286B017C01A2
:102D2000C751DF4F288139814A815B81C95ED0401C
:102D3000CF51DF4F688179818A819B81C15ED0400C
:102D40000E9407289B01AC01C701B6010E947F25A4
:102D5000C259DE4F288139814A815B81CE56D140EC
:102D60000E947E25C751DF4F688379838A839B83C6
:102D7000C95ED040D1019C966D937D938D939C93B9
:102D80009F9720E030E040E050ECC301B2010E9488
:102D90000728C75EDE4F688379838A839B83C95186
:102DA000D140F10160AB71AB82AB93ABC752DF4F47
:102DB000288139814A815B81C95DD040CA01B9014E
:102DC0000E947F25CB50DF4F688379838A839B8362
:102DD000C55FD040D101D4966D937D938D939C9324
:102DE000D79720E030E040E050ECC352DF4F6881DD
:102DF00079818A819B81CD5DD0400E940728C35E86
:102E0000DE4F688379838A839B83CD51D140F10162
:102E100060AF71AF82AF93AFCB52DF4F2881398162
:102E20004A815B81C55DD040CA01B9010E947F25FE
:102E3000C750DF4F688379838A839B83C95FD04003
:102E4000D101DC966D937D938D939C93DF97F10177
:102E5000E05CFF4FDC01CB0180839183A283B383CD
:102E6000C352DF4F288139814A815B81CD5DD040DB
:102E7000CA01B9010E947F25CF5DDE4F6883798347
:102E80008A839B83C152D140F101EC5BFF4F608389
:102E90007183828393833496CB50DF4F88819981ED
:102EA000AA81BB81C55FD04080839183A283B38315
:102EB000A3019201C301B2010E947F25CB5DDE4FC9
:102EC000688379838A839B83C552D140F101E45B97
:102ED000FF4F6083718382839383349610821182C3
:102EE0001282138220E030E040E850ECCB52DF4FFA
:102EF000688179818A819B81C55DD0400E940728C5
:102F0000C75DDE4F688379838A839B83C952D14032
:102F1000F101EC5AFF4F608371838283938320E039
:102F200030E040E850ECC301B2010E940728C35DC5
:102F3000DE4F688379838A839B83CD52D140F10130
:102F4000E85AFF4F608371838283938334961082A3
:102F500011821282138220E030E040E050ECC35F27
:102F6000DE4F688179818A819B81CD50D1400E945A
:102F70000728A30192010E940728CF5CDE4F6883D7
:102F800079838A839B83C153D140F101E05AFF4F7B
:102F90006083718382839383C752DF4F2881398195
:102FA0004A815B81C95DD040CF51DF4F6881798113
:102FB0008A819B81C15ED0400E940728CB5EDE4F94
:102FC000688379838A839B83C551D140F101EC5991
:102FD000FF4F608371838283938320E030E040E879
:102FE00050ECC351DF4F688179818A819B81CD5E2E
:102FF000D0400E9407284B015C01C352DF4F28815B
:1030000039814A815B81CD5DD040CF51DF4F6881EE
:1030100079818A819B81C15ED0400E940728C75F69
:10302000DE4F688379838A839B83C950D140A30193
:103030009201C501B4010E940728C75FDE4F2881B5
:1030400039814A815B81C950D1400E947E25CB5C89
:10305000DE4F688379838A839B83C553D140F10116
:10306000E859FF4F6083718382839383CB52DF4F94
:10307000288139814A815B81C55DD040CF51DF4FC6
:10308000688179818A819B81C15ED0400E94072836
:103090006B017C01C752DF4F288139814A815B81F6
:1030A000C95DD040C501B4010E940728A70196015F
:1030B0000E947F25C75CDE4F688379838A839B8368
:1030C000C953D140F101E459FF4F6083718382837A
:1030D000938320E030E040E050ECC351DF4F688143
:1030E00079818A819B81CD5ED0400E9407284B0167
:1030F0005C01C752DF4F288139814A815B81C95DFC
:10310000D0400E940728A70196010E947F25C35C3A
:10311000DE4F688379838A839B83CD53D140F1014D
:10312000E059FF4F6083718382839383A3019201EF
:10313000CF50DF4F688179818A819B81C15FD04008
:103140000E9407286B017C01C75FDE4F288139810F
:103150004A815B81C950D1400E947F25C75FDE4F05
:10316000688379838A839B83C950D140F101EC58ED
:10317000FF4F6083718382839383CB52DF4F28811B
:1031800039814A815B81C55DD040CF50DF4F688176
:1031900079818A819B81C15FD0400E940728C351F9
:1031A000DF4F688379838A839B83CD5ED040CB5E7B
:1031B000DE4F288139814A815B81C551D1400E940F
:1031C0007F25CF5BDE4F688379838A839B83C154DD
:1031D000D140F101E858FF4F60837183828393836C
:1031E000C352DF4F288139814A815B81CD5DD04058
:1031F000C501B4010E9407284B015C01A3019201A3
:10320000CF51DF4F688179818A819B81C15ED04037
:103210000E9407289B01AC01C501B4010E947F25D3
:10322000CF51DF4F688379838A839B83C15ED0400F
:10323000F101E458FF4F6083718382839383349656
:10324000C082D182E282F38220E030E040E850E4A4
:10325000C35FDE4F688179818A819B81CD50D140E7
:103260000E9407284B015C01C752DF4F288139813A
:103270004A815B81C95DD040CF50DF4F6881798141
:103280008A819B81C15FD0400E940728C752DF4FCF
:10329000688379838A839B83C95DD040CB52DF4F9B
:1032A000288139814A815B81C55DD040C501B40167
:1032B0000E9407289B01AC01C752DF4F68817981CA
:1032C0008A819B81C95DD0400E947E25C752DF4F15
:1032D000688379838A839B83C95DD040F101EC5771
:1032E000FF4F6083718382839383C352DF4F2881B2
:1032F00039814A815B81CD5DD040CF50DF4F6881FD
:1033000079818A819B81C15FD0400E940728CB527E
:10331000DF4F688379838A839B83C55DD040A30197
:103320009201C501B4010E9407289B01AC01CB5258
:10333000DF4F688179818A819B81C55DD0400E9481
:103340007E252B013C01F101E857FF4F608371831B
:10335000828393833496C351DF4F88819981AA81F8
:10336000BB81CD5ED04080839183A283B38320E074
:1033700030E0A901CF5EDE4F688179818A819B812F
:10338000C151D1400E940728C352DF4F688379831F
:103390008A839B83CD5DD040D101A057BF4FCB52D4
:1033A000DF4FB983A883C55DD040C350DF4F28816C
:1033B00039814A815B81CD5FD040C75EDE4F688135
:1033C00079818A819B81C951D1400E9407284B0194
:1033D0005C01CF5FDE4F288139814A815B81C1501A
:1033E000D140C750DF4F688179818A819B81C95F55
:1033F000D0400E9407289B01AC01C501B4010E9486
:103400007F25C352DF4F288139814A815B81CD5DA1
:10341000D0400E947F254B015C01CB5FDE4F2881AD
:1034200039814A815B81C550D140CF5CDE4F6881D4
:1034300079818A819B81C153D1400E9407289B01D9
:10344000AC01C501B4010E947F254B015C01CB5149
:10345000DF4F288139814A815B81C55ED040C35CE2
:10346000DE4F688179818A819B81CD53D1400E9452
:1034700007289B01AC01C501B4010E947F254B01C7
:103480005C01C751DF4F288139814A815B81C95E68
:10349000D040C701B6010E9407289B01AC01C501BD
:1034A000B4010E947F25CB52DF4FE881F981C55DD1
:1034B000D04060837183828393835101F4E9AF0E1E
:1034C000B11CC350DF4F288139814A815B81CD5FB8
:1034D000D040CB50DF4F688179818A819B81C55F65
:1034E000D0400E9407286B017C01CF5FDE4F28810E
:1034F00039814A815B81C150D140CF5DDE4F688107
:1035000079818A819B81C152D1400E9407289B0109
:10351000AC01C701B6010E947F256B017C01CF5E23
:10352000DE4F288139814A815B81C151D140C75D1D
:10353000DE4F688179818A819B81C952D1400E9486
:1035400007289B01AC01C701B6010E947F256B01D2
:103550007C01CB5FDE4F288139814A815B81C55078
:10356000D140CB5EDE4F688179818A819B81C551D4
:10357000D1400E9407289B01AC01C701B6010E94FF
:103580007F256B017C01CB51DF4F288139814A8136
:103590005B81C55ED040C75FDE4F688179818A81DB
:1035A0009B81C950D1400E9407289B01AC01C701F3
:1035B000B6010E947F256B017C01C751DF4F288136
:1035C00039814A815B81C95ED040C752DF4F688133
:1035D00079818A819B81C95DD0400E9407289B0127
:1035E000AC01C701B6010E947F25D5016D937D9383
:1035F0008D939C9313975101B8E9AB0EB11CC35046
:10360000DF4F288139814A815B81CD5FD040C35E25
:10361000DE4F688179818A819B81CD51D1400E94A2
:1036200007286B017C01CF5FDE4F288139814A81F9
:103630005B81C150D140CB50DF4F688179818A8155
:103640009B81C55FD0400E9407289B01AC01C70148
:10365000B6010E947F256B017C01CF5EDE4F288181
:1036600039814A815B81C151D140C35DDE4F6881A0
:1036700079818A819B81CD52D1400E9407289B018C
:10368000AC01C701B6010E947F256B017C01CB5FB5
:10369000DE4F288139814A815B81C550D140CB5CA6
:1036A000DE4F688179818A819B81C553D1400E9418
:1036B00007289B01AC01C701B6010E947F256B0161
:1036C0007C01CB51DF4F288139814A815B81C55E06
:1036D000D040CF5BDE4F688179818A819B81C15464
:1036E000D1400E9407289B01AC01C701B6010E948E
:1036F0007F256B017C01C751DF4F288139814A81C9
:103700005B81C95ED040C301B2010E9407289B01C2
:10371000AC01C701B6010E947F25F501608371836A
:10372000828393835101FCE9AF0EB11CC350DF4F7C
:10373000288139814A815B81CD5FD040C750DF4FFE
:10374000688179818A819B81C95FD0400E94072866
:103750006B017C01CF5FDE4F288139814A815B811B
:10376000C150D140CB5DDE4F688179818A819B81D8
:10377000C552D1400E9407289B01AC01C701B60188
:103780000E947F25C352DF4F288139814A815B81A6
:10379000CD5DD0400E947F256B017C01CB5FDE4F69
:1037A000288139814A815B81C550D140C75CDE4F99
:1037B000688179818A819B81C953D1400E94072801
:1037C0009B01AC01C701B6010E947F256B017C0102
:1037D000CB51DF4F288139814A815B81C55ED04062
:1037E000CF51DF4F688179818A819B81C15ED04052
:1037F0000E9407289B01AC01C701B6010E947F25EA
:103800006B017C01C751DF4F288139814A815B817F
:10381000C95ED040C351DF4F688179818A819B8125
:10382000CD5ED0400E9407289B01AC01C701B601C4
:103830000E947F25D5016D937D938D939C93139763
:10384000CB52DF4F88819981C55DD0400E94DC1E3C
:103850002B013C01812C912C5401750164019501CF
:103860008401B501A401CE0141960E944E1EFE01C5
:1038700071967F0100E010E0CB52DF4FE881F981C3
:10388000C55DD040E00FF11FA301920160817181FD
:10389000828193810E946026D7016D937D938D93E1
:1038A0009D937D010C5F1F4F0031110529F780E1C9
:1038B000FE017196CB52DF4FA881B981C55DD04022
:1038C00001900D928A95E1F7F10144885588668848
:1038D000778877FA709477F87094812C912C540142
:1038E0007501640195018401B501A401CE018F58D1
:1038F0009F4F0E944E1E9E012F583F4F790100E0BE
:1039000010E0CB52DF4FE881F981C55DD040E00F78
:10391000F11FA301920160817181828193810E94D4
:103920000728D7016D937D938D939D937D010C5F47
:103930001F4F0031110529F73E01B1E36B0E711CD9
:10394000C754DF4F8880C95BD040C654DF4F988092
:10395000CA5BD040C554DF4FA880CB5BD040C45475
:10396000DF4FB880CC5BD040C354DF4FC880CD5B05
:10397000D040C254DF4FD880CE5BD040C154DF4F1F
:10398000E880CF5BD040C054DF4FF880C05CD040AF
:10399000CF53DF4F0881C15CD040CE53DF4F188139
:1039A000C25CD040CD53DF4F2881C35CD040CC53A4
:1039B000DF4F3881C45CD04040E050E0BA01C30121
:1039C0000E947A1EEDB7FEB770970FB6F894FEBF4F
:1039D0000FBEEDBFADB7BEB7119680E1F1013496D1
:1039E00001900D928A95E1F789A89AA8ABA8BCA886
:1039F000CDA8DEA8EFA8F8AC09AD1AAD2BAD3CAD53
:103A00004DAD5EAD6FAD21967FAD2197CE01819614
:103A10000E940210812C912C5401750164019501C2
:103A20008401B501A401CE0101960E944E1E8E01B3
:103A30000F5D1F4F0FB6F894DEBF0FBECDBFCE0196
:103A400001967C01D8016D917D918D919D918D01A3
:103A500020E030E040E05FE30E940728F701619337
:103A60007193819391937F010615170559F780E1B2
:103A7000FE01EF58FF4FDE01AF5ABF4F01900D928C
:103A80008A95E1F7CE018F5B9F4F0E94CA1E9E016F
:103A90002F5A3F4F7901CE018F5B9F4F6C01490137
:103AA00090E1890E911CDE0111965D01F701619193
:103AB0007191819191917F01D5012D913D914D9110
:103AC0005D915D010E947F25F60161937193819361
:103AD00091936F01E814F90449F72101F0EC4F0EBE
:103AE000511C80E1FE01EF5BFF4FD20101900D926E
:103AF0008A95E1F7D1018D919D910D90BC91A02DFA
:103B0000CB52DF4F88839983AA83BB83C55DD040A6
:103B1000812C912C54017501640195018401B5013A
:103B2000A401CE018F599F4F0E944E1EFE01EF59F6
:103B3000FF4F7F0100E010E0F201E00FF11FCB52D8
:103B4000DF4F288139814A815B81C55DD04060812A
:103B50007181828193810E940728D7016D937D93A3
:103B60008D939D937D010C5F1F4F0031110521F74F
:103B700080E1FE01EF59FF4FDE01D19601900D92D9
:103B80008A95E1F7CE0181960E94CA1EFE01B19688
:103B90007F0100E010E02101F4E04F0E511CD30141
:103BA0006D917D918D919D913D01F201E00FF11F8D
:103BB00020813181428153810E947F25F7016193E9
:103BC0007193819391937F010C5F1F4F0031110519
:103BD00031F780E1FE01B196D20101900D928A95F4
:103BE000E1F7C2010E94DC1ECB52DF4F688379836C
:103BF0008A839B83C55DD040812C912C5401750133
:103C0000640195018401B501A401CE0101960E94D1
:103C10004E1E9E012F5F3F4F790100E010E0F20140
:103C2000E00FF11FCB52DF4F288139814A815B8140
:103C3000C55DD04060817181828193810E94602640
:103C4000D7016D937D938D939D937D010C5F1F4FE5
:103C50000031110521F780E1FE013196D101149662
:103C600001900D928A95E1F7CC5BDE4F0FB6F89488
:103C7000DEBF0FBECDBFDF91CF911F910F91FF909F
:103C8000EF90DF90CF90BF90AF909F908F907F90FC
:103C90006F905F904F903F902F9008958F929F92DA
:103CA000AF92BF92CF92DF92EF92FF920F931F934A
:103CB000CF93DF93CDB7DEB7FC014083518362839E
:103CC00073830483158326833783C086D186E28677
:103CD000F38684869586A686B786DF91CF911F915D
:103CE0000F91FF90EF90DF90CF90BF90AF909F909B
:103CF0008F9008958F929F92AF92BF92CF92DF9252
:103D0000EF92FF920F931F93CF93DF93CDB7DEB760
:103D10002C970FB6F894DEBF0FBECDBFFC01898291
:103D20009A82AB82BC82CD82DE82EF82F8860987DE
:103D30001A872B873C874083518362837383498131
:103D40005A816B817C8144835583668377834D815F
:103D50005E816F8178854087518762877387498547
:103D60005A856B857C8544875587668777872C962F
:103D70000FB6F894DEBF0FBECDBFDF91CF911F917C
:103D80000F91FF90EF90DF90CF90BF90AF909F90FA
:103D90008F900895FC011082118212821382148286
:103DA0001582168217821086118612861386148653
:103DB00015861686178608954F925F926F927F92AE
:103DC0008F929F92AF92BF92CF92DF92EF92FF922B
:103DD000CF93DF9300D01F92CDB7DEB7FC01608197
:103DE00071818281938184809580A680B780C08410
:103DF000D184E284F38444845584668477849B016F
:103E0000AC010E94072869837A838B839C83A50178
:103E10009401C501B4010E9407289B01AC0169818E
:103E20007A818B819C810E947F254B015C01A701D7
:103E30009601C701B6010E9407289B01AC01C5018C
:103E4000B4010E947F256B017C01A3019201C30193
:103E5000B2010E9407289B01AC01C701B6010E9474
:103E60007F250F900F900F900F90DF91CF91FF90D3
:103E7000EF90DF90CF90BF90AF909F908F907F900A
:103E80006F905F904F900C946E28FC01108211820D
:103E9000128213821482158216821782108611866E
:103EA000128613860895CF92DF92EF92FF920F93BE
:103EB0001F93FC01408351836283738304831583C2
:103EC00026833783C086D186E286F3861F910F91C1
:103ED000FF90EF90DF90CF9008954F925F926F9296
:103EE0007F928F929F92AF92BF92CF92DF92EF928A
:103EF000FF92FC0160817181828193818480958031
:103F0000A680B780C084D184E284F3849B01AC0195
:103F10000E9407282B013C01A5019401C501B401B1
:103F20000E9407289B01AC01C301B2010E947F25BA
:103F30004B015C01A7019601C701B6010E94072849
:103F40009B01AC01C501B4010E947F25FF90EF9059
:103F5000DF90CF90BF90AF909F908F907F906F90A9
:103F60005F904F900C946E281F920F920FB60F9295
:103F700011242F933F938F939F93AF93BF9380917F
:103F8000240590912505A0912605B0912705309133
:103F9000230523E0230F2D3720F40196A11DB11D29
:103FA00005C026E8230F0296A11DB11D209323050D
:103FB0008093240590932505A0932605B0932705AB
:103FC0008091280590912905A0912A05B0912B0593
:103FD0000196A11DB11D8093280590932905A093FA
:103FE0002A05B0932B05BF91AF919F918F913F917F
:103FF0002F910F900FBE0F901F9018952FB7F89428
:1040000060912405709125058091260590912705E2
:104010002FBF08953FB7F894809128059091290506
:10402000A0912A05B0912B0526B5A89B05C02F3F6E
:1040300019F00196A11DB11D3FBF6627782F892F6A
:104040009A2F620F711D811D911D42E0660F771F2F
:10405000881F991F4A95D1F708958F929F92AF922A
:10406000BF92CF92DF92EF92FF926B017C010E9490
:104070000A204B015C01C114D104E104F104F1F008
:104080000E947D250E940A20681979098A099B09E6
:10409000683E73408105910570F321E0C21AD10892
:1040A000E108F10888EE880E83E0981EA11CB11C7F
:1040B000C114D104E104F10429F7DDCFFF90EF90A2
:1040C000DF90CF90BF90AF909F908F90089578949D
:1040D00084B5826084BD84B5816084BD85B582600D
:1040E00085BD85B5816085BDEEE6F0E080818160AB
:1040F0008083E1E8F0E010828081826080838081AB
:1041000081608083E0E8F0E0808181608083E1EB82
:10411000F0E0808184608083E0EBF0E0808181606A
:104120008083E1E9F0E0808182608083808181602A
:104130008083E0E9F0E0808181608083E1EAF0E063
:10414000808182608083808181608083E0EAF0E00A
:10415000808181608083E1E2F1E080818260808300
:10416000808181608083E0E2F1E0808181608083F2
:10417000EAE7F0E0808184608083808182608083D0
:104180008081816080838081806880831092C100FB
:10419000089590E0FC013197E231F10508F04CC040
:1041A000EE58FF4F0C94EA28809180008F7703C06F
:1041B000809180008F7D80938000089580918000A1
:1041C000877FF9CF84B58F7702C084B58F7D84BD9A
:1041D00008958091B0008F7703C08091B0008F7DEB
:1041E0008093B0000895809190008F7707C08091F0
:1041F00090008F7D03C080919000877F8093900016
:1042000008958091A0008F7707C08091A0008F7DD6
:1042100003C08091A000877F8093A00008958091C3
:1042200020018F7707C0809120018F7D03C080918E
:104230002001877F8093200108950F931F93CF93D0
:10424000DF931F92CDB7DEB7282F30E0F901EA5B8C
:10425000FD4F8491F901E457FD4F1491F901EE529D
:10426000FD4F04910023C9F0882321F069830E9447
:10427000C9206981E02FF0E0EE0FFF1FE85EFC4FE0
:10428000A591B4919FB7F8948C91611103C01095DA
:10429000812301C0812B8C939FBF0F90DF91CF9121
:1042A0001F910F9108950E941B2AFC01818D228D80
:1042B00090E0805C9F4F821B91098F73992708952E
:1042C000FC01918D828D981731F0828DE80FF11DE0
:1042D000858D90E008958FEF9FEF0895FC01918DFB
:1042E000828D981761F0828DDF01A80FB11D5D9658
:1042F0008C91928D9F5F9F73928F90E008958FEFC6
:104300009FEF089589E293E2892B41F080E090E0ED
:10431000892B21F00E942923811125C080E090E0A3
:10432000892B41F080E090E0892B21F00E94000071
:1043300081111CC080E090E0892B41F080E090E08A
:10434000892B21F00E940000811113C080E090E0D1
:10435000892BA1F080E090E0892B81F00E94000081
:1043600081110AC008950E940000D8CF0E94000069
:10437000E1CF0E940000EACF0C9400000895FC01F8
:10438000848DDF01A80FB11DA35ABF4F2C91848DDE
:1043900090E001968F739927848FA689B7892C9313
:1043A000A089B1898C9180648C93938D848D9813AE
:1043B00006C00288F389E02D80818F7D8083089577
:1043C000CF93DF93EC01888D8823C9F0EA89FB89BC
:1043D000808185FD05C0A889B9898C9186FD0FC0B3
:1043E0000FB607FCF5CF808185FFF2CFA889B98988
:1043F0008C9185FFEDCFCE010E94BF21E7CFDF91E9
:10440000CF910895CF92DF92FF920F931F93CF9396
:10441000DF931F92CDB7DEB76C0181E0D6015896CD
:104420008C9358975B969C915B975C968C915C976C
:10443000981307C05096ED91FC915197808185FDAE
:104440002EC0F601038D10E00F5F1F4F0F73112771
:10445000F02EF601848DF81211C00FB607FCF9CFCB
:10446000D6015096ED91FC915197808185FFF1CF57
:10447000C60169830E94BF216981EBCF838DE80F5C
:10448000F11DE35AFF4F6083D6015B960C935B9757
:104490005296ED91FC915397808180620CC0D601B9
:1044A0005696ED91FC91579760835096ED91FC9153
:1044B000519780818064808381E090E00F90DF914C
:1044C000CF911F910F91FF90DF90CF900895BF92F1
:1044D000CF92DF92EF92FF92CF93DF93EC016A01CC
:1044E0007B01B22EE889F98982E08083411581EE53
:1044F000580761057105A1F060E079E08DE390E077
:10450000A70196010E94C82821503109410951098B
:104510005695479537952795211580E1380798F0EE
:10452000E889F989108260E874E88EE190E0A701DB
:1045300096010E94C8282150310941095109569518
:10454000479537952795EC85FD853083EE85FF856A
:104550002083188EEC89FD89B082EA89FB898081ED
:1045600080618083EA89FB89808188608083EA8911
:10457000FB89808180688083EA89FB8980818F7DC7
:104580008083DF91CF91FF90EF90DF90CF90BF902D
:1045900008951F920F920FB60F9211240BB60F922F
:1045A0002F938F939F93EF93FF93E0913C05F091AE
:1045B0003D058081E0914205F091430582FD12C0E6
:1045C0009081809145058F5F8F73209146058217FA
:1045D00051F0E0914505F0E0E45DFA4F958F80934E
:1045E000450501C08081FF91EF919F918F912F919F
:1045F0000F900BBE0F900FBE0F901F9018951F923B
:104600000F920FB60F9211240BB60F922F933F9378
:104610004F935F936F937F938F939F93AF93BF93CA
:10462000EF93FF938CE295E00E94BF21FF91EF9101
:10463000BF91AF919F918F917F916F915F914F91BA
:104640003F912F910F900BBE0F900FBE0F901F90B8
:1046500018958CE295E00E94552121E0892B09F400
:1046600020E0822F089510922F0510922E0588EEDB
:1046700093E0A0E0B0E08093300590933105A093E3
:104680003205B09333058BEF92E090932D05809324
:104690002C0585EC90E0909339058093380584ECE7
:1046A00090E090933B0580933A0580EC90E09093E6
:1046B0003D0580933C0581EC90E090933F0580930D
:1046C0003E0582EC90E0909341058093400586EC96
:1046D00090E0909343058093420510924505109217
:1046E00046051092470510924805089508950E94C6
:1046F00067200E9476230E94ED01C2E8D1E20E9469
:104700002C022097E1F30E948221F9CF0C948C298E
:10471000CF92DF92EF92FF920F931F93CF93DF938D
:104720007C016A01EB0100E010E00C151D0571F041
:104730006991D701ED91FC910190F081E02DC701C5
:104740001995892B19F00F5F1F4FEFCFC801DF912B
:10475000CF911F910F91FF90EF90DF90CF90089530
:104760006115710581F0DB010D900020E9F7AD01C5
:1047700041505109461B570BDC01ED91FC91028021
:10478000F381E02D199480E090E008950C94B0231B
:10479000DC01ED91FC910190F081E02D199467E02E
:1047A00073E00C94B0230F931F93CF93DF93EC012E
:1047B0000E94B0238C01CE010E94CF23800F911F55
:1047C000DF91CF911F910F9108958F929F92AF9299
:1047D000BF92DF92EF92FF920F931F93CF93DF93DD
:1047E000CDB7DEB7A1970FB6F894DEBF0FBECDBF31
:1047F0007C01F42FD52ECB0119A2223008F42AE037
:104800008E010F5D1F4F822E912CA12CB12C6F2F8A
:104810007D2DA50194010E94C828F22FD32ECA0134
:10482000015011096A3014F4E0E301C0E7E3E60F38
:10483000D801EC93232B242B252B49F7B801C70172
:104840000E94B023A1960FB6F894DEBF0FBECDBF75
:10485000DF91CF911F910F91FF90EF90DF90BF906C
:10486000AF909F908F900895CF92DF92EF92FF923A
:104870000F931F93CF93DF93EC016A017B01211506
:10488000310579F4E881F9810190F081E02D642F00
:10489000DF91CF911F910F91FF90EF90DF90CF901C
:1048A00019942A303105E9F477FF1AC06DE20E94AD
:1048B000C8238C0144275527BA014C195D096E099C
:1048C0007F092AE0CE010E94E523800F911FDF912E
:1048D000CF911F910F91FF90EF90DF90CF900895AF
:1048E0002AE0B701A601CE01DF91CF911F910F9170
:1048F000FF90EF90DF90CF900C94E5234F925F9262
:104900006F927F928F929F92AF92BF92CF92DF92DF
:10491000EF92FF920F931F93CF93DF93EC016A0105
:104920007B01B22E9A01AB01C701B6010E94AF28EC
:10493000882319F06AE073E027C026013701E89464
:1049400077F82FEF3FEF4FE75FE7C301B2010E9417
:10495000AF2881110DC02FEF3FEF4FE75FE7C30195
:10496000B2010E945C2618161CF46EE073E00CC0C5
:104970002FEF3FEF4FE75FE4C701B6010E94FC272E
:104980001816ACF462E173E0CE01DF91CF911F9174
:104990000F91FF90EF90DF90CF90BF90AF909F90DE
:1049A0008F907F906F905F904F900C94B0232FEF7B
:1049B0003FEF4FE75FECC701B6010E945C2687FD21
:1049C000E1CF20E030E0A901C701B6010E945C26DA
:1049D00087FF0AC06DE2CE010E94C8238C01F7FA5E
:1049E000F094F7F8F09402C000E010E0A12C60E031
:1049F00070E080E09FE3AB1441F020E030E040E263
:104A000051E40E946026A394F6CF9B01AC01C7013C
:104A1000B6010E947F256B017C010E94CD262B01EF
:104A20003C010E94F9269B01AC01C701B6010E941E
:104A30007E256B017C012AE0B301A201CE010E9418
:104A4000E523080F191FBB2039F066E173E0CE01A2
:104A50000E94B023080F191F7B2C772041F120E022
:104A600030E040E251E4C701B6010E9407286B0123
:104A70007C010E94C8264B01AA2497FCA094BA2C62
:104A80002AE030E0B501A401CE010E943424080FD1
:104A9000191FC501B4010E94FB269B01AC01C7018F
:104AA000B6010E947E256B017C017A94D6CFC801A5
:104AB000DF91CF911F910F91FF90EF90DF90CF90FA
:104AC000BF90AF909F908F907F906F905F904F902E
:104AD00008950C947E240F931F93CF93DF93EC01E2
:104AE0000E947E248C01CE010E94CF23800F911F53
:104AF000DF91CF911F910F91089508955058BB27D2
:104B0000AA270ED03FC230D230F035D220F031F497
:104B10009F3F11F41EF4EFC10EF4E095E7FBE5C1F1
:104B2000E92F41D280F3BA1762077307840795070C
:104B300018F071F49EF559C20EF4E0950B2EBA2FC1
:104B4000A02D0B01B90190010C01CA01A001112493
:104B5000FF27591B99F0593F50F4503E68F11A163F
:104B6000F040A22F232F342F4427585FF3CF4695D0
:104B700037952795A795F0405395C9F77EF41F16F2
:104B8000BA0B620B730B840BBAF09150A1F0FF0FBC
:104B9000BB1F661F771F881FC2F70EC0BA0F621FA8
:104BA000731F841F48F4879577956795B795F79598
:104BB0009E3F08F0B3CF9395880F08F09927EE0F2A
:104BC0009795879508959F939F77EEE389379E0782
:104BD00020F4E8E0F1E0B7D109C048D19058A2EA4A
:104BE0002AED3FE049EC5FE39BDFCCD10F9007FC5F
:104BF00090580895B9D158F080E891E009F49EEFFB
:104C0000BAD128F040E851E059F45EEF09C073C111
:104C1000ECC1E92FE078C7D168F3092E052AC1F36A
:104C2000261737074807590738F00E2E07F8E025F2
:104C300069F0E025E0640AC0EF6307F8009407FA22
:104C4000DB01B9019D01DC01CA01AD01EF9347D041
:104C500099D10AD05F91552331F02BED3FE049E423
:104C600050FD49EC4CCF0895DF93DD27B92FBF7776
:104C700040E85FE31616170648075B0710F4D92FC4
:104C8000BFD19F938F937F936F9366D2ECE1F1E056
:104C900035D178D12F913F914F915F91C4D1DD23D0
:104CA00049F09058A2EA2AED3FE049EC5FE3D07862
:104CB0005D2736DFDF9166C1F4D008F481E0089506
:104CC0000CD060C158D140F04FD130F021F45F3F9B
:104CD00019F00BC151118AC10EC165D198F3992306
:104CE000C9F35523B1F3951B550BBB27AA276217B0
:104CF0007307840738F09F5F5F4F220F331F441FF5
:104D0000AA1FA9F333D00E2E3AF0E0E830D091502C
:104D10005040E695001CCAF729D0FE2F27D0660F19
:104D2000771F881FBB1F261737074807AB07B0E858
:104D300009F0BB0B802DBF01FF2793585F4F2AF06E
:104D40009E3F510568F0D1C051C15F3FECF3983EE2
:104D5000DCF3869577956795B795F7959F5FC9F7CB
:104D6000880F911D9695879597F90895E1E0660F54
:104D7000771F881FBB1F621773078407BA0720F0CD
:104D8000621B730B840BBA0BEE1F88F7E095089536
:104D900004D06894B1112AC108950DD188F09F57AD
:104DA00090F0B92F9927B751A0F0D1F0660F771F77
:104DB000881F991F1AF0BA95C9F712C0B13081F057
:104DC00014D1B1E0089511C1672F782F8827B85FFB
:104DD00039F0B93FCCF3869577956795B395D9F7B8
:104DE0003EF490958095709561957F4F8F4F9F4FC2
:104DF0000895E89409C097FB3EF4909580957095CE
:104E000061957F4F8F4F9F4F9923A9F0F92F96E916
:104E1000BB279395F695879577956795B795F1118B
:104E2000F8CFFAF4BB0F11F460FF1BC06F5F7F4F28
:104E30008F4F9F4F16C0882311F096E911C077233A
:104E400021F09EE8872F762F05C0662371F096E843
:104E5000862F70E060E02AF09A95660F771F881F12
:104E6000DAF7880F9695879597F90895DF93CF9392
:104E70001F930F938B01EC01E9E4F1E03FD082D066
:104E80009801AE018B01EC0160E070E080E89FE3E7
:104E900035DE24D19801AE010F911F91CF91DF91A2
:104EA000C2C0990F0008550FAA0BE0E8FEEF1616D6
:104EB0001706E807F907C0F012161306E407F5070E
:104EC00098F0621B730B840B950B39F40A2661F082
:104ED000232B242B252B21F408950A2609F4A14025
:104EE000A6958FEF811D811D089597F99F6780E832
:104EF00070E060E008959FEF80EC0895DF93CF931A
:104F00001F930F93FF92EF92DF927B018C016894C5
:104F100005C0DA2EEF0187D0FE01E894A591259116
:104F2000359145915591AEF3EF01FADDFE01970100
:104F3000A801DA9479F7DF90EF90FF900F911F911D
:104F4000CF91DF9108959F938F937F936F93FF93FA
:104F5000EF939B01AC015BD0EF91FF91CFDF2F91DD
:104F60003F914F915F9153C000240A941616170683
:104F700018060906089500240A941216130614064A
:104F800005060895092E0394000C11F4882352F0AD
:104F9000BB0F40F4BF2B11F460FF04C06F5F7F4F65
:104FA0008F4F9F4F089557FD9058440F551F59F04C
:104FB0005F3F71F04795880F97FB991F61F09F3F06
:104FC00079F087950895121613061406551FF2CF2F
:104FD0004695F1DF08C0161617061806991FF1CF7F
:104FE00086957105610508940895E894BB276627A6
:104FF0007727CB0197F9089554DF08F48FEF0895D0
:105000009B01AC0160E070E080E89FE359CE0BD0DB
:10501000B9CFAADF28F0AFDF18F0952309F065CFEC
:105020006ACF1124E3CFBFDFA0F3959FD1F3950F93
:1050300050E0551F629FF001729FBB27F00DB11D1C
:10504000639FAA27F00DB11DAA1F649F6627B00DAC
:10505000A11D661F829F2227B00DA11D621F739F95
:10506000B00DA11D621F839FA00D611D221F749FA3
:105070003327A00D611D231F849F600D211D822FEA
:10508000762F6A2F11249F5750408AF0E1F0882331
:105090004AF0EE0FFF1FBB1F661F771F881F91503E
:1050A0005040A9F79E3F510570F01FCF9FCF5F3F43
:1050B000ECF3983EDCF3869577956795B795F79571
:1050C000E7959F5FC1F7FE2B880F911D96958795F9
:1050D00097F9089511F40EF40ECF45C06CDFD0F3AC
:1050E0009923D9F3CEF39F57550B87FF4AD000245D
:1050F000A0E640EA900180585695979528F4805C88
:10510000660F771F881F20F026173707480730F4EF
:10511000621B730B840B202931294A2BA695179407
:105120000794202531254A2758F7660F771F881FD7
:1051300020F026173707480730F4620B730B840BF7
:10514000200D311D411DA09581F7B901842F915883
:10515000880F9695879508959B01AC0158CFA1DEE5
:10516000880B990B08959F3F31F0915020F487955B
:1051700077956795B795880F911D9695879597F9BF
:10518000089591505040660F771F881FD2F70895F9
:10519000A1E21A2EAA1BBB1BFD010DC0AA1FBB1F3B
:1051A000EE1FFF1FA217B307E407F50720F0A21BAD
:1051B000B30BE40BF50B661F771F881F991F1A941A
:1051C00069F760957095809590959B01AC01BD0144
:1051D000CF010895EE0FFF1F0590F491E02D199473
:1051E0000790F691E02D1994CF93DF9382309105CB
:1051F00010F482E090E0E091CB05F091CC0520E046
:1052000030E0A0E0B0E0309739F14081518148179B
:105210005907B8F04817590771F4828193811097A4
:1052200029F013969C938E9312972CC09093CC05E3
:105230008093CB0527C02115310531F04217530764
:1052400018F0A901DB0101C0EF019A01BD01DF01E6
:105250000280F381E02DD7CF21153105F9F0281B0D
:10526000390B2430310580F48A819B8161157105E9
:1052700021F0FB019383828304C09093CC0580933B
:10528000CB05FE01329644C0FE01E20FF31F81936D
:10529000919322503109398328833AC02091C9055E
:1052A0003091CA05232B41F4209102023091030270
:1052B0003093CA052093C905209100023091010264
:1052C0002115310541F42DB73EB7409104025091AC
:1052D0000502241B350BE091C905F091CA05E217C0
:1052E000F307A0F42E1B3F0B2817390778F0AC0109
:1052F0004E5F5F4F2417350748F04E0F5F1F5093E6
:10530000CA054093C9058193919302C0E0E0F0E0A3
:10531000CF01DF91CF910895CF93DF93009709F4E8
:1053200087C0FC01329713821282C091CB05D091C5
:10533000CC05209781F420813181280F391F80917D
:10534000C9059091CA058217930779F5F093CA05AC
:10535000E093C9056DC0DE0120E030E0AE17BF0765
:1053600050F412964D915C9113979D014115510592
:1053700009F1DA01F3CFB383A28340815181840F15
:10538000951F8A179B0771F48D919C911197840F3B
:10539000951F02969183808312968D919C9113970D
:1053A000938382832115310529F4F093CC05E09392
:1053B000CB053EC0D9011396FC93EE9312974D9105
:1053C0005D91A40FB51FEA17FB0779F480819181E5
:1053D000840F951F0296D90111969C938E9382811A
:1053E000938113969C938E931297E0E0F0E08A816C
:1053F0009B81009719F0FE01EC01F9CFCE010296D6
:1054000028813981820F931F2091C9053091CA05E7
:105410002817390769F4309729F41092CC051092B7
:10542000CB0502C013821282D093CA05C093C9056E
:10543000DF91CF91089581E090E0F8940C942F2AA9
:10544000FB01DC014150504048F001900D920020DA
:10545000C9F701C01D9241505040E0F7089513E094
:10546000C8E3D3E000E006C022970109FE010BBFAC
:105470000E94F028CA33D10780E00807A9F7F89402
:02548000FFCF5C
:105482000000CD0580000000484300007544008004
:105492008944414852532054657374004F6F6F70B2
:1054A200732C206E6F204C534D333033206465745F
:1054B2006563746564202E2E2E20436865636B201D
:1054C200796F757220776972696E6721004F6F6F0D
:1054D20070732C206E6F204C334744323020646549
:1054E200746563746564202E2E2E20436865636B99
:1054F20020796F757220776972696E67206F7220EA
:1055020049324320414444522100596177203A00F4
:105512002050697463683A200020526F6C6C3A2004
:105522000000000000D001D701D601532153210011
:10553200000000FE04D104A604AE04C104D0044C51
:1055420033474432300000000000EB07F107E80760
:10555200E508F8074C534D333033000000000017C4
:105562000B240BD601E80D2B0B00000000110B1DC4
:105572000B0E0BDB0E680B00000000022288235585
:10558200216E216021E0210D0A006E616E00696EBC
:0855920066006F7666002E0032
:00000001FF
